{
  "contractName": "FileManagement",
  "abi": [
    {
      "inputs": [
        {
          "internalType": "uint256",
          "name": "",
          "type": "uint256"
        }
      ],
      "name": "files",
      "outputs": [
        {
          "internalType": "string",
          "name": "name",
          "type": "string"
        },
        {
          "internalType": "address",
          "name": "owner",
          "type": "address"
        }
      ],
      "stateMutability": "view",
      "type": "function",
      "constant": true
    },
    {
      "inputs": [],
      "name": "getFileNames",
      "outputs": [
        {
          "internalType": "string[]",
          "name": "",
          "type": "string[]"
        }
      ],
      "stateMutability": "view",
      "type": "function",
      "constant": true
    },
    {
      "inputs": [],
      "name": "getAllFiles",
      "outputs": [
        {
          "internalType": "string[]",
          "name": "",
          "type": "string[]"
        }
      ],
      "stateMutability": "view",
      "type": "function",
      "constant": true
    },
    {
      "inputs": [],
      "name": "getAll",
      "outputs": [
        {
          "components": [
            {
              "internalType": "string",
              "name": "name",
              "type": "string"
            },
            {
              "internalType": "string[3][]",
              "name": "fileIpfsHashes",
              "type": "string[3][]"
            },
            {
              "internalType": "string[]",
              "name": "hashes",
              "type": "string[]"
            },
            {
              "internalType": "address",
              "name": "owner",
              "type": "address"
            }
          ],
          "internalType": "struct FileManagement.File[]",
          "name": "",
          "type": "tuple[]"
        }
      ],
      "stateMutability": "view",
      "type": "function",
      "constant": true
    },
    {
      "inputs": [
        {
          "internalType": "string",
          "name": "name",
          "type": "string"
        },
        {
          "internalType": "string[3]",
          "name": "ipfsHashes",
          "type": "string[3]"
        },
        {
          "internalType": "string",
          "name": "hash",
          "type": "string"
        }
      ],
      "name": "addFile",
      "outputs": [],
      "stateMutability": "nonpayable",
      "type": "function"
    },
    {
      "inputs": [
        {
          "internalType": "string",
          "name": "name",
          "type": "string"
        }
      ],
      "name": "getFile",
      "outputs": [
        {
          "components": [
            {
              "internalType": "string",
              "name": "name",
              "type": "string"
            },
            {
              "internalType": "string[3][]",
              "name": "fileIpfsHashes",
              "type": "string[3][]"
            },
            {
              "internalType": "string[]",
              "name": "hashes",
              "type": "string[]"
            },
            {
              "internalType": "address",
              "name": "owner",
              "type": "address"
            }
          ],
          "internalType": "struct FileManagement.File",
          "name": "",
          "type": "tuple"
        }
      ],
      "stateMutability": "view",
      "type": "function",
      "constant": true
    },
    {
      "inputs": [
        {
          "internalType": "string",
          "name": "name",
          "type": "string"
        }
      ],
      "name": "removeFile",
      "outputs": [],
      "stateMutability": "nonpayable",
      "type": "function"
    },
    {
      "inputs": [],
      "name": "testContract1",
      "outputs": [
        {
          "internalType": "uint256",
          "name": "",
          "type": "uint256"
        },
        {
          "internalType": "uint256",
          "name": "",
          "type": "uint256"
        }
      ],
      "stateMutability": "pure",
      "type": "function",
      "constant": true
    }
  ],
  "bytecode": "0x608060405234801561001057600080fd5b506123f6806100206000396000f3fe608060405234801561001057600080fd5b50600436106100885760003560e01c8063e0876aa81161005b578063e0876aa814610104578063f1afe04d14610134578063f4c714b414610150578063ff24b5d51461018157610088565b80630b308d3d1461008d57806353ed5143146100a9578063aca05263146100c7578063bfcd5289146100e6575b600080fd5b6100a760048036038101906100a2919061188b565b61019f565b005b6100b1610587565b6040516100be9190611d54565b60405180910390f35b6100cf6108b9565b6040516100dd929190611d8f565b60405180910390f35b6100ee6108d4565b6040516100fb9190611e3e565b60405180910390f35b61011e60048036038101906101199190611e60565b610b68565b60405161012b9190611f1a565b60405180910390f35b61014e60048036038101906101499190611e60565b610f27565b005b61016a60048036038101906101659190611f68565b61115d565b604051610178929190611fee565b60405180910390f35b610189611239565b6040516101969190611e3e565b60405180910390f35b600380146101e2576040517f08c379a00000000000000000000000000000000000000000000000000000000081526004016101d990612090565b60405180910390fd5b6000600160003373ffffffffffffffffffffffffffffffffffffffff1673ffffffffffffffffffffffffffffffffffffffff1681526020019081526020016000208460405161023191906120ec565b9081526020016040518091039020549050600081111561032557600060018261025a9190612132565b8154811061026b5761026a612166565b5b90600052602060002090600402016001018390806001815401808255809150506001900390600052602060002090600302016000909190919091509060036102b4929190611389565b5060006001826102c49190612132565b815481106102d5576102d4612166565b5b90600052602060002090600402016002018290806001815401808255809150506001900390600052602060002001600090919091909150908051906020019061031f9291906113dc565b50610581565b6000600167ffffffffffffffff8111156103425761034161168c565b5b60405190808252806020026020018201604052801561037b57816020015b610368611462565b8152602001906001900390816103605790505b5090506000600167ffffffffffffffff81111561039b5761039a61168c565b5b6040519080825280602002602001820160405280156103ce57816020015b60608152602001906001900390816103b95790505b50905083816000815181106103e6576103e5612166565b5b6020026020010181905250848260008151811061040657610405612166565b5b6020026020010181905250600060405180608001604052808881526020018481526020018381526020013373ffffffffffffffffffffffffffffffffffffffff168152509050600081908060018154018082558091505060019003906000526020600020906004020160009091909190915060008201518160000190805190602001906104949291906113dc565b5060208201518160010190805190602001906104b1929190611489565b5060408201518160020190805190602001906104ce9291906114e7565b5060608201518160030160006101000a81548173ffffffffffffffffffffffffffffffffffffffff021916908373ffffffffffffffffffffffffffffffffffffffff1602179055505050600080549050600160003373ffffffffffffffffffffffffffffffffffffffff1673ffffffffffffffffffffffffffffffffffffffff1681526020019081526020016000208860405161056b91906120ec565b9081526020016040518091039020819055505050505b50505050565b60606000805480602002602001604051908101604052809291908181526020016000905b828210156108b057838290600052602060002090600402016040518060800160405290816000820180546105de906121c4565b80601f016020809104026020016040519081016040528092919081815260200182805461060a906121c4565b80156106575780601f1061062c57610100808354040283529160200191610657565b820191906000526020600020905b81548152906001019060200180831161063a57829003601f168201915b5050505050815260200160018201805480602002602001604051908101604052809291908181526020016000905b8282101561076a5783829060005260206000209060030201600380602002604051908101604052809291906000905b828210156107575783820180546106ca906121c4565b80601f01602080910402602001604051908101604052809291908181526020018280546106f6906121c4565b80156107435780601f1061071857610100808354040283529160200191610743565b820191906000526020600020905b81548152906001019060200180831161072657829003601f168201915b5050505050815260200190600101906106b4565b5050505081526020019060010190610685565b50505050815260200160028201805480602002602001604051908101604052809291908181526020016000905b828210156108435783829060005260206000200180546107b6906121c4565b80601f01602080910402602001604051908101604052809291908181526020018280546107e2906121c4565b801561082f5780601f106108045761010080835404028352916020019161082f565b820191906000526020600020905b81548152906001019060200180831161081257829003601f168201915b505050505081526020019060010190610797565b5050505081526020016003820160009054906101000a900473ffffffffffffffffffffffffffffffffffffffff1673ffffffffffffffffffffffffffffffffffffffff1673ffffffffffffffffffffffffffffffffffffffff1681525050815260200190600101906105ab565b50505050905090565b60008060006029905060006020905081819350935050509091565b606060008080549050905060008167ffffffffffffffff8111156108fb576108fa61168c565b5b60405190808252806020026020018201604052801561092e57816020015b60608152602001906001900390816109195790505b5090506000805b83811015610ab3576000600160003373ffffffffffffffffffffffffffffffffffffffff1673ffffffffffffffffffffffffffffffffffffffff1681526020019081526020016000206000838154811061099257610991612166565b5b90600052602060002090600402016000016040516109b09190612289565b9081526020016040518091039020541115610aa057600081815481106109d9576109d8612166565b5b906000526020600020906004020160000180546109f5906121c4565b80601f0160208091040260200160405190810160405280929190818152602001828054610a21906121c4565b8015610a6e5780601f10610a4357610100808354040283529160200191610a6e565b820191906000526020600020905b815481529060010190602001808311610a5157829003601f168201915b5050505050838381518110610a8657610a85612166565b5b60200260200101819052508180610a9c906122a0565b9250505b8080610aab906122a0565b915050610935565b5060008167ffffffffffffffff811115610ad057610acf61168c565b5b604051908082528060200260200182016040528015610b0357816020015b6060815260200190600190039081610aee5790505b50905060005b82811015610b5d57838181518110610b2457610b23612166565b5b6020026020010151828281518110610b3f57610b3e612166565b5b60200260200101819052508080610b55906122a0565b915050610b09565b508094505050505090565b610b70611547565b6000600160003373ffffffffffffffffffffffffffffffffffffffff1673ffffffffffffffffffffffffffffffffffffffff16815260200190815260200160002083604051610bbf91906120ec565b908152602001604051809103902054905060008111610c13576040517f08c379a0000000000000000000000000000000000000000000000000000000008152600401610c0a90612334565b60405180910390fd5b6000600182610c229190612132565b81548110610c3357610c32612166565b5b9060005260206000209060040201604051806080016040529081600082018054610c5c906121c4565b80601f0160208091040260200160405190810160405280929190818152602001828054610c88906121c4565b8015610cd55780601f10610caa57610100808354040283529160200191610cd5565b820191906000526020600020905b815481529060010190602001808311610cb857829003601f168201915b5050505050815260200160018201805480602002602001604051908101604052809291908181526020016000905b82821015610de85783829060005260206000209060030201600380602002604051908101604052809291906000905b82821015610dd5578382018054610d48906121c4565b80601f0160208091040260200160405190810160405280929190818152602001828054610d74906121c4565b8015610dc15780601f10610d9657610100808354040283529160200191610dc1565b820191906000526020600020905b815481529060010190602001808311610da457829003601f168201915b505050505081526020019060010190610d32565b5050505081526020019060010190610d03565b50505050815260200160028201805480602002602001604051908101604052809291908181526020016000905b82821015610ec1578382906000526020600020018054610e34906121c4565b80601f0160208091040260200160405190810160405280929190818152602001828054610e60906121c4565b8015610ead5780601f10610e8257610100808354040283529160200191610ead565b820191906000526020600020905b815481529060010190602001808311610e9057829003601f168201915b505050505081526020019060010190610e15565b5050505081526020016003820160009054906101000a900473ffffffffffffffffffffffffffffffffffffffff1673ffffffffffffffffffffffffffffffffffffffff1673ffffffffffffffffffffffffffffffffffffffff1681525050915050919050565b6000600160003373ffffffffffffffffffffffffffffffffffffffff1673ffffffffffffffffffffffffffffffffffffffff16815260200190815260200160002082604051610f7691906120ec565b908152602001604051809103902054905060008111610fca576040517f08c379a0000000000000000000000000000000000000000000000000000000008152600401610fc1906123a0565b60405180910390fd5b6000600160003373ffffffffffffffffffffffffffffffffffffffff1673ffffffffffffffffffffffffffffffffffffffff1681526020019081526020016000208360405161101991906120ec565b908152602001604051809103902081905550600067ffffffffffffffff8111156110465761104561168c565b5b60405190808252806020026020018201604052801561107f57816020015b61106c611462565b8152602001906001900390816110645790505b50600060018361108f9190612132565b815481106110a05761109f612166565b5b906000526020600020906004020160010190805190602001906110c4929190611489565b50600067ffffffffffffffff8111156110e0576110df61168c565b5b60405190808252806020026020018201604052801561111357816020015b60608152602001906001900390816110fe5790505b5060006001836111239190612132565b8154811061113457611133612166565b5b906000526020600020906004020160020190805190602001906111589291906114e7565b505050565b6000818154811061116d57600080fd5b9060005260206000209060040201600091509050806000018054611190906121c4565b80601f01602080910402602001604051908101604052809291908181526020018280546111bc906121c4565b80156112095780601f106111de57610100808354040283529160200191611209565b820191906000526020600020905b8154815290600101906020018083116111ec57829003601f168201915b5050505050908060030160009054906101000a900473ffffffffffffffffffffffffffffffffffffffff16905082565b606060008080549050905060008167ffffffffffffffff8111156112605761125f61168c565b5b60405190808252806020026020018201604052801561129357816020015b606081526020019060019003908161127e5790505b50905060005b8281101561138057600081815481106112b5576112b4612166565b5b906000526020600020906004020160000180546112d1906121c4565b80601f01602080910402602001604051908101604052809291908181526020018280546112fd906121c4565b801561134a5780601f1061131f5761010080835404028352916020019161134a565b820191906000526020600020905b81548152906001019060200180831161132d57829003601f168201915b505050505082828151811061136257611361612166565b5b60200260200101819052508080611378906122a0565b915050611299565b50809250505090565b82600381019282156113cb579160200282015b828111156113ca5782518290805190602001906113ba9291906113dc565b509160200191906001019061139c565b5b5090506113d89190611585565b5090565b8280546113e8906121c4565b90600052602060002090601f01602090048101928261140a5760008555611451565b82601f1061142357805160ff1916838001178555611451565b82800160010185558215611451579182015b82811115611450578251825591602001919060010190611435565b5b50905061145e91906115a9565b5090565b60405180606001604052806003905b60608152602001906001900390816114715790505090565b8280548282559060005260206000209060030281019282156114d6579160200282015b828111156114d5578251829060036114c5929190611389565b50916020019190600301906114ac565b5b5090506114e391906115c6565b5090565b828054828255906000526020600020908101928215611536579160200282015b828111156115355782518290805190602001906115259291906113dc565b5091602001919060010190611507565b5b5090506115439190611585565b5090565b6040518060800160405280606081526020016060815260200160608152602001600073ffffffffffffffffffffffffffffffffffffffff1681525090565b5b808211156115a5576000818161159c91906115ea565b50600101611586565b5090565b5b808211156115c25760008160009055506001016115aa565b5090565b5b808211156115e657600081816115dd919061162a565b506003016115c7565b5090565b5080546115f6906121c4565b6000825580601f106116085750611627565b601f01602090049060005260206000209081019061162691906115a9565b5b50565b506000818161163991906115ea565b506001016000818161164b91906115ea565b50600101600061165b91906115ea565b565b6000604051905090565b600080fd5b600080fd5b600080fd5b600080fd5b6000601f19601f8301169050919050565b7f4e487b7100000000000000000000000000000000000000000000000000000000600052604160045260246000fd5b6116c48261167b565b810181811067ffffffffffffffff821117156116e3576116e261168c565b5b80604052505050565b60006116f661165d565b905061170282826116bb565b919050565b600067ffffffffffffffff8211156117225761172161168c565b5b61172b8261167b565b9050602081019050919050565b82818337600083830152505050565b600061175a61175584611707565b6116ec565b90508281526020810184848401111561177657611775611676565b5b611781848285611738565b509392505050565b600082601f83011261179e5761179d611671565b5b81356117ae848260208601611747565b91505092915050565b600067ffffffffffffffff8211156117d2576117d161168c565b5b602082029050919050565b600080fd5b60006117f56117f0846117b7565b6116ec565b9050806020840283018581111561180f5761180e6117dd565b5b835b8181101561185657803567ffffffffffffffff81111561183457611833611671565b5b8086016118418982611789565b85526020850194505050602081019050611811565b5050509392505050565b600082601f83011261187557611874611671565b5b60036118828482856117e2565b91505092915050565b6000806000606084860312156118a4576118a3611667565b5b600084013567ffffffffffffffff8111156118c2576118c161166c565b5b6118ce86828701611789565b935050602084013567ffffffffffffffff8111156118ef576118ee61166c565b5b6118fb86828701611860565b925050604084013567ffffffffffffffff81111561191c5761191b61166c565b5b61192886828701611789565b9150509250925092565b600081519050919050565b600082825260208201905092915050565b6000819050602082019050919050565b600081519050919050565b600082825260208201905092915050565b60005b8381101561199857808201518184015260208101905061197d565b838111156119a7576000848401525b50505050565b60006119b88261195e565b6119c28185611969565b93506119d281856020860161197a565b6119db8161167b565b840191505092915050565b600081519050919050565b600082825260208201905092915050565b6000819050602082019050919050565b600060039050919050565b600081905092915050565b6000819050919050565b6000611a3e83836119ad565b905092915050565b6000602082019050919050565b6000611a5e82611a12565b611a688185611a1d565b935083602082028501611a7a85611a28565b8060005b85811015611ab65784840389528151611a978582611a32565b9450611aa283611a46565b925060208a01995050600181019050611a7e565b50829750879550505050505092915050565b6000611ad48383611a53565b905092915050565b6000602082019050919050565b6000611af4826119e6565b611afe81856119f1565b935083602082028501611b1085611a02565b8060005b85811015611b4c5784840389528151611b2d8582611ac8565b9450611b3883611adc565b925060208a01995050600181019050611b14565b50829750879550505050505092915050565b600081519050919050565b600082825260208201905092915050565b6000819050602082019050919050565b6000602082019050919050565b6000611ba282611b5e565b611bac8185611b69565b935083602082028501611bbe85611b7a565b8060005b85811015611bfa5784840389528151611bdb8582611a32565b9450611be683611b8a565b925060208a01995050600181019050611bc2565b50829750879550505050505092915050565b600073ffffffffffffffffffffffffffffffffffffffff82169050919050565b6000611c3782611c0c565b9050919050565b611c4781611c2c565b82525050565b60006080830160008301518482036000860152611c6a82826119ad565b91505060208301518482036020860152611c848282611ae9565b91505060408301518482036040860152611c9e8282611b97565b9150506060830151611cb36060860182611c3e565b508091505092915050565b6000611cca8383611c4d565b905092915050565b6000602082019050919050565b6000611cea82611932565b611cf4818561193d565b935083602082028501611d068561194e565b8060005b85811015611d425784840389528151611d238582611cbe565b9450611d2e83611cd2565b925060208a01995050600181019050611d0a565b50829750879550505050505092915050565b60006020820190508181036000830152611d6e8184611cdf565b905092915050565b6000819050919050565b611d8981611d76565b82525050565b6000604082019050611da46000830185611d80565b611db16020830184611d80565b9392505050565b600082825260208201905092915050565b6000611dd482611b5e565b611dde8185611db8565b935083602082028501611df085611b7a565b8060005b85811015611e2c5784840389528151611e0d8582611a32565b9450611e1883611b8a565b925060208a01995050600181019050611df4565b50829750879550505050505092915050565b60006020820190508181036000830152611e588184611dc9565b905092915050565b600060208284031215611e7657611e75611667565b5b600082013567ffffffffffffffff811115611e9457611e9361166c565b5b611ea084828501611789565b91505092915050565b60006080830160008301518482036000860152611ec682826119ad565b91505060208301518482036020860152611ee08282611ae9565b91505060408301518482036040860152611efa8282611b97565b9150506060830151611f0f6060860182611c3e565b508091505092915050565b60006020820190508181036000830152611f348184611ea9565b905092915050565b611f4581611d76565b8114611f5057600080fd5b50565b600081359050611f6281611f3c565b92915050565b600060208284031215611f7e57611f7d611667565b5b6000611f8c84828501611f53565b91505092915050565b600082825260208201905092915050565b6000611fb18261195e565b611fbb8185611f95565b9350611fcb81856020860161197a565b611fd48161167b565b840191505092915050565b611fe881611c2c565b82525050565b600060408201905081810360008301526120088185611fa6565b90506120176020830184611fdf565b9392505050565b7f49504653206861736865732073686f756c642062652070726f7669646564206660008201527f6f7220616c6c20746872656520706f736974696f6e7300000000000000000000602082015250565b600061207a603683611f95565b91506120858261201e565b604082019050919050565b600060208201905081810360008301526120a98161206d565b9050919050565b600081905092915050565b60006120c68261195e565b6120d081856120b0565b93506120e081856020860161197a565b80840191505092915050565b60006120f882846120bb565b915081905092915050565b7f4e487b7100000000000000000000000000000000000000000000000000000000600052601160045260246000fd5b600061213d82611d76565b915061214883611d76565b92508282101561215b5761215a612103565b5b828203905092915050565b7f4e487b7100000000000000000000000000000000000000000000000000000000600052603260045260246000fd5b7f4e487b7100000000000000000000000000000000000000000000000000000000600052602260045260246000fd5b600060028204905060018216806121dc57607f821691505b6020821081036121ef576121ee612195565b5b50919050565b60008190508160005260206000209050919050565b60008154612217816121c4565b61222181866120b0565b9450600182166000811461223c576001811461224d57612280565b60ff19831686528186019350612280565b612256856121f5565b60005b8381101561227857815481890152600182019150602081019050612259565b838801955050505b50505092915050565b6000612295828461220a565b915081905092915050565b60006122ab82611d76565b91507fffffffffffffffffffffffffffffffffffffffffffffffffffffffffffffffff82036122dd576122dc612103565b5b600182019050919050565b7f46696c65206e6f7420666f756e64000000000000000000000000000000000000600082015250565b600061231e600e83611f95565b9150612329826122e8565b602082019050919050565b6000602082019050818103600083015261234d81612311565b9050919050565b7f46696c6520646f65736e20742065786973740000000000000000000000000000600082015250565b600061238a601283611f95565b915061239582612354565b602082019050919050565b600060208201905081810360008301526123b98161237d565b905091905056fea2646970667358221220f2a61d745878c04ba5c4ffd5a9459967486338c93d6cb9e38edd7ed724cdd03b64736f6c634300080d0033",
  "immutableReferences": {},
  "source": "pragma solidity ^0.8.13;\n// SPDX-License-Identifier: MIT\n\ncontract FileManagement {\n\n    struct File {\n        string name;\n        string[3][] fileIpfsHashes; // Matrix to store three IPFS hashes for each version\n        string[] hashes;\n        address owner;\n        \n    }\n\n    File[] public files;\n    mapping(address => mapping(string => uint)) private ownerFileIndexes;\n\n\n    function getFileNames() public view returns (string[] memory) {\n         uint256 fileCount = files.length;\n\n        // Temporary array to store filtered file names\n        string[] memory ownerFiles = new string[](fileCount);\n        uint256 ownerFileCount = 0;\n\n        for (uint256 i = 0; i < fileCount; i++) {\n            // Check if the file belongs to the specified owner\n            if (ownerFileIndexes[msg.sender][files[i].name] > 0) {\n                ownerFiles[ownerFileCount] = files[i].name;\n                ownerFileCount++;\n            }\n        }\n\n        // Create a new array with the correct size to store only the owner's files\n        string[] memory result = new string[](ownerFileCount);\n        for (uint256 j = 0; j < ownerFileCount; j++) {\n            result[j] = ownerFiles[j];\n        }\n\n        return result;\n    }\n\n    function getAllFiles() public view returns (string[] memory) {\n         uint256 fileCount = files.length;\n\n        // Temporary array to store filtered file names\n        string[] memory ownerFiles = new string[](fileCount);\n\n        for (uint256 i = 0; i < fileCount; i++) {\n                ownerFiles[i] = files[i].name;\n        }\n\n        return ownerFiles;\n    }\n\n    function getAll() public view returns (File[] memory) {\n        return files;\n    }\n\n\n    function addFile(string memory name, string[3] memory ipfsHashes, string memory hash) public  {\n        require(ipfsHashes.length == 3, \"IPFS hashes should be provided for all three positions\");\n\n        uint index = ownerFileIndexes[msg.sender][name];\n        \n\n        if(index > 0){\n            files[index - 1].fileIpfsHashes.push(ipfsHashes);\n            files[index - 1].hashes.push(hash);\n        }else{\n            string[3][] memory ipfsMatrix = new string[3][](1);\n            string[] memory hashes = new string[](1);\n\n            hashes[0] = hash;\n            ipfsMatrix[0] = ipfsHashes;\n            File memory file = File(name, ipfsMatrix, hashes, msg.sender);\n            files.push(file);\n            ownerFileIndexes[msg.sender][name] = files.length;\n        }\n    }\n\n    function getFile(string memory name) public view returns (File memory) {\n        uint index = ownerFileIndexes[msg.sender][name];\n        require(index > 0, \"File not found\");\n        return (files[index - 1]);\n    }\n\n    function removeFile(string memory name) public {\n\n        uint index = ownerFileIndexes[msg.sender][name];\n        require(index > 0, \"File doesn t exist\");\n        \n        ownerFileIndexes[msg.sender][name] = 0;\n        files[index - 1].fileIpfsHashes = new string[3][](0);  \n        files[index - 1].hashes = new string[](0);            \n    }\n\n    function testContract1() public pure returns (uint, uint) {\n        uint x=41;\n        uint y=32;\n        return (x, y);\n    }\n\n}\n",
  "sourcePath": "/home/aurel/Disertatie/Truffle/contracts/FileManagement.sol",
  "compiler": {
    "name": "solc",
    "version": "0.8.13+commit.abaa5c0e.Emscripten.clang"
  },
  "schemaVersion": "3.4.16",
  "updatedAt": "2024-04-24T09:16:21.516Z",
  "networkType": "ethereum",
  "devdoc": {
    "kind": "dev",
    "methods": {},
    "version": 1
  },
  "userdoc": {
    "kind": "user",
    "methods": {},
    "version": 1
  }
}