{
  "contractName": "FileManagement",
  "abi": [
    {
      "inputs": [
        {
          "internalType": "uint256",
          "name": "",
          "type": "uint256"
        }
      ],
      "name": "files",
      "outputs": [
        {
          "internalType": "string",
          "name": "name",
          "type": "string"
        },
        {
          "internalType": "address",
          "name": "owner",
          "type": "address"
        }
      ],
      "stateMutability": "view",
      "type": "function",
      "constant": true
    },
    {
      "inputs": [
        {
          "internalType": "address",
          "name": "account",
          "type": "address"
        }
      ],
      "name": "getFileNames",
      "outputs": [
        {
          "internalType": "string[]",
          "name": "",
          "type": "string[]"
        }
      ],
      "stateMutability": "view",
      "type": "function",
      "constant": true
    },
    {
      "inputs": [],
      "name": "getFiles",
      "outputs": [
        {
          "components": [
            {
              "internalType": "string",
              "name": "name",
              "type": "string"
            },
            {
              "internalType": "string[][]",
              "name": "fileIpfsHashes",
              "type": "string[][]"
            },
            {
              "internalType": "string[]",
              "name": "hashes",
              "type": "string[]"
            },
            {
              "internalType": "address",
              "name": "owner",
              "type": "address"
            },
            {
              "internalType": "string[]",
              "name": "timestamps",
              "type": "string[]"
            }
          ],
          "internalType": "struct FileManagement.File[]",
          "name": "",
          "type": "tuple[]"
        }
      ],
      "stateMutability": "view",
      "type": "function",
      "constant": true
    },
    {
      "inputs": [],
      "name": "getAllFiles",
      "outputs": [
        {
          "components": [
            {
              "internalType": "string",
              "name": "name",
              "type": "string"
            },
            {
              "internalType": "string[][]",
              "name": "fileIpfsHashes",
              "type": "string[][]"
            },
            {
              "internalType": "string[]",
              "name": "hashes",
              "type": "string[]"
            },
            {
              "internalType": "address",
              "name": "owner",
              "type": "address"
            },
            {
              "internalType": "string[]",
              "name": "timestamps",
              "type": "string[]"
            }
          ],
          "internalType": "struct FileManagement.File[]",
          "name": "",
          "type": "tuple[]"
        }
      ],
      "stateMutability": "view",
      "type": "function",
      "constant": true
    },
    {
      "inputs": [
        {
          "internalType": "string",
          "name": "name",
          "type": "string"
        }
      ],
      "name": "getFile",
      "outputs": [
        {
          "components": [
            {
              "internalType": "string",
              "name": "name",
              "type": "string"
            },
            {
              "internalType": "string[][]",
              "name": "fileIpfsHashes",
              "type": "string[][]"
            },
            {
              "internalType": "string[]",
              "name": "hashes",
              "type": "string[]"
            },
            {
              "internalType": "address",
              "name": "owner",
              "type": "address"
            },
            {
              "internalType": "string[]",
              "name": "timestamps",
              "type": "string[]"
            }
          ],
          "internalType": "struct FileManagement.File",
          "name": "",
          "type": "tuple"
        }
      ],
      "stateMutability": "view",
      "type": "function",
      "constant": true
    },
    {
      "inputs": [
        {
          "internalType": "string",
          "name": "name",
          "type": "string"
        },
        {
          "internalType": "string[]",
          "name": "ipfsHashes",
          "type": "string[]"
        },
        {
          "internalType": "string",
          "name": "hash",
          "type": "string"
        },
        {
          "internalType": "string",
          "name": "timeStamp",
          "type": "string"
        }
      ],
      "name": "addFile",
      "outputs": [],
      "stateMutability": "nonpayable",
      "type": "function"
    },
    {
      "inputs": [
        {
          "internalType": "string",
          "name": "name",
          "type": "string"
        },
        {
          "internalType": "address",
          "name": "account",
          "type": "address"
        }
      ],
      "name": "shareAccessToFile",
      "outputs": [],
      "stateMutability": "nonpayable",
      "type": "function"
    },
    {
      "inputs": [
        {
          "internalType": "string",
          "name": "name",
          "type": "string"
        },
        {
          "internalType": "address",
          "name": "account",
          "type": "address"
        }
      ],
      "name": "revokeAccessToFile",
      "outputs": [],
      "stateMutability": "nonpayable",
      "type": "function"
    },
    {
      "inputs": [
        {
          "internalType": "string",
          "name": "name",
          "type": "string"
        }
      ],
      "name": "removeFile",
      "outputs": [],
      "stateMutability": "nonpayable",
      "type": "function"
    },
    {
      "inputs": [
        {
          "internalType": "string",
          "name": "name",
          "type": "string"
        },
        {
          "internalType": "address",
          "name": "accountAddress",
          "type": "address"
        },
        {
          "internalType": "string",
          "name": "privateKey",
          "type": "string"
        }
      ],
      "name": "createAccount",
      "outputs": [
        {
          "components": [
            {
              "internalType": "string",
              "name": "name",
              "type": "string"
            },
            {
              "internalType": "address",
              "name": "accountAddress",
              "type": "address"
            },
            {
              "internalType": "string",
              "name": "privateKey",
              "type": "string"
            },
            {
              "internalType": "bool",
              "name": "exists",
              "type": "bool"
            }
          ],
          "internalType": "struct FileManagement.Account",
          "name": "newAccount",
          "type": "tuple"
        }
      ],
      "stateMutability": "nonpayable",
      "type": "function"
    },
    {
      "inputs": [
        {
          "internalType": "string",
          "name": "name",
          "type": "string"
        }
      ],
      "name": "deleteAccount",
      "outputs": [],
      "stateMutability": "nonpayable",
      "type": "function"
    },
    {
      "inputs": [],
      "name": "getAccounts",
      "outputs": [
        {
          "internalType": "string[]",
          "name": "accountsList",
          "type": "string[]"
        }
      ],
      "stateMutability": "view",
      "type": "function",
      "constant": true
    },
    {
      "inputs": [
        {
          "internalType": "string",
          "name": "name",
          "type": "string"
        }
      ],
      "name": "getAccount",
      "outputs": [
        {
          "components": [
            {
              "internalType": "string",
              "name": "name",
              "type": "string"
            },
            {
              "internalType": "address",
              "name": "accountAddress",
              "type": "address"
            },
            {
              "internalType": "string",
              "name": "privateKey",
              "type": "string"
            },
            {
              "internalType": "bool",
              "name": "exists",
              "type": "bool"
            }
          ],
          "internalType": "struct FileManagement.Account",
          "name": "accountsList",
          "type": "tuple"
        }
      ],
      "stateMutability": "view",
      "type": "function",
      "constant": true
    },
    {
      "inputs": [],
      "name": "getAccountsInfo",
      "outputs": [
        {
          "components": [
            {
              "internalType": "string",
              "name": "name",
              "type": "string"
            },
            {
              "internalType": "address",
              "name": "accountAddress",
              "type": "address"
            },
            {
              "internalType": "string",
              "name": "privateKey",
              "type": "string"
            },
            {
              "internalType": "bool",
              "name": "exists",
              "type": "bool"
            }
          ],
          "internalType": "struct FileManagement.Account[]",
          "name": "accountsList",
          "type": "tuple[]"
        }
      ],
      "stateMutability": "view",
      "type": "function",
      "constant": true
    }
  ],
  "bytecode": "0x608060405234801561001057600080fd5b5061492f806100206000396000f3fe608060405234801561001057600080fd5b50600436106100ea5760003560e01c8063d5e363f91161008c578063f1afe04d11610066578063f1afe04d1461025d578063f4c714b414610279578063fd6f62a3146102aa578063ff24b5d5146102c6576100ea565b8063d5e363f9146101f5578063e0876aa814610211578063ea4518e514610241576100ea565b80634518f6b3116100c85780634518f6b31461016d5780634534c6ff1461019d5780637c3e165e146101bb5780638a48ac03146101d7576100ea565b80632da96d73146100ef578063331ef9761461010d5780633a736ad01461013d575b600080fd5b6100f76102e4565b604051610104919061381b565b60405180910390f35b610127600480360381019061012291906139b2565b6108bd565b6040516101349190613ac2565b60405180910390f35b61015760048036038101906101529190613ae4565b610c1b565b6040516101649190613b97565b60405180910390f35b61018760048036038101906101829190613bb9565b610eb1565b6040516101949190613ac2565b60405180910390f35b6101a561128c565b6040516101b29190613d2e565b60405180910390f35b6101d560048036038101906101d09190613d50565b611510565b005b6101df6116d8565b6040516101ec9190613b97565b60405180910390f35b61020f600480360381019061020a9190613bb9565b6117b1565b005b61022b60048036038101906102269190613bb9565b611b66565b6040516102389190613e37565b60405180910390f35b61025b60048036038101906102569190613d50565b61200c565b005b61027760048036038101906102729190613bb9565b61222e565b005b610293600480360381019061028e9190613e8f565b6125b6565b6040516102a1929190613f15565b60405180910390f35b6102c460048036038101906102bf919061402b565b612692565b005b6102ce612c57565b6040516102db919061381b565b60405180910390f35b606060008080549050905060008167ffffffffffffffff81111561030b5761030a61385b565b5b60405190808252806020026020018201604052801561034457816020015b610331613070565b8152602001906001900390816103295790505b5090506000805b83811015610802576000600160003373ffffffffffffffffffffffffffffffffffffffff1673ffffffffffffffffffffffffffffffffffffffff168152602001908152602001600020600083815481106103a8576103a7614102565b5b90600052602060002090600502016000016040516103c69190614230565b90815260200160405180910390205411156107ef57600081815481106103ef576103ee614102565b5b90600052602060002090600502016040518060a001604052908160008201805461041890614160565b80601f016020809104026020016040519081016040528092919081815260200182805461044490614160565b80156104915780601f1061046657610100808354040283529160200191610491565b820191906000526020600020905b81548152906001019060200180831161047457829003601f168201915b5050505050815260200160018201805480602002602001604051908101604052809291908181526020016000905b828210156105b257838290600052602060002001805480602002602001604051908101604052809291908181526020016000905b8282101561059f57838290600052602060002001805461051290614160565b80601f016020809104026020016040519081016040528092919081815260200182805461053e90614160565b801561058b5780601f106105605761010080835404028352916020019161058b565b820191906000526020600020905b81548152906001019060200180831161056e57829003601f168201915b5050505050815260200190600101906104f3565b50505050815260200190600101906104bf565b50505050815260200160028201805480602002602001604051908101604052809291908181526020016000905b8282101561068b5783829060005260206000200180546105fe90614160565b80601f016020809104026020016040519081016040528092919081815260200182805461062a90614160565b80156106775780601f1061064c57610100808354040283529160200191610677565b820191906000526020600020905b81548152906001019060200180831161065a57829003601f168201915b5050505050815260200190600101906105df565b5050505081526020016003820160009054906101000a900473ffffffffffffffffffffffffffffffffffffffff1673ffffffffffffffffffffffffffffffffffffffff1673ffffffffffffffffffffffffffffffffffffffff16815260200160048201805480602002602001604051908101604052809291908181526020016000905b828210156107ba57838290600052602060002001805461072d90614160565b80601f016020809104026020016040519081016040528092919081815260200182805461075990614160565b80156107a65780601f1061077b576101008083540402835291602001916107a6565b820191906000526020600020905b81548152906001019060200180831161078957829003601f168201915b50505050508152602001906001019061070e565b50505050815250508383815181106107d5576107d4614102565b5b602002602001018190525081806107eb90614276565b9250505b80806107fa90614276565b91505061034b565b5060008167ffffffffffffffff81111561081f5761081e61385b565b5b60405190808252806020026020018201604052801561085857816020015b610845613070565b81526020019060019003908161083d5790505b50905060005b828110156108b25783818151811061087957610878614102565b5b602002602001015182828151811061089457610893614102565b5b602002602001018190525080806108aa90614276565b91505061085e565b508094505050505090565b6108c56130b5565b60006002856040516108d791906142ef565b908152602001604051809103902060405180608001604052908160008201805461090090614160565b80601f016020809104026020016040519081016040528092919081815260200182805461092c90614160565b80156109795780601f1061094e57610100808354040283529160200191610979565b820191906000526020600020905b81548152906001019060200180831161095c57829003601f168201915b505050505081526020016001820160009054906101000a900473ffffffffffffffffffffffffffffffffffffffff1673ffffffffffffffffffffffffffffffffffffffff1673ffffffffffffffffffffffffffffffffffffffff1681526020016002820180546109e890614160565b80601f0160208091040260200160405190810160405280929190818152602001828054610a1490614160565b8015610a615780601f10610a3657610100808354040283529160200191610a61565b820191906000526020600020905b815481529060010190602001808311610a4457829003601f168201915b505050505081526020016003820160009054906101000a900460ff1615151515815250509050600015158160600151151514610ad2576040517f08c379a0000000000000000000000000000000000000000000000000000000008152600401610ac990614352565b60405180910390fd5b600060405180608001604052808781526020018673ffffffffffffffffffffffffffffffffffffffff16815260200185815260200160011515815250905080600287604051610b2191906142ef565b90815260200160405180910390206000820151816000019080519060200190610b4b9291906130f5565b5060208201518160010160006101000a81548173ffffffffffffffffffffffffffffffffffffffff021916908373ffffffffffffffffffffffffffffffffffffffff1602179055506040820151816002019080519060200190610baf9291906130f5565b5060608201518160030160006101000a81548160ff021916908315150217905550905050600386908060018154018082558091505060019003906000526020600020016000909190919091509080519060200190610c0e9291906130f5565b5080925050509392505050565b606060008080549050905060008167ffffffffffffffff811115610c4257610c4161385b565b5b604051908082528060200260200182016040528015610c7557816020015b6060815260200190600190039081610c605790505b5090506000805b83811015610dfa576000600160008873ffffffffffffffffffffffffffffffffffffffff1673ffffffffffffffffffffffffffffffffffffffff16815260200190815260200160002060008381548110610cd957610cd8614102565b5b9060005260206000209060050201600001604051610cf79190614230565b9081526020016040518091039020541115610de75760008181548110610d2057610d1f614102565b5b90600052602060002090600502016000018054610d3c90614160565b80601f0160208091040260200160405190810160405280929190818152602001828054610d6890614160565b8015610db55780601f10610d8a57610100808354040283529160200191610db5565b820191906000526020600020905b815481529060010190602001808311610d9857829003601f168201915b5050505050838381518110610dcd57610dcc614102565b5b60200260200101819052508180610de390614276565b9250505b8080610df290614276565b915050610c7c565b5060008167ffffffffffffffff811115610e1757610e1661385b565b5b604051908082528060200260200182016040528015610e4a57816020015b6060815260200190600190039081610e355790505b50905060005b82811015610ea457838181518110610e6b57610e6a614102565b5b6020026020010151828281518110610e8657610e85614102565b5b60200260200101819052508080610e9c90614276565b915050610e50565b5080945050505050919050565b610eb96130b5565b6000600283604051610ecb91906142ef565b9081526020016040518091039020604051806080016040529081600082018054610ef490614160565b80601f0160208091040260200160405190810160405280929190818152602001828054610f2090614160565b8015610f6d5780601f10610f4257610100808354040283529160200191610f6d565b820191906000526020600020905b815481529060010190602001808311610f5057829003601f168201915b505050505081526020016001820160009054906101000a900473ffffffffffffffffffffffffffffffffffffffff1673ffffffffffffffffffffffffffffffffffffffff1673ffffffffffffffffffffffffffffffffffffffff168152602001600282018054610fdc90614160565b80601f016020809104026020016040519081016040528092919081815260200182805461100890614160565b80156110555780601f1061102a57610100808354040283529160200191611055565b820191906000526020600020905b81548152906001019060200180831161103857829003601f168201915b505050505081526020016003820160009054906101000a900460ff16151515158152505090506001151581606001511515146110c6576040517f08c379a00000000000000000000000000000000000000000000000000000000081526004016110bd906143be565b60405180910390fd5b6002836040516110d691906142ef565b90815260200160405180910390206040518060800160405290816000820180546110ff90614160565b80601f016020809104026020016040519081016040528092919081815260200182805461112b90614160565b80156111785780601f1061114d57610100808354040283529160200191611178565b820191906000526020600020905b81548152906001019060200180831161115b57829003601f168201915b505050505081526020016001820160009054906101000a900473ffffffffffffffffffffffffffffffffffffffff1673ffffffffffffffffffffffffffffffffffffffff1673ffffffffffffffffffffffffffffffffffffffff1681526020016002820180546111e790614160565b80601f016020809104026020016040519081016040528092919081815260200182805461121390614160565b80156112605780601f1061123557610100808354040283529160200191611260565b820191906000526020600020905b81548152906001019060200180831161124357829003601f168201915b505050505081526020016003820160009054906101000a900460ff161515151581525050915050919050565b60606000600380549050905060008167ffffffffffffffff8111156112b4576112b361385b565b5b6040519080825280602002602001820160405280156112ed57816020015b6112da6130b5565b8152602001906001900390816112d25790505b50905060005b828110156115075760026003828154811061131157611310614102565b5b906000526020600020016040516113289190614230565b908152602001604051809103902060405180608001604052908160008201805461135190614160565b80601f016020809104026020016040519081016040528092919081815260200182805461137d90614160565b80156113ca5780601f1061139f576101008083540402835291602001916113ca565b820191906000526020600020905b8154815290600101906020018083116113ad57829003601f168201915b505050505081526020016001820160009054906101000a900473ffffffffffffffffffffffffffffffffffffffff1673ffffffffffffffffffffffffffffffffffffffff1673ffffffffffffffffffffffffffffffffffffffff16815260200160028201805461143990614160565b80601f016020809104026020016040519081016040528092919081815260200182805461146590614160565b80156114b25780601f10611487576101008083540402835291602001916114b2565b820191906000526020600020905b81548152906001019060200180831161149557829003601f168201915b505050505081526020016003820160009054906101000a900460ff1615151515815250508282815181106114e9576114e8614102565b5b602002602001018190525080806114ff90614276565b9150506112f3565b50809250505090565b6000600160003373ffffffffffffffffffffffffffffffffffffffff1673ffffffffffffffffffffffffffffffffffffffff1681526020019081526020016000208360405161155f91906142ef565b9081526020016040518091039020549050600081116115b3576040517f08c379a00000000000000000000000000000000000000000000000000000000081526004016115aa9061442a565b60405180910390fd5b3373ffffffffffffffffffffffffffffffffffffffff1660006001836115d9919061444a565b815481106115ea576115e9614102565b5b906000526020600020906005020160030160009054906101000a900473ffffffffffffffffffffffffffffffffffffffff1673ffffffffffffffffffffffffffffffffffffffff1614611672576040517f08c379a0000000000000000000000000000000000000000000000000000000008152600401611669906144f0565b60405180910390fd5b6000600160008473ffffffffffffffffffffffffffffffffffffffff1673ffffffffffffffffffffffffffffffffffffffff168152602001908152602001600020846040516116c191906142ef565b908152602001604051809103902081905550505050565b60606003805480602002602001604051908101604052809291908181526020016000905b828210156117a857838290600052602060002001805461171b90614160565b80601f016020809104026020016040519081016040528092919081815260200182805461174790614160565b80156117945780601f1061176957610100808354040283529160200191611794565b820191906000526020600020905b81548152906001019060200180831161177757829003601f168201915b5050505050815260200190600101906116fc565b50505050905090565b60006002826040516117c391906142ef565b90815260200160405180910390206040518060800160405290816000820180546117ec90614160565b80601f016020809104026020016040519081016040528092919081815260200182805461181890614160565b80156118655780601f1061183a57610100808354040283529160200191611865565b820191906000526020600020905b81548152906001019060200180831161184857829003601f168201915b505050505081526020016001820160009054906101000a900473ffffffffffffffffffffffffffffffffffffffff1673ffffffffffffffffffffffffffffffffffffffff1673ffffffffffffffffffffffffffffffffffffffff1681526020016002820180546118d490614160565b80601f016020809104026020016040519081016040528092919081815260200182805461190090614160565b801561194d5780601f106119225761010080835404028352916020019161194d565b820191906000526020600020905b81548152906001019060200180831161193057829003601f168201915b505050505081526020016003820160009054906101000a900460ff16151515158152505090506001151581606001511515146119be576040517f08c379a00000000000000000000000000000000000000000000000000000000081526004016119b5906143be565b60405180910390fd5b60005b600380549050811015611b61578280519060200120600382815481106119ea576119e9614102565b5b90600052602060002001604051611a0191906145af565b604051809103902003611b4e5760008190505b6001600380549050611a26919061444a565b811015611b1c576003600182611a3c91906145c6565b81548110611a4d57611a4c614102565b5b9060005260206000200160038281548110611a6b57611a6a614102565b5b90600052602060002001908054611a8190614160565b611a8c92919061317b565b50600284604051611a9d91906142ef565b908152602001604051809103902060008082016000611abc9190613208565b6001820160006101000a81549073ffffffffffffffffffffffffffffffffffffffff0219169055600282016000611af39190613208565b6003820160006101000a81549060ff021916905550508080611b1490614276565b915050611a14565b506003805480611b2f57611b2e61461c565b5b600190038181906000526020600020016000611b4b9190613208565b90555b8080611b5990614276565b9150506119c1565b505050565b611b6e613070565b6000600160003373ffffffffffffffffffffffffffffffffffffffff1673ffffffffffffffffffffffffffffffffffffffff16815260200190815260200160002083604051611bbd91906142ef565b908152602001604051809103902054905060008111611c11576040517f08c379a0000000000000000000000000000000000000000000000000000000008152600401611c089061442a565b60405180910390fd5b6000600182611c20919061444a565b81548110611c3157611c30614102565b5b90600052602060002090600502016040518060a0016040529081600082018054611c5a90614160565b80601f0160208091040260200160405190810160405280929190818152602001828054611c8690614160565b8015611cd35780601f10611ca857610100808354040283529160200191611cd3565b820191906000526020600020905b815481529060010190602001808311611cb657829003601f168201915b5050505050815260200160018201805480602002602001604051908101604052809291908181526020016000905b82821015611df457838290600052602060002001805480602002602001604051908101604052809291908181526020016000905b82821015611de1578382906000526020600020018054611d5490614160565b80601f0160208091040260200160405190810160405280929190818152602001828054611d8090614160565b8015611dcd5780601f10611da257610100808354040283529160200191611dcd565b820191906000526020600020905b815481529060010190602001808311611db057829003601f168201915b505050505081526020019060010190611d35565b5050505081526020019060010190611d01565b50505050815260200160028201805480602002602001604051908101604052809291908181526020016000905b82821015611ecd578382906000526020600020018054611e4090614160565b80601f0160208091040260200160405190810160405280929190818152602001828054611e6c90614160565b8015611eb95780601f10611e8e57610100808354040283529160200191611eb9565b820191906000526020600020905b815481529060010190602001808311611e9c57829003601f168201915b505050505081526020019060010190611e21565b5050505081526020016003820160009054906101000a900473ffffffffffffffffffffffffffffffffffffffff1673ffffffffffffffffffffffffffffffffffffffff1673ffffffffffffffffffffffffffffffffffffffff16815260200160048201805480602002602001604051908101604052809291908181526020016000905b82821015611ffc578382906000526020600020018054611f6f90614160565b80601f0160208091040260200160405190810160405280929190818152602001828054611f9b90614160565b8015611fe85780601f10611fbd57610100808354040283529160200191611fe8565b820191906000526020600020905b815481529060010190602001808311611fcb57829003601f168201915b505050505081526020019060010190611f50565b5050505081525050915050919050565b6000600160003373ffffffffffffffffffffffffffffffffffffffff1673ffffffffffffffffffffffffffffffffffffffff1681526020019081526020016000208360405161205b91906142ef565b9081526020016040518091039020549050600081116120af576040517f08c379a00000000000000000000000000000000000000000000000000000000081526004016120a69061442a565b60405180910390fd5b3373ffffffffffffffffffffffffffffffffffffffff1660006001836120d5919061444a565b815481106120e6576120e5614102565b5b906000526020600020906005020160030160009054906101000a900473ffffffffffffffffffffffffffffffffffffffff1673ffffffffffffffffffffffffffffffffffffffff161461216e576040517f08c379a000000000000000000000000000000000000000000000000000000000815260040161216590614697565b60405180910390fd5b600160003373ffffffffffffffffffffffffffffffffffffffff1673ffffffffffffffffffffffffffffffffffffffff168152602001908152602001600020836040516121bb91906142ef565b908152602001604051809103902054600160008473ffffffffffffffffffffffffffffffffffffffff1673ffffffffffffffffffffffffffffffffffffffff1681526020019081526020016000208460405161221791906142ef565b908152602001604051809103902081905550505050565b6000600160003373ffffffffffffffffffffffffffffffffffffffff1673ffffffffffffffffffffffffffffffffffffffff1681526020019081526020016000208260405161227d91906142ef565b9081526020016040518091039020549050600081116122d1576040517f08c379a00000000000000000000000000000000000000000000000000000000081526004016122c89061442a565b60405180910390fd5b3373ffffffffffffffffffffffffffffffffffffffff1660006001836122f7919061444a565b8154811061230857612307614102565b5b906000526020600020906005020160030160009054906101000a900473ffffffffffffffffffffffffffffffffffffffff1673ffffffffffffffffffffffffffffffffffffffff1614612390576040517f08c379a000000000000000000000000000000000000000000000000000000000815260040161238790614703565b60405180910390fd5b6000600160003373ffffffffffffffffffffffffffffffffffffffff1673ffffffffffffffffffffffffffffffffffffffff168152602001908152602001600020836040516123df91906142ef565b908152602001604051809103902081905550600067ffffffffffffffff81111561240c5761240b61385b565b5b60405190808252806020026020018201604052801561244557816020015b612432613248565b81526020019060019003908161242a5790505b506000600183612455919061444a565b8154811061246657612465614102565b5b9060005260206000209060050201600101908051906020019061248a92919061326f565b50600067ffffffffffffffff8111156124a6576124a561385b565b5b6040519080825280602002602001820160405280156124d957816020015b60608152602001906001900390816124c45790505b5060006001836124e9919061444a565b815481106124fa576124f9614102565b5b9060005260206000209060050201600201908051906020019061251e9291906132ca565b50600067ffffffffffffffff81111561253a5761253961385b565b5b6040519080825280601f01601f19166020018201604052801561256c5781602001600182028036833780820191505090505b50600060018361257c919061444a565b8154811061258d5761258c614102565b5b906000526020600020906005020160000190805190602001906125b19291906130f5565b505050565b600081815481106125c657600080fd5b90600052602060002090600502016000915090508060000180546125e990614160565b80601f016020809104026020016040519081016040528092919081815260200182805461261590614160565b80156126625780601f1061263757610100808354040283529160200191612662565b820191906000526020600020905b81548152906001019060200180831161264557829003601f168201915b5050505050908060030160009054906101000a900473ffffffffffffffffffffffffffffffffffffffff16905082565b60008490506000839050600083905060038651146126e5576040517f08c379a00000000000000000000000000000000000000000000000000000000081526004016126dc90614795565b60405180910390fd5b6000835111612729576040517f08c379a000000000000000000000000000000000000000000000000000000000815260040161272090614801565b60405180910390fd5b600082511161276d576040517f08c379a00000000000000000000000000000000000000000000000000000000081526004016127649061486d565b60405180910390fd5b60008151116127b1576040517f08c379a00000000000000000000000000000000000000000000000000000000081526004016127a8906148d9565b60405180910390fd5b6000600160003373ffffffffffffffffffffffffffffffffffffffff1673ffffffffffffffffffffffffffffffffffffffff1681526020019081526020016000208860405161280091906142ef565b90815260200160405180910390205490506000811115612960576000600182612829919061444a565b8154811061283a57612839614102565b5b9060005260206000209060050201600101879080600181540180825580915050600190039060005260206000200160009091909190915090805190602001906128849291906132ca565b506000600182612894919061444a565b815481106128a5576128a4614102565b5b9060005260206000209060050201600201869080600181540180825580915050600190039060005260206000200160009091909190915090805190602001906128ef9291906130f5565b5060006001826128ff919061444a565b815481106129105761290f614102565b5b90600052602060002090600502016004018590806001815401808255809150506001900390600052602060002001600090919091909150908051906020019061295a9291906130f5565b50612c4d565b6000600167ffffffffffffffff81111561297d5761297c61385b565b5b6040519080825280602002602001820160405280156129b057816020015b606081526020019060019003908161299b5790505b5090506000600167ffffffffffffffff8111156129d0576129cf61385b565b5b604051908082528060200260200182016040528015612a0357816020015b60608152602001906001900390816129ee5790505b5090506000600167ffffffffffffffff811115612a2357612a2261385b565b5b604051908082528060200260200182016040528015612a5657816020015b6060815260200190600190039081612a415790505b5090508781600081518110612a6e57612a6d614102565b5b60200260200101819052508882600081518110612a8e57612a8d614102565b5b60200260200101819052508983600081518110612aae57612aad614102565b5b602002602001018190525060006040518060a001604052808d81526020018581526020018481526020013373ffffffffffffffffffffffffffffffffffffffff16815260200183815250905060008190806001815401808255809150506001900390600052602060002090600502016000909190919091506000820151816000019080519060200190612b429291906130f5565b506020820151816001019080519060200190612b5f92919061332a565b506040820151816002019080519060200190612b7c9291906132ca565b5060608201518160030160006101000a81548173ffffffffffffffffffffffffffffffffffffffff021916908373ffffffffffffffffffffffffffffffffffffffff1602179055506080820151816004019080519060200190612be09291906132ca565b505050600080549050600160003373ffffffffffffffffffffffffffffffffffffffff1673ffffffffffffffffffffffffffffffffffffffff1681526020019081526020016000208d604051612c3691906142ef565b908152602001604051809103902081905550505050505b5050505050505050565b60606000805480602002602001604051908101604052809291908181526020016000905b8282101561306757838290600052602060002090600502016040518060a0016040529081600082018054612cae90614160565b80601f0160208091040260200160405190810160405280929190818152602001828054612cda90614160565b8015612d275780601f10612cfc57610100808354040283529160200191612d27565b820191906000526020600020905b815481529060010190602001808311612d0a57829003601f168201915b5050505050815260200160018201805480602002602001604051908101604052809291908181526020016000905b82821015612e4857838290600052602060002001805480602002602001604051908101604052809291908181526020016000905b82821015612e35578382906000526020600020018054612da890614160565b80601f0160208091040260200160405190810160405280929190818152602001828054612dd490614160565b8015612e215780601f10612df657610100808354040283529160200191612e21565b820191906000526020600020905b815481529060010190602001808311612e0457829003601f168201915b505050505081526020019060010190612d89565b5050505081526020019060010190612d55565b50505050815260200160028201805480602002602001604051908101604052809291908181526020016000905b82821015612f21578382906000526020600020018054612e9490614160565b80601f0160208091040260200160405190810160405280929190818152602001828054612ec090614160565b8015612f0d5780601f10612ee257610100808354040283529160200191612f0d565b820191906000526020600020905b815481529060010190602001808311612ef057829003601f168201915b505050505081526020019060010190612e75565b5050505081526020016003820160009054906101000a900473ffffffffffffffffffffffffffffffffffffffff1673ffffffffffffffffffffffffffffffffffffffff1673ffffffffffffffffffffffffffffffffffffffff16815260200160048201805480602002602001604051908101604052809291908181526020016000905b82821015613050578382906000526020600020018054612fc390614160565b80601f0160208091040260200160405190810160405280929190818152602001828054612fef90614160565b801561303c5780601f106130115761010080835404028352916020019161303c565b820191906000526020600020905b81548152906001019060200180831161301f57829003601f168201915b505050505081526020019060010190612fa4565b505050508152505081526020019060010190612c7b565b50505050905090565b6040518060a00160405280606081526020016060815260200160608152602001600073ffffffffffffffffffffffffffffffffffffffff168152602001606081525090565b604051806080016040528060608152602001600073ffffffffffffffffffffffffffffffffffffffff168152602001606081526020016000151581525090565b82805461310190614160565b90600052602060002090601f016020900481019282613123576000855561316a565b82601f1061313c57805160ff191683800117855561316a565b8280016001018555821561316a579182015b8281111561316957825182559160200191906001019061314e565b5b509050613177919061338a565b5090565b82805461318790614160565b90600052602060002090601f0160209004810192826131a957600085556131f7565b82601f106131ba57805485556131f7565b828001600101855582156131f757600052602060002091601f016020900482015b828111156131f65782548255916001019190600101906131db565b5b509050613204919061338a565b5090565b50805461321490614160565b6000825580601f106132265750613245565b601f016020900490600052602060002090810190613244919061338a565b5b50565b60405180606001604052806003905b60608152602001906001900390816132575790505090565b8280548282559060005260206000209081019282156132b9579160200282015b828111156132b8578251829060036132a89291906133a7565b509160200191906001019061328f565b5b5090506132c69190613407565b5090565b828054828255906000526020600020908101928215613319579160200282015b828111156133185782518290805190602001906133089291906130f5565b50916020019190600101906132ea565b5b509050613326919061342b565b5090565b828054828255906000526020600020908101928215613379579160200282015b828111156133785782518290805190602001906133689291906132ca565b509160200191906001019061334a565b5b5090506133869190613407565b5090565b5b808211156133a357600081600090555060010161338b565b5090565b8280548282559060005260206000209081019282156133f6579160200282015b828111156133f55782518290805190602001906133e59291906130f5565b50916020019190600101906133c7565b5b509050613403919061342b565b5090565b5b80821115613427576000818161341e919061344f565b50600101613408565b5090565b5b8082111561344b57600081816134429190613208565b5060010161342c565b5090565b508054600082559060005260206000209081019061346d919061342b565b50565b600081519050919050565b600082825260208201905092915050565b6000819050602082019050919050565b600081519050919050565b600082825260208201905092915050565b60005b838110156134d65780820151818401526020810190506134bb565b838111156134e5576000848401525b50505050565b6000601f19601f8301169050919050565b60006135078261349c565b61351181856134a7565b93506135218185602086016134b8565b61352a816134eb565b840191505092915050565b600081519050919050565b600082825260208201905092915050565b6000819050602082019050919050565b600081519050919050565b600082825260208201905092915050565b6000819050602082019050919050565b600061359983836134fc565b905092915050565b6000602082019050919050565b60006135b982613561565b6135c3818561356c565b9350836020820285016135d58561357d565b8060005b8581101561361157848403895281516135f2858261358d565b94506135fd836135a1565b925060208a019950506001810190506135d9565b50829750879550505050505092915050565b600061362f83836135ae565b905092915050565b6000602082019050919050565b600061364f82613535565b6136598185613540565b93508360208202850161366b85613551565b8060005b858110156136a757848403895281516136888582613623565b945061369383613637565b925060208a0199505060018101905061366f565b50829750879550505050505092915050565b600073ffffffffffffffffffffffffffffffffffffffff82169050919050565b60006136e4826136b9565b9050919050565b6136f4816136d9565b82525050565b600060a083016000830151848203600086015261371782826134fc565b915050602083015184820360208601526137318282613644565b9150506040830151848203604086015261374b82826135ae565b915050606083015161376060608601826136eb565b506080830151848203608086015261377882826135ae565b9150508091505092915050565b600061379183836136fa565b905092915050565b6000602082019050919050565b60006137b182613470565b6137bb818561347b565b9350836020820285016137cd8561348c565b8060005b8581101561380957848403895281516137ea8582613785565b94506137f583613799565b925060208a019950506001810190506137d1565b50829750879550505050505092915050565b6000602082019050818103600083015261383581846137a6565b905092915050565b6000604051905090565b600080fd5b600080fd5b600080fd5b600080fd5b7f4e487b7100000000000000000000000000000000000000000000000000000000600052604160045260246000fd5b613893826134eb565b810181811067ffffffffffffffff821117156138b2576138b161385b565b5b80604052505050565b60006138c561383d565b90506138d1828261388a565b919050565b600067ffffffffffffffff8211156138f1576138f061385b565b5b6138fa826134eb565b9050602081019050919050565b82818337600083830152505050565b6000613929613924846138d6565b6138bb565b90508281526020810184848401111561394557613944613856565b5b613950848285613907565b509392505050565b600082601f83011261396d5761396c613851565b5b813561397d848260208601613916565b91505092915050565b61398f816136d9565b811461399a57600080fd5b50565b6000813590506139ac81613986565b92915050565b6000806000606084860312156139cb576139ca613847565b5b600084013567ffffffffffffffff8111156139e9576139e861384c565b5b6139f586828701613958565b9350506020613a068682870161399d565b925050604084013567ffffffffffffffff811115613a2757613a2661384c565b5b613a3386828701613958565b9150509250925092565b60008115159050919050565b613a5281613a3d565b82525050565b60006080830160008301518482036000860152613a7582826134fc565b9150506020830151613a8a60208601826136eb565b5060408301518482036040860152613aa282826134fc565b9150506060830151613ab76060860182613a49565b508091505092915050565b60006020820190508181036000830152613adc8184613a58565b905092915050565b600060208284031215613afa57613af9613847565b5b6000613b088482850161399d565b91505092915050565b600082825260208201905092915050565b6000613b2d82613561565b613b378185613b11565b935083602082028501613b498561357d565b8060005b85811015613b855784840389528151613b66858261358d565b9450613b71836135a1565b925060208a01995050600181019050613b4d565b50829750879550505050505092915050565b60006020820190508181036000830152613bb18184613b22565b905092915050565b600060208284031215613bcf57613bce613847565b5b600082013567ffffffffffffffff811115613bed57613bec61384c565b5b613bf984828501613958565b91505092915050565b600081519050919050565b600082825260208201905092915050565b6000819050602082019050919050565b60006080830160008301518482036000860152613c4b82826134fc565b9150506020830151613c6060208601826136eb565b5060408301518482036040860152613c7882826134fc565b9150506060830151613c8d6060860182613a49565b508091505092915050565b6000613ca48383613c2e565b905092915050565b6000602082019050919050565b6000613cc482613c02565b613cce8185613c0d565b935083602082028501613ce085613c1e565b8060005b85811015613d1c5784840389528151613cfd8582613c98565b9450613d0883613cac565b925060208a01995050600181019050613ce4565b50829750879550505050505092915050565b60006020820190508181036000830152613d488184613cb9565b905092915050565b60008060408385031215613d6757613d66613847565b5b600083013567ffffffffffffffff811115613d8557613d8461384c565b5b613d9185828601613958565b9250506020613da28582860161399d565b9150509250929050565b600060a0830160008301518482036000860152613dc982826134fc565b91505060208301518482036020860152613de38282613644565b91505060408301518482036040860152613dfd82826135ae565b9150506060830151613e1260608601826136eb565b5060808301518482036080860152613e2a82826135ae565b9150508091505092915050565b60006020820190508181036000830152613e518184613dac565b905092915050565b6000819050919050565b613e6c81613e59565b8114613e7757600080fd5b50565b600081359050613e8981613e63565b92915050565b600060208284031215613ea557613ea4613847565b5b6000613eb384828501613e7a565b91505092915050565b600082825260208201905092915050565b6000613ed88261349c565b613ee28185613ebc565b9350613ef28185602086016134b8565b613efb816134eb565b840191505092915050565b613f0f816136d9565b82525050565b60006040820190508181036000830152613f2f8185613ecd565b9050613f3e6020830184613f06565b9392505050565b600067ffffffffffffffff821115613f6057613f5f61385b565b5b602082029050602081019050919050565b600080fd5b6000613f89613f8484613f45565b6138bb565b90508083825260208201905060208402830185811115613fac57613fab613f71565b5b835b81811015613ff357803567ffffffffffffffff811115613fd157613fd0613851565b5b808601613fde8982613958565b85526020850194505050602081019050613fae565b5050509392505050565b600082601f83011261401257614011613851565b5b8135614022848260208601613f76565b91505092915050565b6000806000806080858703121561404557614044613847565b5b600085013567ffffffffffffffff8111156140635761406261384c565b5b61406f87828801613958565b945050602085013567ffffffffffffffff8111156140905761408f61384c565b5b61409c87828801613ffd565b935050604085013567ffffffffffffffff8111156140bd576140bc61384c565b5b6140c987828801613958565b925050606085013567ffffffffffffffff8111156140ea576140e961384c565b5b6140f687828801613958565b91505092959194509250565b7f4e487b7100000000000000000000000000000000000000000000000000000000600052603260045260246000fd5b7f4e487b7100000000000000000000000000000000000000000000000000000000600052602260045260246000fd5b6000600282049050600182168061417857607f821691505b60208210810361418b5761418a614131565b5b50919050565b600081905092915050565b60008190508160005260206000209050919050565b600081546141be81614160565b6141c88186614191565b945060018216600081146141e357600181146141f457614227565b60ff19831686528186019350614227565b6141fd8561419c565b60005b8381101561421f57815481890152600182019150602081019050614200565b838801955050505b50505092915050565b600061423c82846141b1565b915081905092915050565b7f4e487b7100000000000000000000000000000000000000000000000000000000600052601160045260246000fd5b600061428182613e59565b91507fffffffffffffffffffffffffffffffffffffffffffffffffffffffffffffffff82036142b3576142b2614247565b5b600182019050919050565b60006142c98261349c565b6142d38185614191565b93506142e38185602086016134b8565b80840191505092915050565b60006142fb82846142be565b915081905092915050565b7f4163636f756e7420616c72656164792065786973747300000000000000000000600082015250565b600061433c601683613ebc565b915061434782614306565b602082019050919050565b6000602082019050818103600083015261436b8161432f565b9050919050565b7f4163636f756e7420646f65736e20742065786973747300000000000000000000600082015250565b60006143a8601683613ebc565b91506143b382614372565b602082019050919050565b600060208201905081810360008301526143d78161439b565b9050919050565b7f46696c6520646f65736e27742065786973740000000000000000000000000000600082015250565b6000614414601283613ebc565b915061441f826143de565b602082019050919050565b6000602082019050818103600083015261444381614407565b9050919050565b600061445582613e59565b915061446083613e59565b92508282101561447357614472614247565b5b828203905092915050565b7f4f6e6c7920746865206f776e65722063616e207265766f6b652061636365737360008201527f20746f20612066696c6500000000000000000000000000000000000000000000602082015250565b60006144da602a83613ebc565b91506144e58261447e565b604082019050919050565b60006020820190508181036000830152614509816144cd565b9050919050565b600081905092915050565b60008190508160005260206000209050919050565b6000815461453d81614160565b6145478186614510565b945060018216600081146145625760018114614573576145a6565b60ff198316865281860193506145a6565b61457c8561451b565b60005b8381101561459e5781548189015260018201915060208101905061457f565b838801955050505b50505092915050565b60006145bb8284614530565b915081905092915050565b60006145d182613e59565b91506145dc83613e59565b9250827fffffffffffffffffffffffffffffffffffffffffffffffffffffffffffffffff0382111561461157614610614247565b5b828201905092915050565b7f4e487b7100000000000000000000000000000000000000000000000000000000600052603160045260246000fd5b7f4f6e6c7920746865206f776e65722063616e20736861726520612066696c6500600082015250565b6000614681601f83613ebc565b915061468c8261464b565b602082019050919050565b600060208201905081810360008301526146b081614674565b9050919050565b7f4f6e6c7920746865206f776e65722063616e2064656c65746520612066696c65600082015250565b60006146ed602083613ebc565b91506146f8826146b7565b602082019050919050565b6000602082019050818103600083015261471c816146e0565b9050919050565b7f49504653206861736865732073686f756c642062652070726f7669646564206660008201527f6f7220616c6c20746872656520706f736974696f6e7300000000000000000000602082015250565b600061477f603683613ebc565b915061478a82614723565b604082019050919050565b600060208201905081810360008301526147ae81614772565b9050919050565b7f46696c65206e616d652063616e6e6f74206265206f6d69747465640000000000600082015250565b60006147eb601b83613ebc565b91506147f6826147b5565b602082019050919050565b6000602082019050818103600083015261481a816147de565b9050919050565b7f46696c6520686173682063616e6e6f74206265206f6d69747465640000000000600082015250565b6000614857601b83613ebc565b915061486282614821565b602082019050919050565b600060208201905081810360008301526148868161484a565b9050919050565b7f46696c652074696d657374616d702063616e6e6f74206265206f6d6974746564600082015250565b60006148c3602083613ebc565b91506148ce8261488d565b602082019050919050565b600060208201905081810360008301526148f2816148b6565b905091905056fea2646970667358221220d218777cb2b2ffed24652bb12e2a2a8cc09dc0e7f8f30f6fcf09cd45fdf3883964736f6c634300080d0033",
  "immutableReferences": {},
  "source": "pragma solidity ^0.8.13;\n//import \"hardhat/console.sol\";\n// SPDX-License-Identifier: MIT\n\ncontract FileManagement {\n\n    struct File {\n        string name;\n        string[][] fileIpfsHashes; // Matrix to store three IPFS hashes for each version\n        string[] hashes;\n        address owner;\n        string[] timestamps;\n    }\n\n    struct Account{\n        string name;\n        address accountAddress;\n        string privateKey;\n        bool exists;\n    }\n    \n\n    File[] public files;\n    mapping(address => mapping(string => uint)) private ownerFileIndexes;\n    mapping(string => Account) private accounts;\n    string [] private accountNames;\n\n\n    function getFileNames(address account) public view returns (string[] memory) {\n         uint256 fileCount = files.length;\n\n        // Temporary array to store filtered file names\n        string[] memory ownerFiles = new string[](fileCount);\n        uint256 ownerFileCount = 0;\n\n        for (uint256 i = 0; i < fileCount; i++) {\n            // Check if the file belongs to the specified owner\n            if (ownerFileIndexes[account][files[i].name] > 0) {\n                ownerFiles[ownerFileCount] = files[i].name;\n                ownerFileCount++;\n            }\n        }\n\n        // Create a new array with the correct size to store only the owner's files\n        string[] memory result = new string[](ownerFileCount);\n        for (uint256 j = 0; j < ownerFileCount; j++) {\n            result[j] = ownerFiles[j];\n        }\n\n        return result;\n    }\n\n    function getFiles() public view returns (File[] memory) {\n         uint256 fileCount = files.length;\n\n        File[] memory ownerFiles = new File[](fileCount);\n        uint256 ownerFileCount = 0;\n\n        for (uint256 i = 0; i < fileCount; i++) {\n            if (ownerFileIndexes[msg.sender][files[i].name] > 0) {\n                ownerFiles[ownerFileCount] = files[i];\n                ownerFileCount++;\n            }\n        }\n\n        File[] memory result = new File[](ownerFileCount);\n        for (uint256 j = 0; j < ownerFileCount; j++) {\n            result[j] = ownerFiles[j];\n        }\n\n        return result;\n    }\n\n    function getAllFiles() public view returns (File[] memory) {\n        return files;\n    }\n\n    \n    function getFile(string memory name) public view returns (File memory) {\n        uint index = ownerFileIndexes[msg.sender][name];\n        require(index > 0, \"File doesn't exist\");\n        return (files[index - 1]);\n    }\n\n\n    function addFile(string memory name, string[] memory ipfsHashes, string memory hash, string memory timeStamp) public  {\n        bytes memory tempName = bytes(name);\n        bytes memory tempHash = bytes(hash);\n        bytes memory tempTimeStamp = bytes(timeStamp);\n        \n        require(ipfsHashes.length == 3, \"IPFS hashes should be provided for all three positions\");\n        require(tempName.length > 0, \"File name cannot be omitted\");\n        require(tempHash.length > 0, \"File hash cannot be omitted\");\n        require(tempTimeStamp.length > 0, \"File timestamp cannot be omitted\");\n        \n        uint index = ownerFileIndexes[msg.sender][name];\n        \n        if(index > 0){\n            files[index - 1].fileIpfsHashes.push(ipfsHashes);\n            files[index - 1].hashes.push(hash);\n            files[index - 1].timestamps.push(timeStamp);\n        }else{\n            string[][] memory ipfsMatrix = new string[][](1);\n            string[] memory hashes = new string[](1);\n            string[] memory timestamps = new string[](1);\n\n            timestamps[0] = timeStamp;\n            hashes[0] = hash;\n            ipfsMatrix[0] = ipfsHashes;\n            File memory file = File(name, ipfsMatrix, hashes, msg.sender, timestamps);\n            files.push(file);\n            ownerFileIndexes[msg.sender][name] = files.length;\n        }\n    }\n\n    function shareAccessToFile(string memory name, address account) public{\n        uint index = ownerFileIndexes[msg.sender][name];\n        require(index > 0, \"File doesn't exist\");\n        require(files[index - 1].owner == msg.sender, \"Only the owner can share a file\");\n        ownerFileIndexes[account][name] = ownerFileIndexes[msg.sender][name];\n    }\n\n    function revokeAccessToFile(string memory name, address account) public {\n        uint index = ownerFileIndexes[msg.sender][name];\n        require(index > 0, \"File doesn't exist\");\n        require(files[index - 1].owner == msg.sender, \"Only the owner can revoke access to a file\");\n        ownerFileIndexes[account][name] = 0;\n    }\n\n    function removeFile(string memory name) public {\n        uint index = ownerFileIndexes[msg.sender][name];\n        require(index > 0, \"File doesn't exist\");\n        require(files[index - 1].owner == msg.sender, \"Only the owner can delete a file\");\n        \n        ownerFileIndexes[msg.sender][name] = 0;\n        files[index - 1].fileIpfsHashes = new string[3][](0);  \n        files[index - 1].hashes = new string[](0);\n        files[index - 1].name = new string(0);            \n    }\n\n\n\n\n\n\n\n\n\n\n\n\n\n\n\n\n\n\n\n\n\n\n\n\n\n    function createAccount(string memory name, address accountAddress, string memory privateKey) public returns (Account memory newAccount){\n        Account memory existingAccount = accounts[name];\n        require(existingAccount.exists == false, \"Account already exists\");\n        // require(msg.sender == accounts[\"Admin\"].accountAddress, \"Only admins can modify accounts\");\n\n        Account memory account = Account(name, accountAddress, privateKey, true);\n        accounts[name] = account;\n        accountNames.push(name);\n\n        return account;\n    }\n\n    function deleteAccount(string memory name) public {\n        \n        // require(msg.sender == accounts[\"Admin\"].accountAddress, \"Only admins can modify accounts\");\n        // require(keccak256(bytes(name)) != keccak256(bytes(\"Admin\")), \"Can t delete Admin\");\n        Account memory existingAccount = accounts[name];\n        require(existingAccount.exists == true, \"Account doesn t exists\");\n\n        for (uint i = 0; i<accountNames.length; i++){\n             //console.log(\"from %s to %s\", accountNames[i], name);\n\n            if(keccak256(bytes(accountNames[i])) == keccak256(bytes(name))){\n                for(uint j = i; j<accountNames.length-1; j++){\n                    accountNames[j] = accountNames[j+1];\n                    //console.log(\"here %s, %s\", accountNames[j], accountNames[j+1]);\n                    delete accounts[name];\n                }\n                accountNames.pop();\n            }\n                \n        }\n\n\n    }\n\n    function getAccounts() public view returns (string[] memory accountsList) {\n        return (accountNames);\n    }\n\n    function getAccount(string memory name) public view returns (Account memory accountsList) {\n        Account memory existingAccount = accounts[name];\n        require(existingAccount.exists == true, \"Account doesn t exists\");\n        return (accounts[name]);\n    }\n\n    function getAccountsInfo() public view returns (Account[] memory accountsList) {\n        //require(msg.sender != accounts[\"Admin\"].accountAddress, \"Only admin can access it\");\n        uint accountsCount = accountNames.length;\n        Account[] memory tempAccounts = new Account[](accountsCount);\n        for(uint i=0; i<accountsCount; i++){\n            tempAccounts[i] = accounts[accountNames[i]];\n        }\n        return (tempAccounts);\n    }\n\n\n    \n\n}\n",
  "sourcePath": "/home/aurel/Disertatie/Truffle/contracts/FileManagement.sol",
  "compiler": {
    "name": "solc",
    "version": "0.8.13+commit.abaa5c0e.Emscripten.clang"
  },
  "schemaVersion": "3.4.16",
  "updatedAt": "2024-05-25T17:20:43.028Z",
  "networkType": "ethereum",
  "devdoc": {
    "kind": "dev",
    "methods": {},
    "version": 1
  },
  "userdoc": {
    "kind": "user",
    "methods": {},
    "version": 1
  }
}