{
  "contractName": "FileManagement",
  "abi": [
    {
      "inputs": [
        {
          "internalType": "uint256",
          "name": "",
          "type": "uint256"
        }
      ],
      "name": "files",
      "outputs": [
        {
          "internalType": "string",
          "name": "name",
          "type": "string"
        },
        {
          "internalType": "address",
          "name": "owner",
          "type": "address"
        }
      ],
      "stateMutability": "view",
      "type": "function",
      "constant": true
    },
    {
      "inputs": [
        {
          "internalType": "address",
          "name": "",
          "type": "address"
        },
        {
          "internalType": "string",
          "name": "",
          "type": "string"
        }
      ],
      "name": "ownerFileIndexes",
      "outputs": [
        {
          "internalType": "uint256",
          "name": "",
          "type": "uint256"
        }
      ],
      "stateMutability": "view",
      "type": "function",
      "constant": true
    },
    {
      "inputs": [],
      "name": "allFiles",
      "outputs": [
        {
          "components": [
            {
              "internalType": "string",
              "name": "name",
              "type": "string"
            },
            {
              "internalType": "string[3][]",
              "name": "fileIpfsHashes",
              "type": "string[3][]"
            },
            {
              "internalType": "string[]",
              "name": "hashes",
              "type": "string[]"
            },
            {
              "internalType": "address",
              "name": "owner",
              "type": "address"
            }
          ],
          "internalType": "struct FileManagement.File[]",
          "name": "",
          "type": "tuple[]"
        }
      ],
      "stateMutability": "view",
      "type": "function",
      "constant": true
    },
    {
      "inputs": [
        {
          "internalType": "address",
          "name": "fileOwner",
          "type": "address"
        }
      ],
      "name": "getFileNames",
      "outputs": [
        {
          "internalType": "string[]",
          "name": "",
          "type": "string[]"
        }
      ],
      "stateMutability": "view",
      "type": "function",
      "constant": true
    },
    {
      "inputs": [
        {
          "internalType": "string",
          "name": "name",
          "type": "string"
        },
        {
          "internalType": "string[3]",
          "name": "ipfsHashes",
          "type": "string[3]"
        },
        {
          "internalType": "string",
          "name": "hash",
          "type": "string"
        },
        {
          "internalType": "address",
          "name": "sender",
          "type": "address"
        }
      ],
      "name": "addFile",
      "outputs": [
        {
          "components": [
            {
              "internalType": "string",
              "name": "name",
              "type": "string"
            },
            {
              "internalType": "string[3][]",
              "name": "fileIpfsHashes",
              "type": "string[3][]"
            },
            {
              "internalType": "string[]",
              "name": "hashes",
              "type": "string[]"
            },
            {
              "internalType": "address",
              "name": "owner",
              "type": "address"
            }
          ],
          "internalType": "struct FileManagement.File[]",
          "name": "",
          "type": "tuple[]"
        }
      ],
      "stateMutability": "nonpayable",
      "type": "function"
    },
    {
      "inputs": [
        {
          "internalType": "string",
          "name": "name",
          "type": "string"
        },
        {
          "internalType": "address",
          "name": "sender",
          "type": "address"
        }
      ],
      "name": "getFile",
      "outputs": [
        {
          "internalType": "string",
          "name": "",
          "type": "string"
        },
        {
          "internalType": "string[3][]",
          "name": "",
          "type": "string[3][]"
        }
      ],
      "stateMutability": "view",
      "type": "function",
      "constant": true
    },
    {
      "inputs": [],
      "name": "testContract",
      "outputs": [
        {
          "internalType": "uint256",
          "name": "",
          "type": "uint256"
        }
      ],
      "stateMutability": "pure",
      "type": "function",
      "constant": true
    },
    {
      "inputs": [],
      "name": "testContract1",
      "outputs": [
        {
          "internalType": "uint256",
          "name": "",
          "type": "uint256"
        },
        {
          "internalType": "uint256",
          "name": "",
          "type": "uint256"
        }
      ],
      "stateMutability": "pure",
      "type": "function",
      "constant": true
    }
  ],
  "bytecode": "0x608060405234801561001057600080fd5b506125ff806100206000396000f3fe608060405234801561001057600080fd5b50600436106100885760003560e01c8063aca052631161005b578063aca052631461013b578063c36631b41461015a578063f4c714b414610178578063f7b17539146101a957610088565b80630641bc1c1461008d5780633a736ad0146100bd5780635cab7606146100ed5780639d2b5b381461011d575b600080fd5b6100a760048036038101906100a29190611ae8565b6101da565b6040516100b49190611f93565b60405180910390f35b6100d760048036038101906100d29190611fb5565b610c22565b6040516100e49190612068565b60405180910390f35b6101076004803603810190610102919061208a565b610ea8565b60405161011491906120ff565b60405180910390f35b610125610ee3565b6040516101329190611f93565b60405180910390f35b610143611215565b60405161015192919061211a565b60405180910390f35b610162611230565b60405161016f91906120ff565b60405180910390f35b610192600480360381019061018d919061216f565b61123e565b6040516101a09291906121f5565b60405180910390f35b6101c360048036038101906101be9190612225565b61131a565b6040516101d1929190612307565b60405180910390f35b60606003801461021f576040517f08c379a0000000000000000000000000000000000000000000000000000000008152600401610216906123b0565b60405180910390fd5b6000600160008473ffffffffffffffffffffffffffffffffffffffff1673ffffffffffffffffffffffffffffffffffffffff1681526020019081526020016000208660405161026e919061240c565b908152602001604051809103902054905060008111156106905760006001826102979190612452565b815481106102a8576102a7612486565b5b90600052602060002090600402016001018590806001815401808255809150506001900390600052602060002090600302016000909190919091509060036102f19291906115c6565b5060006001826103019190612452565b8154811061031257610311612486565b5b90600052602060002090600402016002018490806001815401808255809150506001900390600052602060002001600090919091909150908051906020019061035c929190611619565b506000805480602002602001604051908101604052809291908181526020016000905b8282101561068457838290600052602060002090600402016040518060800160405290816000820180546103b2906124e4565b80601f01602080910402602001604051908101604052809291908181526020018280546103de906124e4565b801561042b5780601f106104005761010080835404028352916020019161042b565b820191906000526020600020905b81548152906001019060200180831161040e57829003601f168201915b5050505050815260200160018201805480602002602001604051908101604052809291908181526020016000905b8282101561053e5783829060005260206000209060030201600380602002604051908101604052809291906000905b8282101561052b57838201805461049e906124e4565b80601f01602080910402602001604051908101604052809291908181526020018280546104ca906124e4565b80156105175780601f106104ec57610100808354040283529160200191610517565b820191906000526020600020905b8154815290600101906020018083116104fa57829003601f168201915b505050505081526020019060010190610488565b5050505081526020019060010190610459565b50505050815260200160028201805480602002602001604051908101604052809291908181526020016000905b8282101561061757838290600052602060002001805461058a906124e4565b80601f01602080910402602001604051908101604052809291908181526020018280546105b6906124e4565b80156106035780601f106105d857610100808354040283529160200191610603565b820191906000526020600020905b8154815290600101906020018083116105e657829003601f168201915b50505050508152602001906001019061056b565b5050505081526020016003820160009054906101000a900473ffffffffffffffffffffffffffffffffffffffff1673ffffffffffffffffffffffffffffffffffffffff1673ffffffffffffffffffffffffffffffffffffffff16815250508152602001906001019061037f565b50505050915050610c1a565b6000600167ffffffffffffffff8111156106ad576106ac61188b565b5b6040519080825280602002602001820160405280156106e657816020015b6106d361169f565b8152602001906001900390816106cb5790505b5090506000600167ffffffffffffffff8111156107065761070561188b565b5b60405190808252806020026020018201604052801561073957816020015b60608152602001906001900390816107245790505b509050858160008151811061075157610750612486565b5b6020026020010181905250868260008151811061077157610770612486565b5b6020026020010181905250600060405180608001604052808a81526020018481526020018381526020018773ffffffffffffffffffffffffffffffffffffffff168152509050600081908060018154018082558091505060019003906000526020600020906004020160009091909190915060008201518160000190805190602001906107ff929190611619565b50602082015181600101908051906020019061081c9291906116c6565b506040820151816002019080519060200190610839929190611724565b5060608201518160030160006101000a81548173ffffffffffffffffffffffffffffffffffffffff021916908373ffffffffffffffffffffffffffffffffffffffff1602179055505050600080549050600160008873ffffffffffffffffffffffffffffffffffffffff1673ffffffffffffffffffffffffffffffffffffffff1681526020019081526020016000208a6040516108d6919061240c565b9081526020016040518091039020819055506000805480602002602001604051908101604052809291908181526020016000905b82821015610c0f578382906000526020600020906004020160405180608001604052908160008201805461093d906124e4565b80601f0160208091040260200160405190810160405280929190818152602001828054610969906124e4565b80156109b65780601f1061098b576101008083540402835291602001916109b6565b820191906000526020600020905b81548152906001019060200180831161099957829003601f168201915b5050505050815260200160018201805480602002602001604051908101604052809291908181526020016000905b82821015610ac95783829060005260206000209060030201600380602002604051908101604052809291906000905b82821015610ab6578382018054610a29906124e4565b80601f0160208091040260200160405190810160405280929190818152602001828054610a55906124e4565b8015610aa25780601f10610a7757610100808354040283529160200191610aa2565b820191906000526020600020905b815481529060010190602001808311610a8557829003601f168201915b505050505081526020019060010190610a13565b50505050815260200190600101906109e4565b50505050815260200160028201805480602002602001604051908101604052809291908181526020016000905b82821015610ba2578382906000526020600020018054610b15906124e4565b80601f0160208091040260200160405190810160405280929190818152602001828054610b41906124e4565b8015610b8e5780601f10610b6357610100808354040283529160200191610b8e565b820191906000526020600020905b815481529060010190602001808311610b7157829003601f168201915b505050505081526020019060010190610af6565b5050505081526020016003820160009054906101000a900473ffffffffffffffffffffffffffffffffffffffff1673ffffffffffffffffffffffffffffffffffffffff1673ffffffffffffffffffffffffffffffffffffffff16815250508152602001906001019061090a565b505050509450505050505b949350505050565b606060008080549050905060008167ffffffffffffffff811115610c4957610c4861188b565b5b604051908082528060200260200182016040528015610c7c57816020015b6060815260200190600190039081610c675790505b5090506000805b83811015610df1578573ffffffffffffffffffffffffffffffffffffffff1660008281548110610cb657610cb5612486565b5b906000526020600020906004020160030160009054906101000a900473ffffffffffffffffffffffffffffffffffffffff1673ffffffffffffffffffffffffffffffffffffffff1603610dde5760008181548110610d1757610d16612486565b5b90600052602060002090600402016000018054610d33906124e4565b80601f0160208091040260200160405190810160405280929190818152602001828054610d5f906124e4565b8015610dac5780601f10610d8157610100808354040283529160200191610dac565b820191906000526020600020905b815481529060010190602001808311610d8f57829003601f168201915b5050505050838381518110610dc457610dc3612486565b5b60200260200101819052508180610dda90612515565b9250505b8080610de990612515565b915050610c83565b5060008167ffffffffffffffff811115610e0e57610e0d61188b565b5b604051908082528060200260200182016040528015610e4157816020015b6060815260200190600190039081610e2c5790505b50905060005b82811015610e9b57838181518110610e6257610e61612486565b5b6020026020010151828281518110610e7d57610e7c612486565b5b60200260200101819052508080610e9390612515565b915050610e47565b5080945050505050919050565b600160205281600052604060002081805160208101820180518482526020830160208501208183528095505050505050600091509150505481565b60606000805480602002602001604051908101604052809291908181526020016000905b8282101561120c5783829060005260206000209060040201604051806080016040529081600082018054610f3a906124e4565b80601f0160208091040260200160405190810160405280929190818152602001828054610f66906124e4565b8015610fb35780601f10610f8857610100808354040283529160200191610fb3565b820191906000526020600020905b815481529060010190602001808311610f9657829003601f168201915b5050505050815260200160018201805480602002602001604051908101604052809291908181526020016000905b828210156110c65783829060005260206000209060030201600380602002604051908101604052809291906000905b828210156110b3578382018054611026906124e4565b80601f0160208091040260200160405190810160405280929190818152602001828054611052906124e4565b801561109f5780601f106110745761010080835404028352916020019161109f565b820191906000526020600020905b81548152906001019060200180831161108257829003601f168201915b505050505081526020019060010190611010565b5050505081526020019060010190610fe1565b50505050815260200160028201805480602002602001604051908101604052809291908181526020016000905b8282101561119f578382906000526020600020018054611112906124e4565b80601f016020809104026020016040519081016040528092919081815260200182805461113e906124e4565b801561118b5780601f106111605761010080835404028352916020019161118b565b820191906000526020600020905b81548152906001019060200180831161116e57829003601f168201915b5050505050815260200190600101906110f3565b5050505081526020016003820160009054906101000a900473ffffffffffffffffffffffffffffffffffffffff1673ffffffffffffffffffffffffffffffffffffffff1673ffffffffffffffffffffffffffffffffffffffff168152505081526020019060010190610f07565b50505050905090565b60008060006029905060006020905081819350935050509091565b600080600190508091505090565b6000818154811061124e57600080fd5b9060005260206000209060040201600091509050806000018054611271906124e4565b80601f016020809104026020016040519081016040528092919081815260200182805461129d906124e4565b80156112ea5780601f106112bf576101008083540402835291602001916112ea565b820191906000526020600020905b8154815290600101906020018083116112cd57829003601f168201915b5050505050908060030160009054906101000a900473ffffffffffffffffffffffffffffffffffffffff16905082565b6060806000600160008573ffffffffffffffffffffffffffffffffffffffff1673ffffffffffffffffffffffffffffffffffffffff1681526020019081526020016000208560405161136c919061240c565b9081526020016040518091039020549050600081116113c0576040517f08c379a00000000000000000000000000000000000000000000000000000000081526004016113b7906125a9565b60405180910390fd5b60006001826113cf9190612452565b815481106113e0576113df612486565b5b906000526020600020906004020160000160006001836114009190612452565b8154811061141157611410612486565b5b906000526020600020906004020160010181805461142e906124e4565b80601f016020809104026020016040519081016040528092919081815260200182805461145a906124e4565b80156114a75780601f1061147c576101008083540402835291602001916114a7565b820191906000526020600020905b81548152906001019060200180831161148a57829003601f168201915b5050505050915080805480602002602001604051908101604052809291908181526020016000905b828210156115b45783829060005260206000209060030201600380602002604051908101604052809291906000905b828210156115a1578382018054611514906124e4565b80601f0160208091040260200160405190810160405280929190818152602001828054611540906124e4565b801561158d5780601f106115625761010080835404028352916020019161158d565b820191906000526020600020905b81548152906001019060200180831161157057829003601f168201915b5050505050815260200190600101906114fe565b50505050815260200190600101906114cf565b50505050905092509250509250929050565b8260038101928215611608579160200282015b828111156116075782518290805190602001906115f7929190611619565b50916020019190600101906115d9565b5b5090506116159190611784565b5090565b828054611625906124e4565b90600052602060002090601f016020900481019282611647576000855561168e565b82601f1061166057805160ff191683800117855561168e565b8280016001018555821561168e579182015b8281111561168d578251825591602001919060010190611672565b5b50905061169b91906117a8565b5090565b60405180606001604052806003905b60608152602001906001900390816116ae5790505090565b828054828255906000526020600020906003028101928215611713579160200282015b82811115611712578251829060036117029291906115c6565b50916020019190600301906116e9565b5b50905061172091906117c5565b5090565b828054828255906000526020600020908101928215611773579160200282015b82811115611772578251829080519060200190611762929190611619565b5091602001919060010190611744565b5b5090506117809190611784565b5090565b5b808211156117a4576000818161179b91906117e9565b50600101611785565b5090565b5b808211156117c15760008160009055506001016117a9565b5090565b5b808211156117e557600081816117dc9190611829565b506003016117c6565b5090565b5080546117f5906124e4565b6000825580601f106118075750611826565b601f01602090049060005260206000209081019061182591906117a8565b5b50565b506000818161183891906117e9565b506001016000818161184a91906117e9565b50600101600061185a91906117e9565b565b6000604051905090565b600080fd5b600080fd5b600080fd5b600080fd5b6000601f19601f8301169050919050565b7f4e487b7100000000000000000000000000000000000000000000000000000000600052604160045260246000fd5b6118c38261187a565b810181811067ffffffffffffffff821117156118e2576118e161188b565b5b80604052505050565b60006118f561185c565b905061190182826118ba565b919050565b600067ffffffffffffffff8211156119215761192061188b565b5b61192a8261187a565b9050602081019050919050565b82818337600083830152505050565b600061195961195484611906565b6118eb565b90508281526020810184848401111561197557611974611875565b5b611980848285611937565b509392505050565b600082601f83011261199d5761199c611870565b5b81356119ad848260208601611946565b91505092915050565b600067ffffffffffffffff8211156119d1576119d061188b565b5b602082029050919050565b600080fd5b60006119f46119ef846119b6565b6118eb565b90508060208402830185811115611a0e57611a0d6119dc565b5b835b81811015611a5557803567ffffffffffffffff811115611a3357611a32611870565b5b808601611a408982611988565b85526020850194505050602081019050611a10565b5050509392505050565b600082601f830112611a7457611a73611870565b5b6003611a818482856119e1565b91505092915050565b600073ffffffffffffffffffffffffffffffffffffffff82169050919050565b6000611ab582611a8a565b9050919050565b611ac581611aaa565b8114611ad057600080fd5b50565b600081359050611ae281611abc565b92915050565b60008060008060808587031215611b0257611b01611866565b5b600085013567ffffffffffffffff811115611b2057611b1f61186b565b5b611b2c87828801611988565b945050602085013567ffffffffffffffff811115611b4d57611b4c61186b565b5b611b5987828801611a5f565b935050604085013567ffffffffffffffff811115611b7a57611b7961186b565b5b611b8687828801611988565b9250506060611b9787828801611ad3565b91505092959194509250565b600081519050919050565b600082825260208201905092915050565b6000819050602082019050919050565b600081519050919050565b600082825260208201905092915050565b60005b83811015611c09578082015181840152602081019050611bee565b83811115611c18576000848401525b50505050565b6000611c2982611bcf565b611c338185611bda565b9350611c43818560208601611beb565b611c4c8161187a565b840191505092915050565b600081519050919050565b600082825260208201905092915050565b6000819050602082019050919050565b600060039050919050565b600081905092915050565b6000819050919050565b6000611caf8383611c1e565b905092915050565b6000602082019050919050565b6000611ccf82611c83565b611cd98185611c8e565b935083602082028501611ceb85611c99565b8060005b85811015611d275784840389528151611d088582611ca3565b9450611d1383611cb7565b925060208a01995050600181019050611cef565b50829750879550505050505092915050565b6000611d458383611cc4565b905092915050565b6000602082019050919050565b6000611d6582611c57565b611d6f8185611c62565b935083602082028501611d8185611c73565b8060005b85811015611dbd5784840389528151611d9e8582611d39565b9450611da983611d4d565b925060208a01995050600181019050611d85565b50829750879550505050505092915050565b600081519050919050565b600082825260208201905092915050565b6000819050602082019050919050565b6000602082019050919050565b6000611e1382611dcf565b611e1d8185611dda565b935083602082028501611e2f85611deb565b8060005b85811015611e6b5784840389528151611e4c8582611ca3565b9450611e5783611dfb565b925060208a01995050600181019050611e33565b50829750879550505050505092915050565b611e8681611aaa565b82525050565b60006080830160008301518482036000860152611ea98282611c1e565b91505060208301518482036020860152611ec38282611d5a565b91505060408301518482036040860152611edd8282611e08565b9150506060830151611ef26060860182611e7d565b508091505092915050565b6000611f098383611e8c565b905092915050565b6000602082019050919050565b6000611f2982611ba3565b611f338185611bae565b935083602082028501611f4585611bbf565b8060005b85811015611f815784840389528151611f628582611efd565b9450611f6d83611f11565b925060208a01995050600181019050611f49565b50829750879550505050505092915050565b60006020820190508181036000830152611fad8184611f1e565b905092915050565b600060208284031215611fcb57611fca611866565b5b6000611fd984828501611ad3565b91505092915050565b600082825260208201905092915050565b6000611ffe82611dcf565b6120088185611fe2565b93508360208202850161201a85611deb565b8060005b8581101561205657848403895281516120378582611ca3565b945061204283611dfb565b925060208a0199505060018101905061201e565b50829750879550505050505092915050565b600060208201905081810360008301526120828184611ff3565b905092915050565b600080604083850312156120a1576120a0611866565b5b60006120af85828601611ad3565b925050602083013567ffffffffffffffff8111156120d0576120cf61186b565b5b6120dc85828601611988565b9150509250929050565b6000819050919050565b6120f9816120e6565b82525050565b600060208201905061211460008301846120f0565b92915050565b600060408201905061212f60008301856120f0565b61213c60208301846120f0565b9392505050565b61214c816120e6565b811461215757600080fd5b50565b60008135905061216981612143565b92915050565b60006020828403121561218557612184611866565b5b60006121938482850161215a565b91505092915050565b600082825260208201905092915050565b60006121b882611bcf565b6121c2818561219c565b93506121d2818560208601611beb565b6121db8161187a565b840191505092915050565b6121ef81611aaa565b82525050565b6000604082019050818103600083015261220f81856121ad565b905061221e60208301846121e6565b9392505050565b6000806040838503121561223c5761223b611866565b5b600083013567ffffffffffffffff81111561225a5761225961186b565b5b61226685828601611988565b925050602061227785828601611ad3565b9150509250929050565b600082825260208201905092915050565b600061229d82611c57565b6122a78185612281565b9350836020820285016122b985611c73565b8060005b858110156122f557848403895281516122d68582611d39565b94506122e183611d4d565b925060208a019950506001810190506122bd565b50829750879550505050505092915050565b6000604082019050818103600083015261232181856121ad565b905081810360208301526123358184612292565b90509392505050565b7f49504653206861736865732073686f756c642062652070726f7669646564206660008201527f6f7220616c6c20746872656520706f736974696f6e7300000000000000000000602082015250565b600061239a60368361219c565b91506123a58261233e565b604082019050919050565b600060208201905081810360008301526123c98161238d565b9050919050565b600081905092915050565b60006123e682611bcf565b6123f081856123d0565b9350612400818560208601611beb565b80840191505092915050565b600061241882846123db565b915081905092915050565b7f4e487b7100000000000000000000000000000000000000000000000000000000600052601160045260246000fd5b600061245d826120e6565b9150612468836120e6565b92508282101561247b5761247a612423565b5b828203905092915050565b7f4e487b7100000000000000000000000000000000000000000000000000000000600052603260045260246000fd5b7f4e487b7100000000000000000000000000000000000000000000000000000000600052602260045260246000fd5b600060028204905060018216806124fc57607f821691505b60208210810361250f5761250e6124b5565b5b50919050565b6000612520826120e6565b91507fffffffffffffffffffffffffffffffffffffffffffffffffffffffffffffffff820361255257612551612423565b5b600182019050919050565b7f46696c65206e6f7420666f756e64000000000000000000000000000000000000600082015250565b6000612593600e8361219c565b915061259e8261255d565b602082019050919050565b600060208201905081810360008301526125c281612586565b905091905056fea2646970667358221220b6c950cb3cffea72ba44a0e541c0c91c816d872f559d0463a2f98f289558cb3664736f6c634300080d0033",
  "immutableReferences": {},
  "source": "\n\npragma solidity ^0.8.13;\n// SPDX-License-Identifier: MIT\n\ncontract FileManagement {\n\n    struct File {\n        string name;\n        string[3][] fileIpfsHashes; // Matrix to store three IPFS hashes for each version\n        string[] hashes;\n        address owner;\n    }\n\n    File[] public files;\n    mapping(address => mapping(string => uint)) public ownerFileIndexes;\n\n    function allFiles() public view returns (File [] memory) {\n        return files;\n    }\n\n\n    function getFileNames(address fileOwner) public view returns (string[] memory) {\n         uint256 fileCount = files.length;\n\n        // Temporary array to store filtered file names\n        string[] memory ownerFiles = new string[](fileCount);\n        uint256 ownerFileCount = 0;\n\n        for (uint256 i = 0; i < fileCount; i++) {\n            // Check if the file belongs to the specified owner\n            if (files[i].owner == fileOwner) {\n                ownerFiles[ownerFileCount] = files[i].name;\n                ownerFileCount++;\n            }\n        }\n\n        // Create a new array with the correct size to store only the owner's files\n        string[] memory result = new string[](ownerFileCount);\n        for (uint256 j = 0; j < ownerFileCount; j++) {\n            result[j] = ownerFiles[j];\n        }\n\n        return result;\n    }\n\n    function addFile(string memory name, string[3] memory ipfsHashes, string memory hash, address sender) public returns (File [] memory) {\n        require(ipfsHashes.length == 3, \"IPFS hashes should be provided for all three positions\");\n\n        uint index = ownerFileIndexes[sender][name];\n\n        if(index > 0){\n            files[index - 1].fileIpfsHashes.push(ipfsHashes);\n            files[index - 1].hashes.push(hash);\n            return files;\n        }else{\n            string[3][] memory ipfsMatrix = new string[3][](1);\n            string[] memory hashes = new string[](1);\n\n            hashes[0] = hash;\n            ipfsMatrix[0] = ipfsHashes;\n            File memory file = File(name, ipfsMatrix, hashes, sender);\n            files.push(file);\n            ownerFileIndexes[sender][name] = files.length;\n\n            return files;\n        }\n    }\n\n    function getFile(string memory name, address sender) public view returns (string memory, string[3][] memory) {\n        uint index = ownerFileIndexes[sender][name];\n        require(index > 0, \"File not found\");\n        return (files[index - 1].name, files[index - 1].fileIpfsHashes);\n    }\n\n    function testContract() public pure returns (uint) {\n        uint x=1;\n        return x;\n    }\n\n    function testContract1() public pure returns (uint, uint) {\n        uint x=41;\n        uint y=32;\n        return (x, y);\n    }\n\n}\n",
  "sourcePath": "/home/aurel/Disertatie/Truffle/contracts/FileManagement.sol",
  "compiler": {
    "name": "solc",
    "version": "0.8.13+commit.abaa5c0e.Emscripten.clang"
  },
  "schemaVersion": "3.4.16",
  "updatedAt": "2024-01-15T08:57:51.345Z",
  "networkType": "ethereum",
  "devdoc": {
    "kind": "dev",
    "methods": {},
    "version": 1
  },
  "userdoc": {
    "kind": "user",
    "methods": {},
    "version": 1
  }
}