{
  "contractName": "FileManagement",
  "abi": [
    {
      "inputs": [],
      "stateMutability": "nonpayable",
      "type": "constructor"
    },
    {
      "inputs": [
        {
          "internalType": "uint256",
          "name": "",
          "type": "uint256"
        }
      ],
      "name": "files",
      "outputs": [
        {
          "internalType": "string",
          "name": "name",
          "type": "string"
        },
        {
          "internalType": "address",
          "name": "owner",
          "type": "address"
        }
      ],
      "stateMutability": "view",
      "type": "function",
      "constant": true
    },
    {
      "inputs": [],
      "name": "getFileNames",
      "outputs": [
        {
          "internalType": "string[]",
          "name": "",
          "type": "string[]"
        }
      ],
      "stateMutability": "view",
      "type": "function",
      "constant": true
    },
    {
      "inputs": [],
      "name": "getFiles",
      "outputs": [
        {
          "components": [
            {
              "internalType": "string",
              "name": "name",
              "type": "string"
            },
            {
              "internalType": "string[][]",
              "name": "fileIpfsHashes",
              "type": "string[][]"
            },
            {
              "internalType": "string[]",
              "name": "hashes",
              "type": "string[]"
            },
            {
              "internalType": "address",
              "name": "owner",
              "type": "address"
            },
            {
              "internalType": "string[]",
              "name": "timestamps",
              "type": "string[]"
            }
          ],
          "internalType": "struct FileManagement.File[]",
          "name": "",
          "type": "tuple[]"
        }
      ],
      "stateMutability": "view",
      "type": "function",
      "constant": true
    },
    {
      "inputs": [],
      "name": "getAllFiles",
      "outputs": [
        {
          "components": [
            {
              "internalType": "string",
              "name": "name",
              "type": "string"
            },
            {
              "internalType": "string[][]",
              "name": "fileIpfsHashes",
              "type": "string[][]"
            },
            {
              "internalType": "string[]",
              "name": "hashes",
              "type": "string[]"
            },
            {
              "internalType": "address",
              "name": "owner",
              "type": "address"
            },
            {
              "internalType": "string[]",
              "name": "timestamps",
              "type": "string[]"
            }
          ],
          "internalType": "struct FileManagement.File[]",
          "name": "",
          "type": "tuple[]"
        }
      ],
      "stateMutability": "view",
      "type": "function",
      "constant": true
    },
    {
      "inputs": [
        {
          "internalType": "string",
          "name": "name",
          "type": "string"
        }
      ],
      "name": "getFile",
      "outputs": [
        {
          "components": [
            {
              "internalType": "string",
              "name": "name",
              "type": "string"
            },
            {
              "internalType": "string[][]",
              "name": "fileIpfsHashes",
              "type": "string[][]"
            },
            {
              "internalType": "string[]",
              "name": "hashes",
              "type": "string[]"
            },
            {
              "internalType": "address",
              "name": "owner",
              "type": "address"
            },
            {
              "internalType": "string[]",
              "name": "timestamps",
              "type": "string[]"
            }
          ],
          "internalType": "struct FileManagement.File",
          "name": "",
          "type": "tuple"
        }
      ],
      "stateMutability": "view",
      "type": "function",
      "constant": true
    },
    {
      "inputs": [
        {
          "internalType": "string",
          "name": "name",
          "type": "string"
        },
        {
          "internalType": "string[]",
          "name": "ipfsHashes",
          "type": "string[]"
        },
        {
          "internalType": "string",
          "name": "hash",
          "type": "string"
        },
        {
          "internalType": "string",
          "name": "timeStamp",
          "type": "string"
        }
      ],
      "name": "addFile",
      "outputs": [],
      "stateMutability": "nonpayable",
      "type": "function"
    },
    {
      "inputs": [
        {
          "internalType": "string",
          "name": "name",
          "type": "string"
        },
        {
          "internalType": "address",
          "name": "account",
          "type": "address"
        }
      ],
      "name": "shareAccessToFile",
      "outputs": [],
      "stateMutability": "nonpayable",
      "type": "function"
    },
    {
      "inputs": [
        {
          "internalType": "string",
          "name": "name",
          "type": "string"
        },
        {
          "internalType": "address",
          "name": "account",
          "type": "address"
        }
      ],
      "name": "revokeAccessToFile",
      "outputs": [],
      "stateMutability": "nonpayable",
      "type": "function"
    },
    {
      "inputs": [
        {
          "internalType": "string",
          "name": "name",
          "type": "string"
        }
      ],
      "name": "removeFile",
      "outputs": [],
      "stateMutability": "nonpayable",
      "type": "function"
    },
    {
      "inputs": [
        {
          "internalType": "string",
          "name": "name",
          "type": "string"
        },
        {
          "internalType": "address",
          "name": "accountAddress",
          "type": "address"
        }
      ],
      "name": "createAccount",
      "outputs": [
        {
          "components": [
            {
              "internalType": "string",
              "name": "name",
              "type": "string"
            },
            {
              "internalType": "address",
              "name": "accountAddress",
              "type": "address"
            },
            {
              "internalType": "bool",
              "name": "exists",
              "type": "bool"
            }
          ],
          "internalType": "struct FileManagement.Account",
          "name": "newAccount",
          "type": "tuple"
        }
      ],
      "stateMutability": "nonpayable",
      "type": "function"
    },
    {
      "inputs": [
        {
          "internalType": "string",
          "name": "name",
          "type": "string"
        }
      ],
      "name": "deleteAccount",
      "outputs": [],
      "stateMutability": "nonpayable",
      "type": "function"
    },
    {
      "inputs": [],
      "name": "getAccounts",
      "outputs": [
        {
          "internalType": "string[]",
          "name": "accountsList",
          "type": "string[]"
        }
      ],
      "stateMutability": "view",
      "type": "function",
      "constant": true
    },
    {
      "inputs": [
        {
          "internalType": "string",
          "name": "name",
          "type": "string"
        }
      ],
      "name": "getAccount",
      "outputs": [
        {
          "components": [
            {
              "internalType": "string",
              "name": "name",
              "type": "string"
            },
            {
              "internalType": "address",
              "name": "accountAddress",
              "type": "address"
            },
            {
              "internalType": "bool",
              "name": "exists",
              "type": "bool"
            }
          ],
          "internalType": "struct FileManagement.Account",
          "name": "accountsList",
          "type": "tuple"
        }
      ],
      "stateMutability": "view",
      "type": "function",
      "constant": true
    },
    {
      "inputs": [],
      "name": "getAccountsInfo",
      "outputs": [
        {
          "components": [
            {
              "internalType": "string",
              "name": "name",
              "type": "string"
            },
            {
              "internalType": "address",
              "name": "accountAddress",
              "type": "address"
            },
            {
              "internalType": "bool",
              "name": "exists",
              "type": "bool"
            }
          ],
          "internalType": "struct FileManagement.Account[]",
          "name": "accountsList",
          "type": "tuple[]"
        }
      ],
      "stateMutability": "view",
      "type": "function",
      "constant": true
    }
  ],
  "bytecode": "0x60806040523480156200001157600080fd5b5060405180606001604052806040518060400160405280600581526020017f41646d696e000000000000000000000000000000000000000000000000000000815250815260200173568f2d6eb23cbf65d56cc004f9cdb26aefbcf24473ffffffffffffffffffffffffffffffffffffffff1681526020016001151581525060026040516200009f90620002b7565b90815260200160405180910390206000820151816000019080519060200190620000cb929190620001ac565b5060208201518160010160006101000a81548173ffffffffffffffffffffffffffffffffffffffff021916908373ffffffffffffffffffffffffffffffffffffffff16021790555060408201518160010160146101000a81548160ff021916908315150217905550905050600380600181540180825580915050600190039060005260206000200160006040518060400160405280600581526020017f41646d696e00000000000000000000000000000000000000000000000000000081525090919091509080519060200190620001a5929190620001ac565b5062000332565b828054620001ba90620002fd565b90600052602060002090601f016020900481019282620001de57600085556200022a565b82601f10620001f957805160ff19168380011785556200022a565b828001600101855582156200022a579182015b82811115620002295782518255916020019190600101906200020c565b5b5090506200023991906200023d565b5090565b5b80821115620002585760008160009055506001016200023e565b5090565b600081905092915050565b7f41646d696e000000000000000000000000000000000000000000000000000000600082015250565b60006200029f6005836200025c565b9150620002ac8262000267565b600582019050919050565b6000620002c48262000290565b9150819050919050565b7f4e487b7100000000000000000000000000000000000000000000000000000000600052602260045260246000fd5b600060028204905060018216806200031657607f821691505b6020821081036200032c576200032b620002ce565b5b50919050565b61470280620003426000396000f3fe608060405234801561001057600080fd5b50600436106100ea5760003560e01c8063d5e363f91161008c578063f1afe04d11610066578063f1afe04d1461024b578063f4c714b414610267578063fd6f62a314610298578063ff24b5d5146102b4576100ea565b8063d5e363f9146101e3578063e0876aa8146101ff578063ea4518e51461022f576100ea565b806373b1e6d8116100c857806373b1e6d81461015b5780637c3e165e1461018b5780638a48ac03146101a7578063bfcd5289146101c5576100ea565b80632da96d73146100ef5780634518f6b31461010d5780634534c6ff1461013d575b600080fd5b6100f76102d2565b604051610104919061350f565b60405180910390f35b6101276004803603810190610122919061367a565b6108ab565b604051610134919061372e565b60405180910390f35b610145610b62565b6040516101529190613862565b60405180910390f35b610175600480360381019061017091906138b0565b610e01565b604051610182919061372e565b60405180910390f35b6101a560048036038101906101a091906138b0565b611156565b005b6101af61131e565b6040516101bc9190613992565b60405180910390f35b6101cd6113f7565b6040516101da9190613992565b60405180910390f35b6101fd60048036038101906101f8919061367a565b61168b565b005b6102196004803603810190610214919061367a565b611a4b565b6040516102269190613a3f565b60405180910390f35b610249600480360381019061024491906138b0565b611ef1565b005b6102656004803603810190610260919061367a565b612113565b005b610281600480360381019061027c9190613a97565b612372565b60405161028f929190613b1d565b60405180910390f35b6102b260048036038101906102ad9190613c33565b61244e565b005b6102bc612a13565b6040516102c9919061350f565b60405180910390f35b606060008080549050905060008167ffffffffffffffff8111156102f9576102f861354f565b5b60405190808252806020026020018201604052801561033257816020015b61031f612e2c565b8152602001906001900390816103175790505b5090506000805b838110156107f0576000600160003373ffffffffffffffffffffffffffffffffffffffff1673ffffffffffffffffffffffffffffffffffffffff1681526020019081526020016000206000838154811061039657610395613d0a565b5b90600052602060002090600502016000016040516103b49190613e38565b90815260200160405180910390205411156107dd57600081815481106103dd576103dc613d0a565b5b90600052602060002090600502016040518060a001604052908160008201805461040690613d68565b80601f016020809104026020016040519081016040528092919081815260200182805461043290613d68565b801561047f5780601f106104545761010080835404028352916020019161047f565b820191906000526020600020905b81548152906001019060200180831161046257829003601f168201915b5050505050815260200160018201805480602002602001604051908101604052809291908181526020016000905b828210156105a057838290600052602060002001805480602002602001604051908101604052809291908181526020016000905b8282101561058d57838290600052602060002001805461050090613d68565b80601f016020809104026020016040519081016040528092919081815260200182805461052c90613d68565b80156105795780601f1061054e57610100808354040283529160200191610579565b820191906000526020600020905b81548152906001019060200180831161055c57829003601f168201915b5050505050815260200190600101906104e1565b50505050815260200190600101906104ad565b50505050815260200160028201805480602002602001604051908101604052809291908181526020016000905b828210156106795783829060005260206000200180546105ec90613d68565b80601f016020809104026020016040519081016040528092919081815260200182805461061890613d68565b80156106655780601f1061063a57610100808354040283529160200191610665565b820191906000526020600020905b81548152906001019060200180831161064857829003601f168201915b5050505050815260200190600101906105cd565b5050505081526020016003820160009054906101000a900473ffffffffffffffffffffffffffffffffffffffff1673ffffffffffffffffffffffffffffffffffffffff1673ffffffffffffffffffffffffffffffffffffffff16815260200160048201805480602002602001604051908101604052809291908181526020016000905b828210156107a857838290600052602060002001805461071b90613d68565b80601f016020809104026020016040519081016040528092919081815260200182805461074790613d68565b80156107945780601f1061076957610100808354040283529160200191610794565b820191906000526020600020905b81548152906001019060200180831161077757829003601f168201915b5050505050815260200190600101906106fc565b50505050815250508383815181106107c3576107c2613d0a565b5b602002602001018190525081806107d990613e7e565b9250505b80806107e890613e7e565b915050610339565b5060008167ffffffffffffffff81111561080d5761080c61354f565b5b60405190808252806020026020018201604052801561084657816020015b610833612e2c565b81526020019060019003908161082b5790505b50905060005b828110156108a05783818151811061086757610866613d0a565b5b602002602001015182828151811061088257610881613d0a565b5b6020026020010181905250808061089890613e7e565b91505061084c565b508094505050505090565b6108b3612e71565b60006002836040516108c59190613ef7565b90815260200160405180910390206040518060600160405290816000820180546108ee90613d68565b80601f016020809104026020016040519081016040528092919081815260200182805461091a90613d68565b80156109675780601f1061093c57610100808354040283529160200191610967565b820191906000526020600020905b81548152906001019060200180831161094a57829003601f168201915b505050505081526020016001820160009054906101000a900473ffffffffffffffffffffffffffffffffffffffff1673ffffffffffffffffffffffffffffffffffffffff1673ffffffffffffffffffffffffffffffffffffffff1681526020016001820160149054906101000a900460ff1615151515815250509050600115158160400151151514610a2e576040517f08c379a0000000000000000000000000000000000000000000000000000000008152600401610a2590613f5a565b60405180910390fd5b600283604051610a3e9190613ef7565b9081526020016040518091039020604051806060016040529081600082018054610a6790613d68565b80601f0160208091040260200160405190810160405280929190818152602001828054610a9390613d68565b8015610ae05780601f10610ab557610100808354040283529160200191610ae0565b820191906000526020600020905b815481529060010190602001808311610ac357829003601f168201915b505050505081526020016001820160009054906101000a900473ffffffffffffffffffffffffffffffffffffffff1673ffffffffffffffffffffffffffffffffffffffff1673ffffffffffffffffffffffffffffffffffffffff1681526020016001820160149054906101000a900460ff161515151581525050915050919050565b60606002604051610b7290613fc6565b908152602001604051809103902060010160009054906101000a900473ffffffffffffffffffffffffffffffffffffffff1673ffffffffffffffffffffffffffffffffffffffff163373ffffffffffffffffffffffffffffffffffffffff1603610c11576040517f08c379a0000000000000000000000000000000000000000000000000000000008152600401610c0890614027565b60405180910390fd5b6000600380549050905060008167ffffffffffffffff811115610c3757610c3661354f565b5b604051908082528060200260200182016040528015610c7057816020015b610c5d612e71565b815260200190600190039081610c555790505b50905060005b82811015610df857600260038281548110610c9457610c93613d0a565b5b90600052602060002001604051610cab9190613e38565b9081526020016040518091039020604051806060016040529081600082018054610cd490613d68565b80601f0160208091040260200160405190810160405280929190818152602001828054610d0090613d68565b8015610d4d5780601f10610d2257610100808354040283529160200191610d4d565b820191906000526020600020905b815481529060010190602001808311610d3057829003601f168201915b505050505081526020016001820160009054906101000a900473ffffffffffffffffffffffffffffffffffffffff1673ffffffffffffffffffffffffffffffffffffffff1673ffffffffffffffffffffffffffffffffffffffff1681526020016001820160149054906101000a900460ff161515151581525050828281518110610dda57610dd9613d0a565b5b60200260200101819052508080610df090613e7e565b915050610c76565b50809250505090565b610e09612e71565b6000600284604051610e1b9190613ef7565b9081526020016040518091039020604051806060016040529081600082018054610e4490613d68565b80601f0160208091040260200160405190810160405280929190818152602001828054610e7090613d68565b8015610ebd5780601f10610e9257610100808354040283529160200191610ebd565b820191906000526020600020905b815481529060010190602001808311610ea057829003601f168201915b505050505081526020016001820160009054906101000a900473ffffffffffffffffffffffffffffffffffffffff1673ffffffffffffffffffffffffffffffffffffffff1673ffffffffffffffffffffffffffffffffffffffff1681526020016001820160149054906101000a900460ff1615151515815250509050600015158160400151151514610f84576040517f08c379a0000000000000000000000000000000000000000000000000000000008152600401610f7b90614093565b60405180910390fd5b6002604051610f9290613fc6565b908152602001604051809103902060010160009054906101000a900473ffffffffffffffffffffffffffffffffffffffff1673ffffffffffffffffffffffffffffffffffffffff163373ffffffffffffffffffffffffffffffffffffffff1614611031576040517f08c379a0000000000000000000000000000000000000000000000000000000008152600401611028906140ff565b60405180910390fd5b600060405180606001604052808681526020018573ffffffffffffffffffffffffffffffffffffffff1681526020016001151581525090508060028660405161107a9190613ef7565b908152602001604051809103902060008201518160000190805190602001906110a4929190612eaa565b5060208201518160010160006101000a81548173ffffffffffffffffffffffffffffffffffffffff021916908373ffffffffffffffffffffffffffffffffffffffff16021790555060408201518160010160146101000a81548160ff02191690831515021790555090505060038590806001815401808255809150506001900390600052602060002001600090919091909150908051906020019061114a929190612eaa565b50809250505092915050565b6000600160003373ffffffffffffffffffffffffffffffffffffffff1673ffffffffffffffffffffffffffffffffffffffff168152602001908152602001600020836040516111a59190613ef7565b9081526020016040518091039020549050600081116111f9576040517f08c379a00000000000000000000000000000000000000000000000000000000081526004016111f09061416b565b60405180910390fd5b3373ffffffffffffffffffffffffffffffffffffffff16600060018361121f919061418b565b815481106112305761122f613d0a565b5b906000526020600020906005020160030160009054906101000a900473ffffffffffffffffffffffffffffffffffffffff1673ffffffffffffffffffffffffffffffffffffffff16146112b8576040517f08c379a00000000000000000000000000000000000000000000000000000000081526004016112af90614231565b60405180910390fd5b6000600160008473ffffffffffffffffffffffffffffffffffffffff1673ffffffffffffffffffffffffffffffffffffffff168152602001908152602001600020846040516113079190613ef7565b908152602001604051809103902081905550505050565b60606003805480602002602001604051908101604052809291908181526020016000905b828210156113ee57838290600052602060002001805461136190613d68565b80601f016020809104026020016040519081016040528092919081815260200182805461138d90613d68565b80156113da5780601f106113af576101008083540402835291602001916113da565b820191906000526020600020905b8154815290600101906020018083116113bd57829003601f168201915b505050505081526020019060010190611342565b50505050905090565b606060008080549050905060008167ffffffffffffffff81111561141e5761141d61354f565b5b60405190808252806020026020018201604052801561145157816020015b606081526020019060019003908161143c5790505b5090506000805b838110156115d6576000600160003373ffffffffffffffffffffffffffffffffffffffff1673ffffffffffffffffffffffffffffffffffffffff168152602001908152602001600020600083815481106114b5576114b4613d0a565b5b90600052602060002090600502016000016040516114d39190613e38565b90815260200160405180910390205411156115c357600081815481106114fc576114fb613d0a565b5b9060005260206000209060050201600001805461151890613d68565b80601f016020809104026020016040519081016040528092919081815260200182805461154490613d68565b80156115915780601f1061156657610100808354040283529160200191611591565b820191906000526020600020905b81548152906001019060200180831161157457829003601f168201915b50505050508383815181106115a9576115a8613d0a565b5b602002602001018190525081806115bf90613e7e565b9250505b80806115ce90613e7e565b915050611458565b5060008167ffffffffffffffff8111156115f3576115f261354f565b5b60405190808252806020026020018201604052801561162657816020015b60608152602001906001900390816116115790505b50905060005b828110156116805783818151811061164757611646613d0a565b5b602002602001015182828151811061166257611661613d0a565b5b6020026020010181905250808061167890613e7e565b91505061162c565b508094505050505090565b600260405161169990613fc6565b908152602001604051809103902060010160009054906101000a900473ffffffffffffffffffffffffffffffffffffffff1673ffffffffffffffffffffffffffffffffffffffff163373ffffffffffffffffffffffffffffffffffffffff1614611738576040517f08c379a000000000000000000000000000000000000000000000000000000000815260040161172f906140ff565b60405180910390fd5b600060028260405161174a9190613ef7565b908152602001604051809103902060405180606001604052908160008201805461177390613d68565b80601f016020809104026020016040519081016040528092919081815260200182805461179f90613d68565b80156117ec5780601f106117c1576101008083540402835291602001916117ec565b820191906000526020600020905b8154815290600101906020018083116117cf57829003601f168201915b505050505081526020016001820160009054906101000a900473ffffffffffffffffffffffffffffffffffffffff1673ffffffffffffffffffffffffffffffffffffffff1673ffffffffffffffffffffffffffffffffffffffff1681526020016001820160149054906101000a900460ff16151515158152505090506001151581604001511515146118b3576040517f08c379a00000000000000000000000000000000000000000000000000000000081526004016118aa90613f5a565b60405180910390fd5b60005b600380549050811015611a46578280519060200120600382815481106118df576118de613d0a565b5b906000526020600020016040516118f691906142f0565b604051809103902003611a335760008190505b600160038054905061191b919061418b565b8110156119955760036001826119319190614307565b8154811061194257611941613d0a565b5b90600052602060002001600382815481106119605761195f613d0a565b5b9060005260206000200190805461197690613d68565b611981929190612f30565b50808061198d90613e7e565b915050611909565b506002836040516119a69190613ef7565b9081526020016040518091039020600080820160006119c59190612fbd565b6001820160006101000a81549073ffffffffffffffffffffffffffffffffffffffff02191690556001820160146101000a81549060ff021916905550506003805480611a1457611a1361435d565b5b600190038181906000526020600020016000611a309190612fbd565b90555b8080611a3e90613e7e565b9150506118b6565b505050565b611a53612e2c565b6000600160003373ffffffffffffffffffffffffffffffffffffffff1673ffffffffffffffffffffffffffffffffffffffff16815260200190815260200160002083604051611aa29190613ef7565b908152602001604051809103902054905060008111611af6576040517f08c379a0000000000000000000000000000000000000000000000000000000008152600401611aed9061416b565b60405180910390fd5b6000600182611b05919061418b565b81548110611b1657611b15613d0a565b5b90600052602060002090600502016040518060a0016040529081600082018054611b3f90613d68565b80601f0160208091040260200160405190810160405280929190818152602001828054611b6b90613d68565b8015611bb85780601f10611b8d57610100808354040283529160200191611bb8565b820191906000526020600020905b815481529060010190602001808311611b9b57829003601f168201915b5050505050815260200160018201805480602002602001604051908101604052809291908181526020016000905b82821015611cd957838290600052602060002001805480602002602001604051908101604052809291908181526020016000905b82821015611cc6578382906000526020600020018054611c3990613d68565b80601f0160208091040260200160405190810160405280929190818152602001828054611c6590613d68565b8015611cb25780601f10611c8757610100808354040283529160200191611cb2565b820191906000526020600020905b815481529060010190602001808311611c9557829003601f168201915b505050505081526020019060010190611c1a565b5050505081526020019060010190611be6565b50505050815260200160028201805480602002602001604051908101604052809291908181526020016000905b82821015611db2578382906000526020600020018054611d2590613d68565b80601f0160208091040260200160405190810160405280929190818152602001828054611d5190613d68565b8015611d9e5780601f10611d7357610100808354040283529160200191611d9e565b820191906000526020600020905b815481529060010190602001808311611d8157829003601f168201915b505050505081526020019060010190611d06565b5050505081526020016003820160009054906101000a900473ffffffffffffffffffffffffffffffffffffffff1673ffffffffffffffffffffffffffffffffffffffff1673ffffffffffffffffffffffffffffffffffffffff16815260200160048201805480602002602001604051908101604052809291908181526020016000905b82821015611ee1578382906000526020600020018054611e5490613d68565b80601f0160208091040260200160405190810160405280929190818152602001828054611e8090613d68565b8015611ecd5780601f10611ea257610100808354040283529160200191611ecd565b820191906000526020600020905b815481529060010190602001808311611eb057829003601f168201915b505050505081526020019060010190611e35565b5050505081525050915050919050565b6000600160003373ffffffffffffffffffffffffffffffffffffffff1673ffffffffffffffffffffffffffffffffffffffff16815260200190815260200160002083604051611f409190613ef7565b908152602001604051809103902054905060008111611f94576040517f08c379a0000000000000000000000000000000000000000000000000000000008152600401611f8b906143fe565b60405180910390fd5b3373ffffffffffffffffffffffffffffffffffffffff166000600183611fba919061418b565b81548110611fcb57611fca613d0a565b5b906000526020600020906005020160030160009054906101000a900473ffffffffffffffffffffffffffffffffffffffff1673ffffffffffffffffffffffffffffffffffffffff1614612053576040517f08c379a000000000000000000000000000000000000000000000000000000000815260040161204a9061446a565b60405180910390fd5b600160003373ffffffffffffffffffffffffffffffffffffffff1673ffffffffffffffffffffffffffffffffffffffff168152602001908152602001600020836040516120a09190613ef7565b908152602001604051809103902054600160008473ffffffffffffffffffffffffffffffffffffffff1673ffffffffffffffffffffffffffffffffffffffff168152602001908152602001600020846040516120fc9190613ef7565b908152602001604051809103902081905550505050565b6000600160003373ffffffffffffffffffffffffffffffffffffffff1673ffffffffffffffffffffffffffffffffffffffff168152602001908152602001600020826040516121629190613ef7565b9081526020016040518091039020549050600081116121b6576040517f08c379a00000000000000000000000000000000000000000000000000000000081526004016121ad9061416b565b60405180910390fd5b3373ffffffffffffffffffffffffffffffffffffffff1660006001836121dc919061418b565b815481106121ed576121ec613d0a565b5b906000526020600020906005020160030160009054906101000a900473ffffffffffffffffffffffffffffffffffffffff1673ffffffffffffffffffffffffffffffffffffffff1614612275576040517f08c379a000000000000000000000000000000000000000000000000000000000815260040161226c906144d6565b60405180910390fd5b6000600160003373ffffffffffffffffffffffffffffffffffffffff1673ffffffffffffffffffffffffffffffffffffffff168152602001908152602001600020836040516122c49190613ef7565b90815260200160405180910390208190555060006001826122e5919061418b565b815481106122f6576122f5613d0a565b5b9060005260206000209060050201600080820160006123159190612fbd565b6001820160006123259190612ffd565b600282016000612335919061301e565b6003820160006101000a81549073ffffffffffffffffffffffffffffffffffffffff021916905560048201600061236c919061301e565b50505050565b6000818154811061238257600080fd5b90600052602060002090600502016000915090508060000180546123a590613d68565b80601f01602080910402602001604051908101604052809291908181526020018280546123d190613d68565b801561241e5780601f106123f35761010080835404028352916020019161241e565b820191906000526020600020905b81548152906001019060200180831161240157829003601f168201915b5050505050908060030160009054906101000a900473ffffffffffffffffffffffffffffffffffffffff16905082565b60008490506000839050600083905060038651146124a1576040517f08c379a000000000000000000000000000000000000000000000000000000000815260040161249890614568565b60405180910390fd5b60008351116124e5576040517f08c379a00000000000000000000000000000000000000000000000000000000081526004016124dc906145d4565b60405180910390fd5b6000825111612529576040517f08c379a000000000000000000000000000000000000000000000000000000000815260040161252090614640565b60405180910390fd5b600081511161256d576040517f08c379a0000000000000000000000000000000000000000000000000000000008152600401612564906146ac565b60405180910390fd5b6000600160003373ffffffffffffffffffffffffffffffffffffffff1673ffffffffffffffffffffffffffffffffffffffff168152602001908152602001600020886040516125bc9190613ef7565b9081526020016040518091039020549050600081111561271c5760006001826125e5919061418b565b815481106125f6576125f5613d0a565b5b90600052602060002090600502016001018790806001815401808255809150506001900390600052602060002001600090919091909150908051906020019061264092919061303f565b506000600182612650919061418b565b8154811061266157612660613d0a565b5b9060005260206000209060050201600201869080600181540180825580915050600190039060005260206000200160009091909190915090805190602001906126ab929190612eaa565b5060006001826126bb919061418b565b815481106126cc576126cb613d0a565b5b906000526020600020906005020160040185908060018154018082558091505060019003906000526020600020016000909190919091509080519060200190612716929190612eaa565b50612a09565b6000600167ffffffffffffffff8111156127395761273861354f565b5b60405190808252806020026020018201604052801561276c57816020015b60608152602001906001900390816127575790505b5090506000600167ffffffffffffffff81111561278c5761278b61354f565b5b6040519080825280602002602001820160405280156127bf57816020015b60608152602001906001900390816127aa5790505b5090506000600167ffffffffffffffff8111156127df576127de61354f565b5b60405190808252806020026020018201604052801561281257816020015b60608152602001906001900390816127fd5790505b509050878160008151811061282a57612829613d0a565b5b6020026020010181905250888260008151811061284a57612849613d0a565b5b6020026020010181905250898360008151811061286a57612869613d0a565b5b602002602001018190525060006040518060a001604052808d81526020018581526020018481526020013373ffffffffffffffffffffffffffffffffffffffff168152602001838152509050600081908060018154018082558091505060019003906000526020600020906005020160009091909190915060008201518160000190805190602001906128fe929190612eaa565b50602082015181600101908051906020019061291b92919061309f565b50604082015181600201908051906020019061293892919061303f565b5060608201518160030160006101000a81548173ffffffffffffffffffffffffffffffffffffffff021916908373ffffffffffffffffffffffffffffffffffffffff160217905550608082015181600401908051906020019061299c92919061303f565b505050600080549050600160003373ffffffffffffffffffffffffffffffffffffffff1673ffffffffffffffffffffffffffffffffffffffff1681526020019081526020016000208d6040516129f29190613ef7565b908152602001604051809103902081905550505050505b5050505050505050565b60606000805480602002602001604051908101604052809291908181526020016000905b82821015612e2357838290600052602060002090600502016040518060a0016040529081600082018054612a6a90613d68565b80601f0160208091040260200160405190810160405280929190818152602001828054612a9690613d68565b8015612ae35780601f10612ab857610100808354040283529160200191612ae3565b820191906000526020600020905b815481529060010190602001808311612ac657829003601f168201915b5050505050815260200160018201805480602002602001604051908101604052809291908181526020016000905b82821015612c0457838290600052602060002001805480602002602001604051908101604052809291908181526020016000905b82821015612bf1578382906000526020600020018054612b6490613d68565b80601f0160208091040260200160405190810160405280929190818152602001828054612b9090613d68565b8015612bdd5780601f10612bb257610100808354040283529160200191612bdd565b820191906000526020600020905b815481529060010190602001808311612bc057829003601f168201915b505050505081526020019060010190612b45565b5050505081526020019060010190612b11565b50505050815260200160028201805480602002602001604051908101604052809291908181526020016000905b82821015612cdd578382906000526020600020018054612c5090613d68565b80601f0160208091040260200160405190810160405280929190818152602001828054612c7c90613d68565b8015612cc95780601f10612c9e57610100808354040283529160200191612cc9565b820191906000526020600020905b815481529060010190602001808311612cac57829003601f168201915b505050505081526020019060010190612c31565b5050505081526020016003820160009054906101000a900473ffffffffffffffffffffffffffffffffffffffff1673ffffffffffffffffffffffffffffffffffffffff1673ffffffffffffffffffffffffffffffffffffffff16815260200160048201805480602002602001604051908101604052809291908181526020016000905b82821015612e0c578382906000526020600020018054612d7f90613d68565b80601f0160208091040260200160405190810160405280929190818152602001828054612dab90613d68565b8015612df85780601f10612dcd57610100808354040283529160200191612df8565b820191906000526020600020905b815481529060010190602001808311612ddb57829003601f168201915b505050505081526020019060010190612d60565b505050508152505081526020019060010190612a37565b50505050905090565b6040518060a00160405280606081526020016060815260200160608152602001600073ffffffffffffffffffffffffffffffffffffffff168152602001606081525090565b604051806060016040528060608152602001600073ffffffffffffffffffffffffffffffffffffffff1681526020016000151581525090565b828054612eb690613d68565b90600052602060002090601f016020900481019282612ed85760008555612f1f565b82601f10612ef157805160ff1916838001178555612f1f565b82800160010185558215612f1f579182015b82811115612f1e578251825591602001919060010190612f03565b5b509050612f2c91906130ff565b5090565b828054612f3c90613d68565b90600052602060002090601f016020900481019282612f5e5760008555612fac565b82601f10612f6f5780548555612fac565b82800160010185558215612fac57600052602060002091601f016020900482015b82811115612fab578254825591600101919060010190612f90565b5b509050612fb991906130ff565b5090565b508054612fc990613d68565b6000825580601f10612fdb5750612ffa565b601f016020900490600052602060002090810190612ff991906130ff565b5b50565b508054600082559060005260206000209081019061301b919061311c565b50565b508054600082559060005260206000209081019061303c9190613140565b50565b82805482825590600052602060002090810192821561308e579160200282015b8281111561308d57825182908051906020019061307d929190612eaa565b509160200191906001019061305f565b5b50905061309b9190613140565b5090565b8280548282559060005260206000209081019282156130ee579160200282015b828111156130ed5782518290805190602001906130dd92919061303f565b50916020019190600101906130bf565b5b5090506130fb919061311c565b5090565b5b80821115613118576000816000905550600101613100565b5090565b5b8082111561313c5760008181613133919061301e565b5060010161311d565b5090565b5b8082111561316057600081816131579190612fbd565b50600101613141565b5090565b600081519050919050565b600082825260208201905092915050565b6000819050602082019050919050565b600081519050919050565b600082825260208201905092915050565b60005b838110156131ca5780820151818401526020810190506131af565b838111156131d9576000848401525b50505050565b6000601f19601f8301169050919050565b60006131fb82613190565b613205818561319b565b93506132158185602086016131ac565b61321e816131df565b840191505092915050565b600081519050919050565b600082825260208201905092915050565b6000819050602082019050919050565b600081519050919050565b600082825260208201905092915050565b6000819050602082019050919050565b600061328d83836131f0565b905092915050565b6000602082019050919050565b60006132ad82613255565b6132b78185613260565b9350836020820285016132c985613271565b8060005b8581101561330557848403895281516132e68582613281565b94506132f183613295565b925060208a019950506001810190506132cd565b50829750879550505050505092915050565b600061332383836132a2565b905092915050565b6000602082019050919050565b600061334382613229565b61334d8185613234565b93508360208202850161335f85613245565b8060005b8581101561339b578484038952815161337c8582613317565b94506133878361332b565b925060208a01995050600181019050613363565b50829750879550505050505092915050565b600073ffffffffffffffffffffffffffffffffffffffff82169050919050565b60006133d8826133ad565b9050919050565b6133e8816133cd565b82525050565b600060a083016000830151848203600086015261340b82826131f0565b915050602083015184820360208601526134258282613338565b9150506040830151848203604086015261343f82826132a2565b915050606083015161345460608601826133df565b506080830151848203608086015261346c82826132a2565b9150508091505092915050565b600061348583836133ee565b905092915050565b6000602082019050919050565b60006134a582613164565b6134af818561316f565b9350836020820285016134c185613180565b8060005b858110156134fd57848403895281516134de8582613479565b94506134e98361348d565b925060208a019950506001810190506134c5565b50829750879550505050505092915050565b60006020820190508181036000830152613529818461349a565b905092915050565b6000604051905090565b600080fd5b600080fd5b600080fd5b600080fd5b7f4e487b7100000000000000000000000000000000000000000000000000000000600052604160045260246000fd5b613587826131df565b810181811067ffffffffffffffff821117156135a6576135a561354f565b5b80604052505050565b60006135b9613531565b90506135c5828261357e565b919050565b600067ffffffffffffffff8211156135e5576135e461354f565b5b6135ee826131df565b9050602081019050919050565b82818337600083830152505050565b600061361d613618846135ca565b6135af565b9050828152602081018484840111156136395761363861354a565b5b6136448482856135fb565b509392505050565b600082601f83011261366157613660613545565b5b813561367184826020860161360a565b91505092915050565b6000602082840312156136905761368f61353b565b5b600082013567ffffffffffffffff8111156136ae576136ad613540565b5b6136ba8482850161364c565b91505092915050565b60008115159050919050565b6136d8816136c3565b82525050565b600060608301600083015184820360008601526136fb82826131f0565b915050602083015161371060208601826133df565b50604083015161372360408601826136cf565b508091505092915050565b6000602082019050818103600083015261374881846136de565b905092915050565b600081519050919050565b600082825260208201905092915050565b6000819050602082019050919050565b6000606083016000830151848203600086015261379982826131f0565b91505060208301516137ae60208601826133df565b5060408301516137c160408601826136cf565b508091505092915050565b60006137d8838361377c565b905092915050565b6000602082019050919050565b60006137f882613750565b613802818561375b565b9350836020820285016138148561376c565b8060005b85811015613850578484038952815161383185826137cc565b945061383c836137e0565b925060208a01995050600181019050613818565b50829750879550505050505092915050565b6000602082019050818103600083015261387c81846137ed565b905092915050565b61388d816133cd565b811461389857600080fd5b50565b6000813590506138aa81613884565b92915050565b600080604083850312156138c7576138c661353b565b5b600083013567ffffffffffffffff8111156138e5576138e4613540565b5b6138f18582860161364c565b92505060206139028582860161389b565b9150509250929050565b600082825260208201905092915050565b600061392882613255565b613932818561390c565b93508360208202850161394485613271565b8060005b8581101561398057848403895281516139618582613281565b945061396c83613295565b925060208a01995050600181019050613948565b50829750879550505050505092915050565b600060208201905081810360008301526139ac818461391d565b905092915050565b600060a08301600083015184820360008601526139d182826131f0565b915050602083015184820360208601526139eb8282613338565b91505060408301518482036040860152613a0582826132a2565b9150506060830151613a1a60608601826133df565b5060808301518482036080860152613a3282826132a2565b9150508091505092915050565b60006020820190508181036000830152613a5981846139b4565b905092915050565b6000819050919050565b613a7481613a61565b8114613a7f57600080fd5b50565b600081359050613a9181613a6b565b92915050565b600060208284031215613aad57613aac61353b565b5b6000613abb84828501613a82565b91505092915050565b600082825260208201905092915050565b6000613ae082613190565b613aea8185613ac4565b9350613afa8185602086016131ac565b613b03816131df565b840191505092915050565b613b17816133cd565b82525050565b60006040820190508181036000830152613b378185613ad5565b9050613b466020830184613b0e565b9392505050565b600067ffffffffffffffff821115613b6857613b6761354f565b5b602082029050602081019050919050565b600080fd5b6000613b91613b8c84613b4d565b6135af565b90508083825260208201905060208402830185811115613bb457613bb3613b79565b5b835b81811015613bfb57803567ffffffffffffffff811115613bd957613bd8613545565b5b808601613be6898261364c565b85526020850194505050602081019050613bb6565b5050509392505050565b600082601f830112613c1a57613c19613545565b5b8135613c2a848260208601613b7e565b91505092915050565b60008060008060808587031215613c4d57613c4c61353b565b5b600085013567ffffffffffffffff811115613c6b57613c6a613540565b5b613c778782880161364c565b945050602085013567ffffffffffffffff811115613c9857613c97613540565b5b613ca487828801613c05565b935050604085013567ffffffffffffffff811115613cc557613cc4613540565b5b613cd18782880161364c565b925050606085013567ffffffffffffffff811115613cf257613cf1613540565b5b613cfe8782880161364c565b91505092959194509250565b7f4e487b7100000000000000000000000000000000000000000000000000000000600052603260045260246000fd5b7f4e487b7100000000000000000000000000000000000000000000000000000000600052602260045260246000fd5b60006002820490506001821680613d8057607f821691505b602082108103613d9357613d92613d39565b5b50919050565b600081905092915050565b60008190508160005260206000209050919050565b60008154613dc681613d68565b613dd08186613d99565b94506001821660008114613deb5760018114613dfc57613e2f565b60ff19831686528186019350613e2f565b613e0585613da4565b60005b83811015613e2757815481890152600182019150602081019050613e08565b838801955050505b50505092915050565b6000613e448284613db9565b915081905092915050565b7f4e487b7100000000000000000000000000000000000000000000000000000000600052601160045260246000fd5b6000613e8982613a61565b91507fffffffffffffffffffffffffffffffffffffffffffffffffffffffffffffffff8203613ebb57613eba613e4f565b5b600182019050919050565b6000613ed182613190565b613edb8185613d99565b9350613eeb8185602086016131ac565b80840191505092915050565b6000613f038284613ec6565b915081905092915050565b7f4163636f756e7420646f65736e20742065786973747300000000000000000000600082015250565b6000613f44601683613ac4565b9150613f4f82613f0e565b602082019050919050565b60006020820190508181036000830152613f7381613f37565b9050919050565b7f41646d696e000000000000000000000000000000000000000000000000000000600082015250565b6000613fb0600583613d99565b9150613fbb82613f7a565b600582019050919050565b6000613fd182613fa3565b9150819050919050565b7f4f6e6c792061646d696e2063616e206163636573732069740000000000000000600082015250565b6000614011601883613ac4565b915061401c82613fdb565b602082019050919050565b6000602082019050818103600083015261404081614004565b9050919050565b7f4163636f756e7420616c72656164792065786973747300000000000000000000600082015250565b600061407d601683613ac4565b915061408882614047565b602082019050919050565b600060208201905081810360008301526140ac81614070565b9050919050565b7f4f6e6c792061646d696e732063616e206d6f64696679206163636f756e747300600082015250565b60006140e9601f83613ac4565b91506140f4826140b3565b602082019050919050565b60006020820190508181036000830152614118816140dc565b9050919050565b7f46696c6520646f65736e27742065786973740000000000000000000000000000600082015250565b6000614155601283613ac4565b91506141608261411f565b602082019050919050565b6000602082019050818103600083015261418481614148565b9050919050565b600061419682613a61565b91506141a183613a61565b9250828210156141b4576141b3613e4f565b5b828203905092915050565b7f4f6e6c7920746865206f776e65722063616e207265766f6b652061636365737360008201527f20746f20612066696c6500000000000000000000000000000000000000000000602082015250565b600061421b602a83613ac4565b9150614226826141bf565b604082019050919050565b6000602082019050818103600083015261424a8161420e565b9050919050565b600081905092915050565b60008190508160005260206000209050919050565b6000815461427e81613d68565b6142888186614251565b945060018216600081146142a357600181146142b4576142e7565b60ff198316865281860193506142e7565b6142bd8561425c565b60005b838110156142df578154818901526001820191506020810190506142c0565b838801955050505b50505092915050565b60006142fc8284614271565b915081905092915050565b600061431282613a61565b915061431d83613a61565b9250827fffffffffffffffffffffffffffffffffffffffffffffffffffffffffffffffff0382111561435257614351613e4f565b5b828201905092915050565b7f4e487b7100000000000000000000000000000000000000000000000000000000600052603160045260246000fd5b7f46696c6520646f65736e2774206578697374206f72206163636f756e7420686160008201527f73206e6f2061636365737320746f206974000000000000000000000000000000602082015250565b60006143e8603183613ac4565b91506143f38261438c565b604082019050919050565b60006020820190508181036000830152614417816143db565b9050919050565b7f4f6e6c7920746865206f776e65722063616e20736861726520612066696c6500600082015250565b6000614454601f83613ac4565b915061445f8261441e565b602082019050919050565b6000602082019050818103600083015261448381614447565b9050919050565b7f4f6e6c7920746865206f776e65722063616e2064656c65746520612066696c65600082015250565b60006144c0602083613ac4565b91506144cb8261448a565b602082019050919050565b600060208201905081810360008301526144ef816144b3565b9050919050565b7f49504653206861736865732073686f756c642062652070726f7669646564206660008201527f6f7220616c6c20746872656520706f736974696f6e7300000000000000000000602082015250565b6000614552603683613ac4565b915061455d826144f6565b604082019050919050565b6000602082019050818103600083015261458181614545565b9050919050565b7f46696c65206e616d652063616e6e6f74206265206f6d69747465640000000000600082015250565b60006145be601b83613ac4565b91506145c982614588565b602082019050919050565b600060208201905081810360008301526145ed816145b1565b9050919050565b7f46696c6520686173682063616e6e6f74206265206f6d69747465640000000000600082015250565b600061462a601b83613ac4565b9150614635826145f4565b602082019050919050565b600060208201905081810360008301526146598161461d565b9050919050565b7f46696c652074696d657374616d702063616e6e6f74206265206f6d6974746564600082015250565b6000614696602083613ac4565b91506146a182614660565b602082019050919050565b600060208201905081810360008301526146c581614689565b905091905056fea2646970667358221220951752ca0ba1422fce4e9f6c038db8af5039b90f0ac0272a74baee2a1ded0f5c64736f6c634300080d0033",
  "immutableReferences": {},
  "source": "pragma solidity ^0.8.13;\n//import \"hardhat/console.sol\";\n// SPDX-License-Identifier: MIT\n\ncontract FileManagement {\n\n    struct File {\n        string name;\n        string[][] fileIpfsHashes; \n        string[] hashes;\n        address owner;\n        string[] timestamps;\n    }\n\n    struct Account{\n        string name;\n        address accountAddress;\n        bool exists;\n    }\n    \n\n    File[] public files;\n    mapping(address => mapping(string => uint)) private ownerFileIndexes;\n    mapping(string => Account) private accounts;\n    string [] private accountNames;\n\n    constructor() {\n        accounts[\"Admin\"] = Account(\"Admin\", 0x568f2D6eB23cbF65D56cC004f9CDB26AEfbCf244, true);\n        accountNames.push(\"Admin\");\n    }\n    \n\n\n    function getFileNames() public view returns (string[] memory) {\n         uint256 fileCount = files.length;\n\n        string[] memory ownerFiles = new string[](fileCount);\n        uint256 ownerFileCount = 0;\n\n        for (uint256 i = 0; i < fileCount; i++) {\n            if (ownerFileIndexes[msg.sender][files[i].name] > 0) {\n                ownerFiles[ownerFileCount] = files[i].name;\n                ownerFileCount++;\n            }\n        }\n\n        string[] memory result = new string[](ownerFileCount);\n        for (uint256 j = 0; j < ownerFileCount; j++) {\n            result[j] = ownerFiles[j];\n        }\n\n        return result;\n    }\n\n    function getFiles() public view returns (File[] memory) {\n         uint256 fileCount = files.length;\n\n        File[] memory ownerFiles = new File[](fileCount);\n        uint256 ownerFileCount = 0;\n\n        for (uint256 i = 0; i < fileCount; i++) {\n            if (ownerFileIndexes[msg.sender][files[i].name] > 0) {\n                ownerFiles[ownerFileCount] = files[i];\n                ownerFileCount++;\n            }\n        }\n\n        File[] memory result = new File[](ownerFileCount);\n        for (uint256 j = 0; j < ownerFileCount; j++) {\n            result[j] = ownerFiles[j];\n        }\n\n        return result;\n    }\n\n    function getAllFiles() public view returns (File[] memory) {\n        return files;\n    }\n\n    \n    function getFile(string memory name) public view returns (File memory) {\n        uint index = ownerFileIndexes[msg.sender][name];\n        require(index > 0, \"File doesn't exist\");\n        return (files[index - 1]);\n    }\n\n\n    function addFile(string memory name, string[] memory ipfsHashes, string memory hash, string memory timeStamp) public  {\n        bytes memory tempName = bytes(name);\n        bytes memory tempHash = bytes(hash);\n        bytes memory tempTimeStamp = bytes(timeStamp);\n        \n        require(ipfsHashes.length == 3, \"IPFS hashes should be provided for all three positions\");\n        require(tempName.length > 0, \"File name cannot be omitted\");\n        require(tempHash.length > 0, \"File hash cannot be omitted\");\n        require(tempTimeStamp.length > 0, \"File timestamp cannot be omitted\");\n        \n        uint index = ownerFileIndexes[msg.sender][name];\n        \n        if(index > 0){\n            files[index - 1].fileIpfsHashes.push(ipfsHashes);\n            files[index - 1].hashes.push(hash);\n            files[index - 1].timestamps.push(timeStamp);\n        }else{\n            string[][] memory ipfsMatrix = new string[][](1);\n            string[] memory hashes = new string[](1);\n            string[] memory timestamps = new string[](1);\n\n            timestamps[0] = timeStamp;\n            hashes[0] = hash;\n            ipfsMatrix[0] = ipfsHashes;\n            File memory file = File(name, ipfsMatrix, hashes, msg.sender, timestamps);\n            files.push(file);\n            ownerFileIndexes[msg.sender][name] = files.length;\n        }\n    }\n\n    function shareAccessToFile(string memory name, address account) public{\n        uint index = ownerFileIndexes[msg.sender][name];\n        require(index > 0, \"File doesn't exist or account has no access to it\");\n        require(files[index - 1].owner == msg.sender, \"Only the owner can share a file\");\n        ownerFileIndexes[account][name] = ownerFileIndexes[msg.sender][name];\n    }\n\n    function revokeAccessToFile(string memory name, address account) public {\n        uint index = ownerFileIndexes[msg.sender][name];\n        require(index > 0, \"File doesn't exist\");\n        require(files[index - 1].owner == msg.sender, \"Only the owner can revoke access to a file\");\n        ownerFileIndexes[account][name] = 0;\n    }\n\n    function removeFile(string memory name) public {\n        uint index = ownerFileIndexes[msg.sender][name];\n        require(index > 0, \"File doesn't exist\");\n        require(files[index - 1].owner == msg.sender, \"Only the owner can delete a file\");\n        \n        ownerFileIndexes[msg.sender][name] = 0;\n        delete files[index - 1];       \n    }\n\n\n\n\n    function createAccount(string memory name, address accountAddress) public returns (Account memory newAccount){\n        Account memory existingAccount = accounts[name];\n        require(existingAccount.exists == false, \"Account already exists\");\n        require(msg.sender == accounts[\"Admin\"].accountAddress, \"Only admins can modify accounts\");\n\n        Account memory account = Account(name, accountAddress, true);\n        accounts[name] = account;\n        accountNames.push(name);\n\n        return account;\n    }\n\n    function deleteAccount(string memory name) public {\n        \n        require(msg.sender == accounts[\"Admin\"].accountAddress, \"Only admins can modify accounts\");\n        Account memory existingAccount = accounts[name];\n        require(existingAccount.exists == true, \"Account doesn t exists\");\n\n        for (uint i = 0; i<accountNames.length; i++){\n             //console.log(\"from %s to %s\", accountNames[i], name);\n\n            if(keccak256(bytes(accountNames[i])) == keccak256(bytes(name))){\n                for(uint j = i; j<accountNames.length-1; j++){\n                    accountNames[j] = accountNames[j+1];\n                    //console.log(\"here %s, %s\", accountNames[j], accountNames[j+1]);\n                    \n                }\n                delete accounts[name];\n                accountNames.pop();\n            }\n                \n        }\n    }\n\n    function getAccounts() public view returns (string[] memory accountsList) {\n        return (accountNames);\n    }\n\n    function getAccount(string memory name) public view returns (Account memory accountsList) {\n        Account memory existingAccount = accounts[name];\n        require(existingAccount.exists == true, \"Account doesn t exists\");\n        return (accounts[name]);\n    }\n\n    function getAccountsInfo() public view returns (Account[] memory accountsList) {\n        require(msg.sender != accounts[\"Admin\"].accountAddress, \"Only admin can access it\");\n        uint accountsCount = accountNames.length;\n        Account[] memory tempAccounts = new Account[](accountsCount);\n        for(uint i=0; i<accountsCount; i++){\n            tempAccounts[i] = accounts[accountNames[i]];\n        }\n        return (tempAccounts);\n    }\n\n\n    \n\n}\n",
  "sourcePath": "/home/aurel/Disertatie/Truffle/contracts/FileManagement.sol",
  "compiler": {
    "name": "solc",
    "version": "0.8.13+commit.abaa5c0e.Emscripten.clang"
  },
  "schemaVersion": "3.4.16",
  "updatedAt": "2024-06-25T19:52:11.945Z",
  "networkType": "ethereum",
  "devdoc": {
    "kind": "dev",
    "methods": {},
    "version": 1
  },
  "userdoc": {
    "kind": "user",
    "methods": {},
    "version": 1
  }
}