{
  "contractName": "FileManagement",
  "abi": [
    {
      "inputs": [
        {
          "internalType": "uint256",
          "name": "",
          "type": "uint256"
        }
      ],
      "name": "files",
      "outputs": [
        {
          "internalType": "string",
          "name": "name",
          "type": "string"
        },
        {
          "internalType": "address",
          "name": "owner",
          "type": "address"
        }
      ],
      "stateMutability": "view",
      "type": "function",
      "constant": true
    },
    {
      "inputs": [],
      "name": "getFileNames",
      "outputs": [
        {
          "internalType": "string[]",
          "name": "",
          "type": "string[]"
        }
      ],
      "stateMutability": "view",
      "type": "function",
      "constant": true
    },
    {
      "inputs": [
        {
          "internalType": "string",
          "name": "name",
          "type": "string"
        },
        {
          "internalType": "string[3]",
          "name": "ipfsHashes",
          "type": "string[3]"
        },
        {
          "internalType": "string",
          "name": "hash",
          "type": "string"
        }
      ],
      "name": "addFile",
      "outputs": [],
      "stateMutability": "nonpayable",
      "type": "function"
    },
    {
      "inputs": [
        {
          "internalType": "string",
          "name": "name",
          "type": "string"
        }
      ],
      "name": "getFile",
      "outputs": [
        {
          "components": [
            {
              "internalType": "string",
              "name": "name",
              "type": "string"
            },
            {
              "internalType": "string[3][]",
              "name": "fileIpfsHashes",
              "type": "string[3][]"
            },
            {
              "internalType": "string[]",
              "name": "hashes",
              "type": "string[]"
            },
            {
              "internalType": "address",
              "name": "owner",
              "type": "address"
            }
          ],
          "internalType": "struct FileManagement.File",
          "name": "",
          "type": "tuple"
        }
      ],
      "stateMutability": "view",
      "type": "function",
      "constant": true
    },
    {
      "inputs": [
        {
          "internalType": "string",
          "name": "name",
          "type": "string"
        }
      ],
      "name": "removeFile",
      "outputs": [],
      "stateMutability": "nonpayable",
      "type": "function"
    },
    {
      "inputs": [],
      "name": "testContract1",
      "outputs": [
        {
          "internalType": "uint256",
          "name": "",
          "type": "uint256"
        },
        {
          "internalType": "uint256",
          "name": "",
          "type": "uint256"
        }
      ],
      "stateMutability": "pure",
      "type": "function",
      "constant": true
    }
  ],
  "bytecode": "0x608060405234801561001057600080fd5b50611dbd806100206000396000f3fe608060405234801561001057600080fd5b50600436106100625760003560e01c80630b308d3d14610067578063aca0526314610083578063bfcd5289146100a2578063e0876aa8146100c0578063f1afe04d146100f0578063f4c714b41461010c575b600080fd5b610081600480360381019061007c91906113a7565b61013d565b005b61008b610525565b604051610099929190611467565b60405180910390f35b6100aa610540565b6040516100b791906115da565b60405180910390f35b6100da60048036038101906100d591906115fc565b6107d4565b6040516100e791906118e1565b60405180910390f35b61010a600480360381019061010591906115fc565b610b93565b005b6101266004803603810190610121919061192f565b610dc9565b6040516101349291906119b5565b60405180910390f35b60038014610180576040517f08c379a000000000000000000000000000000000000000000000000000000000815260040161017790611a57565b60405180910390fd5b6000600160003373ffffffffffffffffffffffffffffffffffffffff1673ffffffffffffffffffffffffffffffffffffffff168152602001908152602001600020846040516101cf9190611ab3565b908152602001604051809103902054905060008111156102c35760006001826101f89190611af9565b8154811061020957610208611b2d565b5b9060005260206000209060040201600101839080600181540180825580915050600190039060005260206000209060030201600090919091909150906003610252929190610ea5565b5060006001826102629190611af9565b8154811061027357610272611b2d565b5b9060005260206000209060040201600201829080600181540180825580915050600190039060005260206000200160009091909190915090805190602001906102bd929190610ef8565b5061051f565b6000600167ffffffffffffffff8111156102e0576102df6111a8565b5b60405190808252806020026020018201604052801561031957816020015b610306610f7e565b8152602001906001900390816102fe5790505b5090506000600167ffffffffffffffff811115610339576103386111a8565b5b60405190808252806020026020018201604052801561036c57816020015b60608152602001906001900390816103575790505b509050838160008151811061038457610383611b2d565b5b602002602001018190525084826000815181106103a4576103a3611b2d565b5b6020026020010181905250600060405180608001604052808881526020018481526020018381526020013373ffffffffffffffffffffffffffffffffffffffff16815250905060008190806001815401808255809150506001900390600052602060002090600402016000909190919091506000820151816000019080519060200190610432929190610ef8565b50602082015181600101908051906020019061044f929190610fa5565b50604082015181600201908051906020019061046c929190611003565b5060608201518160030160006101000a81548173ffffffffffffffffffffffffffffffffffffffff021916908373ffffffffffffffffffffffffffffffffffffffff1602179055505050600080549050600160003373ffffffffffffffffffffffffffffffffffffffff1673ffffffffffffffffffffffffffffffffffffffff168152602001908152602001600020886040516105099190611ab3565b9081526020016040518091039020819055505050505b50505050565b60008060006029905060006020905081819350935050509091565b606060008080549050905060008167ffffffffffffffff811115610567576105666111a8565b5b60405190808252806020026020018201604052801561059a57816020015b60608152602001906001900390816105855790505b5090506000805b8381101561071f576000600160003373ffffffffffffffffffffffffffffffffffffffff1673ffffffffffffffffffffffffffffffffffffffff168152602001908152602001600020600083815481106105fe576105fd611b2d565b5b906000526020600020906004020160000160405161061c9190611c50565b908152602001604051809103902054111561070c576000818154811061064557610644611b2d565b5b9060005260206000209060040201600001805461066190611b8b565b80601f016020809104026020016040519081016040528092919081815260200182805461068d90611b8b565b80156106da5780601f106106af576101008083540402835291602001916106da565b820191906000526020600020905b8154815290600101906020018083116106bd57829003601f168201915b50505050508383815181106106f2576106f1611b2d565b5b6020026020010181905250818061070890611c67565b9250505b808061071790611c67565b9150506105a1565b5060008167ffffffffffffffff81111561073c5761073b6111a8565b5b60405190808252806020026020018201604052801561076f57816020015b606081526020019060019003908161075a5790505b50905060005b828110156107c9578381815181106107905761078f611b2d565b5b60200260200101518282815181106107ab576107aa611b2d565b5b602002602001018190525080806107c190611c67565b915050610775565b508094505050505090565b6107dc611063565b6000600160003373ffffffffffffffffffffffffffffffffffffffff1673ffffffffffffffffffffffffffffffffffffffff1681526020019081526020016000208360405161082b9190611ab3565b90815260200160405180910390205490506000811161087f576040517f08c379a000000000000000000000000000000000000000000000000000000000815260040161087690611cfb565b60405180910390fd5b600060018261088e9190611af9565b8154811061089f5761089e611b2d565b5b90600052602060002090600402016040518060800160405290816000820180546108c890611b8b565b80601f01602080910402602001604051908101604052809291908181526020018280546108f490611b8b565b80156109415780601f1061091657610100808354040283529160200191610941565b820191906000526020600020905b81548152906001019060200180831161092457829003601f168201915b5050505050815260200160018201805480602002602001604051908101604052809291908181526020016000905b82821015610a545783829060005260206000209060030201600380602002604051908101604052809291906000905b82821015610a415783820180546109b490611b8b565b80601f01602080910402602001604051908101604052809291908181526020018280546109e090611b8b565b8015610a2d5780601f10610a0257610100808354040283529160200191610a2d565b820191906000526020600020905b815481529060010190602001808311610a1057829003601f168201915b50505050508152602001906001019061099e565b505050508152602001906001019061096f565b50505050815260200160028201805480602002602001604051908101604052809291908181526020016000905b82821015610b2d578382906000526020600020018054610aa090611b8b565b80601f0160208091040260200160405190810160405280929190818152602001828054610acc90611b8b565b8015610b195780601f10610aee57610100808354040283529160200191610b19565b820191906000526020600020905b815481529060010190602001808311610afc57829003601f168201915b505050505081526020019060010190610a81565b5050505081526020016003820160009054906101000a900473ffffffffffffffffffffffffffffffffffffffff1673ffffffffffffffffffffffffffffffffffffffff1673ffffffffffffffffffffffffffffffffffffffff1681525050915050919050565b6000600160003373ffffffffffffffffffffffffffffffffffffffff1673ffffffffffffffffffffffffffffffffffffffff16815260200190815260200160002082604051610be29190611ab3565b908152602001604051809103902054905060008111610c36576040517f08c379a0000000000000000000000000000000000000000000000000000000008152600401610c2d90611d67565b60405180910390fd5b6000600160003373ffffffffffffffffffffffffffffffffffffffff1673ffffffffffffffffffffffffffffffffffffffff16815260200190815260200160002083604051610c859190611ab3565b908152602001604051809103902081905550600067ffffffffffffffff811115610cb257610cb16111a8565b5b604051908082528060200260200182016040528015610ceb57816020015b610cd8610f7e565b815260200190600190039081610cd05790505b506000600183610cfb9190611af9565b81548110610d0c57610d0b611b2d565b5b90600052602060002090600402016001019080519060200190610d30929190610fa5565b50600067ffffffffffffffff811115610d4c57610d4b6111a8565b5b604051908082528060200260200182016040528015610d7f57816020015b6060815260200190600190039081610d6a5790505b506000600183610d8f9190611af9565b81548110610da057610d9f611b2d565b5b90600052602060002090600402016002019080519060200190610dc4929190611003565b505050565b60008181548110610dd957600080fd5b9060005260206000209060040201600091509050806000018054610dfc90611b8b565b80601f0160208091040260200160405190810160405280929190818152602001828054610e2890611b8b565b8015610e755780601f10610e4a57610100808354040283529160200191610e75565b820191906000526020600020905b815481529060010190602001808311610e5857829003601f168201915b5050505050908060030160009054906101000a900473ffffffffffffffffffffffffffffffffffffffff16905082565b8260038101928215610ee7579160200282015b82811115610ee6578251829080519060200190610ed6929190610ef8565b5091602001919060010190610eb8565b5b509050610ef491906110a1565b5090565b828054610f0490611b8b565b90600052602060002090601f016020900481019282610f265760008555610f6d565b82601f10610f3f57805160ff1916838001178555610f6d565b82800160010185558215610f6d579182015b82811115610f6c578251825591602001919060010190610f51565b5b509050610f7a91906110c5565b5090565b60405180606001604052806003905b6060815260200190600190039081610f8d5790505090565b828054828255906000526020600020906003028101928215610ff2579160200282015b82811115610ff157825182906003610fe1929190610ea5565b5091602001919060030190610fc8565b5b509050610fff91906110e2565b5090565b828054828255906000526020600020908101928215611052579160200282015b82811115611051578251829080519060200190611041929190610ef8565b5091602001919060010190611023565b5b50905061105f91906110a1565b5090565b6040518060800160405280606081526020016060815260200160608152602001600073ffffffffffffffffffffffffffffffffffffffff1681525090565b5b808211156110c157600081816110b89190611106565b506001016110a2565b5090565b5b808211156110de5760008160009055506001016110c6565b5090565b5b8082111561110257600081816110f99190611146565b506003016110e3565b5090565b50805461111290611b8b565b6000825580601f106111245750611143565b601f01602090049060005260206000209081019061114291906110c5565b5b50565b50600081816111559190611106565b50600101600081816111679190611106565b5060010160006111779190611106565b565b6000604051905090565b600080fd5b600080fd5b600080fd5b600080fd5b6000601f19601f8301169050919050565b7f4e487b7100000000000000000000000000000000000000000000000000000000600052604160045260246000fd5b6111e082611197565b810181811067ffffffffffffffff821117156111ff576111fe6111a8565b5b80604052505050565b6000611212611179565b905061121e82826111d7565b919050565b600067ffffffffffffffff82111561123e5761123d6111a8565b5b61124782611197565b9050602081019050919050565b82818337600083830152505050565b600061127661127184611223565b611208565b90508281526020810184848401111561129257611291611192565b5b61129d848285611254565b509392505050565b600082601f8301126112ba576112b961118d565b5b81356112ca848260208601611263565b91505092915050565b600067ffffffffffffffff8211156112ee576112ed6111a8565b5b602082029050919050565b600080fd5b600061131161130c846112d3565b611208565b9050806020840283018581111561132b5761132a6112f9565b5b835b8181101561137257803567ffffffffffffffff8111156113505761134f61118d565b5b80860161135d89826112a5565b8552602085019450505060208101905061132d565b5050509392505050565b600082601f8301126113915761139061118d565b5b600361139e8482856112fe565b91505092915050565b6000806000606084860312156113c0576113bf611183565b5b600084013567ffffffffffffffff8111156113de576113dd611188565b5b6113ea868287016112a5565b935050602084013567ffffffffffffffff81111561140b5761140a611188565b5b6114178682870161137c565b925050604084013567ffffffffffffffff81111561143857611437611188565b5b611444868287016112a5565b9150509250925092565b6000819050919050565b6114618161144e565b82525050565b600060408201905061147c6000830185611458565b6114896020830184611458565b9392505050565b600081519050919050565b600082825260208201905092915050565b6000819050602082019050919050565b600081519050919050565b600082825260208201905092915050565b60005b838110156114f65780820151818401526020810190506114db565b83811115611505576000848401525b50505050565b6000611516826114bc565b61152081856114c7565b93506115308185602086016114d8565b61153981611197565b840191505092915050565b6000611550838361150b565b905092915050565b6000602082019050919050565b600061157082611490565b61157a818561149b565b93508360208202850161158c856114ac565b8060005b858110156115c857848403895281516115a98582611544565b94506115b483611558565b925060208a01995050600181019050611590565b50829750879550505050505092915050565b600060208201905081810360008301526115f48184611565565b905092915050565b60006020828403121561161257611611611183565b5b600082013567ffffffffffffffff8111156116305761162f611188565b5b61163c848285016112a5565b91505092915050565b600081519050919050565b600082825260208201905092915050565b6000819050602082019050919050565b600060039050919050565b600081905092915050565b6000819050919050565b6000602082019050919050565b60006116a982611671565b6116b3818561167c565b9350836020820285016116c585611687565b8060005b8581101561170157848403895281516116e28582611544565b94506116ed83611691565b925060208a019950506001810190506116c9565b50829750879550505050505092915050565b600061171f838361169e565b905092915050565b6000602082019050919050565b600061173f82611645565b6117498185611650565b93508360208202850161175b85611661565b8060005b8581101561179757848403895281516117788582611713565b945061178383611727565b925060208a0199505060018101905061175f565b50829750879550505050505092915050565b600082825260208201905092915050565b60006117c582611490565b6117cf81856117a9565b9350836020820285016117e1856114ac565b8060005b8581101561181d57848403895281516117fe8582611544565b945061180983611558565b925060208a019950506001810190506117e5565b50829750879550505050505092915050565b600073ffffffffffffffffffffffffffffffffffffffff82169050919050565b600061185a8261182f565b9050919050565b61186a8161184f565b82525050565b6000608083016000830151848203600086015261188d828261150b565b915050602083015184820360208601526118a78282611734565b915050604083015184820360408601526118c182826117ba565b91505060608301516118d66060860182611861565b508091505092915050565b600060208201905081810360008301526118fb8184611870565b905092915050565b61190c8161144e565b811461191757600080fd5b50565b60008135905061192981611903565b92915050565b60006020828403121561194557611944611183565b5b60006119538482850161191a565b91505092915050565b600082825260208201905092915050565b6000611978826114bc565b611982818561195c565b93506119928185602086016114d8565b61199b81611197565b840191505092915050565b6119af8161184f565b82525050565b600060408201905081810360008301526119cf818561196d565b90506119de60208301846119a6565b9392505050565b7f49504653206861736865732073686f756c642062652070726f7669646564206660008201527f6f7220616c6c20746872656520706f736974696f6e7300000000000000000000602082015250565b6000611a4160368361195c565b9150611a4c826119e5565b604082019050919050565b60006020820190508181036000830152611a7081611a34565b9050919050565b600081905092915050565b6000611a8d826114bc565b611a978185611a77565b9350611aa78185602086016114d8565b80840191505092915050565b6000611abf8284611a82565b915081905092915050565b7f4e487b7100000000000000000000000000000000000000000000000000000000600052601160045260246000fd5b6000611b048261144e565b9150611b0f8361144e565b925082821015611b2257611b21611aca565b5b828203905092915050565b7f4e487b7100000000000000000000000000000000000000000000000000000000600052603260045260246000fd5b7f4e487b7100000000000000000000000000000000000000000000000000000000600052602260045260246000fd5b60006002820490506001821680611ba357607f821691505b602082108103611bb657611bb5611b5c565b5b50919050565b60008190508160005260206000209050919050565b60008154611bde81611b8b565b611be88186611a77565b94506001821660008114611c035760018114611c1457611c47565b60ff19831686528186019350611c47565b611c1d85611bbc565b60005b83811015611c3f57815481890152600182019150602081019050611c20565b838801955050505b50505092915050565b6000611c5c8284611bd1565b915081905092915050565b6000611c728261144e565b91507fffffffffffffffffffffffffffffffffffffffffffffffffffffffffffffffff8203611ca457611ca3611aca565b5b600182019050919050565b7f46696c65206e6f7420666f756e64000000000000000000000000000000000000600082015250565b6000611ce5600e8361195c565b9150611cf082611caf565b602082019050919050565b60006020820190508181036000830152611d1481611cd8565b9050919050565b7f46696c6520646f65736e20742065786973740000000000000000000000000000600082015250565b6000611d5160128361195c565b9150611d5c82611d1b565b602082019050919050565b60006020820190508181036000830152611d8081611d44565b905091905056fea26469706673582212204b08f8cddc13d72284f948d5605269ee575e2c7ade800e8eb1c3694c358b061364736f6c634300080d0033",
  "immutableReferences": {},
  "source": "pragma solidity ^0.8.13;\n// SPDX-License-Identifier: MIT\n\ncontract FileManagement {\n\n    struct File {\n        string name;\n        string[3][] fileIpfsHashes; // Matrix to store three IPFS hashes for each version\n        string[] hashes;\n        address owner;\n        \n    }\n\n    File[] public files;\n    mapping(address => mapping(string => uint)) private ownerFileIndexes;\n\n\n    function getFileNames() public view returns (string[] memory) {\n         uint256 fileCount = files.length;\n\n        // Temporary array to store filtered file names\n        string[] memory ownerFiles = new string[](fileCount);\n        uint256 ownerFileCount = 0;\n\n        for (uint256 i = 0; i < fileCount; i++) {\n            // Check if the file belongs to the specified owner\n            if (ownerFileIndexes[msg.sender][files[i].name] > 0) {\n                ownerFiles[ownerFileCount] = files[i].name;\n                ownerFileCount++;\n            }\n        }\n\n        // Create a new array with the correct size to store only the owner's files\n        string[] memory result = new string[](ownerFileCount);\n        for (uint256 j = 0; j < ownerFileCount; j++) {\n            result[j] = ownerFiles[j];\n        }\n\n        return result;\n    }\n\n    function addFile(string memory name, string[3] memory ipfsHashes, string memory hash) public  {\n        require(ipfsHashes.length == 3, \"IPFS hashes should be provided for all three positions\");\n\n        uint index = ownerFileIndexes[msg.sender][name];\n        \n\n        if(index > 0){\n            files[index - 1].fileIpfsHashes.push(ipfsHashes);\n            files[index - 1].hashes.push(hash);\n        }else{\n            string[3][] memory ipfsMatrix = new string[3][](1);\n            string[] memory hashes = new string[](1);\n\n            hashes[0] = hash;\n            ipfsMatrix[0] = ipfsHashes;\n            File memory file = File(name, ipfsMatrix, hashes, msg.sender);\n            files.push(file);\n            ownerFileIndexes[msg.sender][name] = files.length;\n        }\n    }\n\n    function getFile(string memory name) public view returns (File memory) {\n        uint index = ownerFileIndexes[msg.sender][name];\n        require(index > 0, \"File not found\");\n        return (files[index - 1]);\n    }\n\n    function removeFile(string memory name) public {\n\n        uint index = ownerFileIndexes[msg.sender][name];\n        require(index > 0, \"File doesn t exist\");\n        \n        ownerFileIndexes[msg.sender][name] = 0;\n        files[index - 1].fileIpfsHashes = new string[3][](0);  \n        files[index - 1].hashes = new string[](0);            \n    }\n\n    function testContract1() public pure returns (uint, uint) {\n        uint x=41;\n        uint y=32;\n        return (x, y);\n    }\n\n}\n",
  "sourcePath": "/home/aurel/Disertatie/Truffle/contracts/FileManagement.sol",
  "compiler": {
    "name": "solc",
    "version": "0.8.13+commit.abaa5c0e.Emscripten.clang"
  },
  "schemaVersion": "3.4.16",
  "updatedAt": "2024-01-16T21:37:06.759Z",
  "networkType": "ethereum",
  "devdoc": {
    "kind": "dev",
    "methods": {},
    "version": 1
  },
  "userdoc": {
    "kind": "user",
    "methods": {},
    "version": 1
  }
}