{
  "contractName": "FileStorage",
  "abi": [
    {
      "inputs": [],
      "stateMutability": "nonpayable",
      "type": "constructor"
    },
    {
      "inputs": [],
      "name": "THRESHOLD",
      "outputs": [
        {
          "internalType": "uint8",
          "name": "",
          "type": "uint8"
        }
      ],
      "stateMutability": "view",
      "type": "function",
      "constant": true
    },
    {
      "inputs": [],
      "name": "TOTAL_SHARES",
      "outputs": [
        {
          "internalType": "uint8",
          "name": "",
          "type": "uint8"
        }
      ],
      "stateMutability": "view",
      "type": "function",
      "constant": true
    },
    {
      "inputs": [],
      "name": "fileId",
      "outputs": [
        {
          "internalType": "uint256",
          "name": "",
          "type": "uint256"
        }
      ],
      "stateMutability": "view",
      "type": "function",
      "constant": true
    },
    {
      "inputs": [
        {
          "internalType": "uint256",
          "name": "",
          "type": "uint256"
        }
      ],
      "name": "files",
      "outputs": [
        {
          "internalType": "string",
          "name": "name",
          "type": "string"
        },
        {
          "internalType": "uint8",
          "name": "threshold",
          "type": "uint8"
        },
        {
          "internalType": "uint8",
          "name": "numShares",
          "type": "uint8"
        },
        {
          "internalType": "address",
          "name": "owner",
          "type": "address"
        }
      ],
      "stateMutability": "view",
      "type": "function",
      "constant": true
    },
    {
      "inputs": [],
      "name": "sss",
      "outputs": [
        {
          "internalType": "contract ShamirSecretSharing",
          "name": "",
          "type": "address"
        }
      ],
      "stateMutability": "view",
      "type": "function",
      "constant": true
    },
    {
      "inputs": [
        {
          "internalType": "string",
          "name": "name",
          "type": "string"
        },
        {
          "internalType": "string",
          "name": "content",
          "type": "string"
        }
      ],
      "name": "addFile",
      "outputs": [],
      "stateMutability": "nonpayable",
      "type": "function"
    },
    {
      "inputs": [
        {
          "internalType": "uint256",
          "name": "_fileId",
          "type": "uint256"
        }
      ],
      "name": "getFile",
      "outputs": [
        {
          "internalType": "string",
          "name": "name",
          "type": "string"
        },
        {
          "internalType": "string",
          "name": "content",
          "type": "string"
        }
      ],
      "stateMutability": "view",
      "type": "function",
      "constant": true
    },
    {
      "inputs": [
        {
          "internalType": "uint256",
          "name": "_fileId",
          "type": "uint256"
        }
      ],
      "name": "getFileShares",
      "outputs": [
        {
          "internalType": "uint256[]",
          "name": "",
          "type": "uint256[]"
        }
      ],
      "stateMutability": "view",
      "type": "function",
      "constant": true
    }
  ],
  "bytecode": "0x608060405234801561001057600080fd5b50600060028190555060405161002590610087565b604051809103906000f080158015610041573d6000803e3d6000fd5b50600360006101000a81548173ffffffffffffffffffffffffffffffffffffffff021916908373ffffffffffffffffffffffffffffffffffffffff160217905550610094565b6113b9806117e883390190565b611745806100a36000396000f3fe608060405234801561001057600080fd5b50600436106100885760003560e01c8063785ffb371161005b578063785ffb371461011657806385e3f99714610134578063d6d0bcb414610152578063f4c714b41461018257610088565b8063248bfc3b1461008d5780632bfda313146100a9578063548dd99c146100da578063641b66e4146100f8575b600080fd5b6100a760048036038101906100a29190610df3565b6101b5565b005b6100c360048036038101906100be9190610ea1565b61047a565b6040516100d1929190610f56565b60405180910390f35b6100e261075f565b6040516100ef919061100c565b60405180910390f35b610100610785565b60405161010d9190611036565b60405180910390f35b61011e61078b565b60405161012b919061106d565b60405180910390f35b61013c610790565b604051610149919061106d565b60405180910390f35b61016c60048036038101906101679190610ea1565b610795565b6040516101799190611146565b60405180910390f35b61019c60048036038101906101979190610ea1565b61090c565b6040516101ac9493929190611189565b60405180910390f35b60008080549050905060006002836040516101d0919061121c565b602060405180830381855afa1580156101ed573d6000803e3d6000fd5b5050506040513d601f19601f820116820180604052508101906102109190611269565b90506000600360009054906101000a900473ffffffffffffffffffffffffffffffffffffffff1673ffffffffffffffffffffffffffffffffffffffff16631299ac8f8360001c600260036040518463ffffffff1660e01b815260040161027893929190611296565b600060405180830381865afa158015610295573d6000803e3d6000fd5b505050506040513d6000823e3d601f19601f820116820180604052508101906102be91906113aa565b905060006040518060a00160405280878152602001600260ff168152602001600360ff1681526020018381526020013373ffffffffffffffffffffffffffffffffffffffff168152509080600181540180825580915050600190039060005260206000209060040201600090919091909150600082015181600001908051906020019061034c929190610ba9565b5060208201518160010160006101000a81548160ff021916908360ff16021790555060408201518160010160016101000a81548160ff021916908360ff16021790555060608201518160020190805190602001906103ab929190610c2f565b5060808201518160030160006101000a81548173ffffffffffffffffffffffffffffffffffffffff021916908373ffffffffffffffffffffffffffffffffffffffff1602179055505050600160003373ffffffffffffffffffffffffffffffffffffffff1673ffffffffffffffffffffffffffffffffffffffff1681526020019081526020016000208390806001815401808255809150506001900390600052602060002001600090919091909150556002600081548092919061046e90611422565b91905055505050505050565b60608060008054905083106104c4576040517f08c379a00000000000000000000000000000000000000000000000000000000081526004016104bb906114b6565b60405180910390fd5b600083815481106104d8576104d76114d6565b5b906000526020600020906004020160030160009054906101000a900473ffffffffffffffffffffffffffffffffffffffff1673ffffffffffffffffffffffffffffffffffffffff163373ffffffffffffffffffffffffffffffffffffffff1614610577576040517f08c379a000000000000000000000000000000000000000000000000000000000815260040161056e90611577565b60405180910390fd5b600080848154811061058c5761058b6114d6565b5b90600052602060002090600402016002018054806020026020016040519081016040528092919081815260200182805480156105e757602002820191906000526020600020905b8154815260200190600101908083116105d3575b505050505090506000600360009054906101000a900473ffffffffffffffffffffffffffffffffffffffff1673ffffffffffffffffffffffffffffffffffffffff1663eff90d058360026040518363ffffffff1660e01b815260040161064e929190611597565b602060405180830381865afa15801561066b573d6000803e3d6000fd5b505050506040513d601f19601f8201168201806040525081019061068f91906115c7565b9050600061069f8260001b610a0e565b9050600086815481106106b5576106b46114d6565b5b9060005260206000209060040201600001818180546106d390611623565b80601f01602080910402602001604051908101604052809291908181526020018280546106ff90611623565b801561074c5780601f106107215761010080835404028352916020019161074c565b820191906000526020600020905b81548152906001019060200180831161072f57829003601f168201915b5050505050915094509450505050915091565b600360009054906101000a900473ffffffffffffffffffffffffffffffffffffffff1681565b60025481565b600281565b600381565b606060008054905082106107de576040517f08c379a00000000000000000000000000000000000000000000000000000000081526004016107d5906114b6565b60405180910390fd5b600082815481106107f2576107f16114d6565b5b906000526020600020906004020160030160009054906101000a900473ffffffffffffffffffffffffffffffffffffffff1673ffffffffffffffffffffffffffffffffffffffff163373ffffffffffffffffffffffffffffffffffffffff1614610891576040517f08c379a0000000000000000000000000000000000000000000000000000000008152600401610888906116c6565b60405180910390fd5b600082815481106108a5576108a46114d6565b5b906000526020600020906004020160020180548060200260200160405190810160405280929190818152602001828054801561090057602002820191906000526020600020905b8154815260200190600101908083116108ec575b50505050509050919050565b6000818154811061091c57600080fd5b906000526020600020906004020160009150905080600001805461093f90611623565b80601f016020809104026020016040519081016040528092919081815260200182805461096b90611623565b80156109b85780601f1061098d576101008083540402835291602001916109b8565b820191906000526020600020905b81548152906001019060200180831161099b57829003601f168201915b5050505050908060010160009054906101000a900460ff16908060010160019054906101000a900460ff16908060030160009054906101000a900473ffffffffffffffffffffffffffffffffffffffff16905084565b606060005b60208160ff16108015610a655750600060f81b838260ff1660208110610a3c57610a3b6114d6565b5b1a60f81b7effffffffffffffffffffffffffffffffffffffffffffffffffffffffffffff191614155b15610a7d578080610a75906116e6565b915050610a13565b60008160ff1667ffffffffffffffff811115610a9c57610a9b610cc8565b5b6040519080825280601f01601f191660200182016040528015610ace5781602001600182028036833780820191505090505b509050600091505b60208260ff16108015610b285750600060f81b848360ff1660208110610aff57610afe6114d6565b5b1a60f81b7effffffffffffffffffffffffffffffffffffffffffffffffffffffffffffff191614155b15610b9f57838260ff1660208110610b4357610b426114d6565b5b1a60f81b818360ff1681518110610b5d57610b5c6114d6565b5b60200101907effffffffffffffffffffffffffffffffffffffffffffffffffffffffffffff1916908160001a9053508180610b97906116e6565b925050610ad6565b8092505050919050565b828054610bb590611623565b90600052602060002090601f016020900481019282610bd75760008555610c1e565b82601f10610bf057805160ff1916838001178555610c1e565b82800160010185558215610c1e579182015b82811115610c1d578251825591602001919060010190610c02565b5b509050610c2b9190610c7c565b5090565b828054828255906000526020600020908101928215610c6b579160200282015b82811115610c6a578251825591602001919060010190610c4f565b5b509050610c789190610c7c565b5090565b5b80821115610c95576000816000905550600101610c7d565b5090565b6000604051905090565b600080fd5b600080fd5b600080fd5b600080fd5b6000601f19601f8301169050919050565b7f4e487b7100000000000000000000000000000000000000000000000000000000600052604160045260246000fd5b610d0082610cb7565b810181811067ffffffffffffffff82111715610d1f57610d1e610cc8565b5b80604052505050565b6000610d32610c99565b9050610d3e8282610cf7565b919050565b600067ffffffffffffffff821115610d5e57610d5d610cc8565b5b610d6782610cb7565b9050602081019050919050565b82818337600083830152505050565b6000610d96610d9184610d43565b610d28565b905082815260208101848484011115610db257610db1610cb2565b5b610dbd848285610d74565b509392505050565b600082601f830112610dda57610dd9610cad565b5b8135610dea848260208601610d83565b91505092915050565b60008060408385031215610e0a57610e09610ca3565b5b600083013567ffffffffffffffff811115610e2857610e27610ca8565b5b610e3485828601610dc5565b925050602083013567ffffffffffffffff811115610e5557610e54610ca8565b5b610e6185828601610dc5565b9150509250929050565b6000819050919050565b610e7e81610e6b565b8114610e8957600080fd5b50565b600081359050610e9b81610e75565b92915050565b600060208284031215610eb757610eb6610ca3565b5b6000610ec584828501610e8c565b91505092915050565b600081519050919050565b600082825260208201905092915050565b60005b83811015610f08578082015181840152602081019050610eed565b83811115610f17576000848401525b50505050565b6000610f2882610ece565b610f328185610ed9565b9350610f42818560208601610eea565b610f4b81610cb7565b840191505092915050565b60006040820190508181036000830152610f708185610f1d565b90508181036020830152610f848184610f1d565b90509392505050565b600073ffffffffffffffffffffffffffffffffffffffff82169050919050565b6000819050919050565b6000610fd2610fcd610fc884610f8d565b610fad565b610f8d565b9050919050565b6000610fe482610fb7565b9050919050565b6000610ff682610fd9565b9050919050565b61100681610feb565b82525050565b60006020820190506110216000830184610ffd565b92915050565b61103081610e6b565b82525050565b600060208201905061104b6000830184611027565b92915050565b600060ff82169050919050565b61106781611051565b82525050565b6000602082019050611082600083018461105e565b92915050565b600081519050919050565b600082825260208201905092915050565b6000819050602082019050919050565b6110bd81610e6b565b82525050565b60006110cf83836110b4565b60208301905092915050565b6000602082019050919050565b60006110f382611088565b6110fd8185611093565b9350611108836110a4565b8060005b8381101561113957815161112088826110c3565b975061112b836110db565b92505060018101905061110c565b5085935050505092915050565b6000602082019050818103600083015261116081846110e8565b905092915050565b600061117382610f8d565b9050919050565b61118381611168565b82525050565b600060808201905081810360008301526111a38187610f1d565b90506111b2602083018661105e565b6111bf604083018561105e565b6111cc606083018461117a565b95945050505050565b600081519050919050565b600081905092915050565b60006111f6826111d5565b61120081856111e0565b9350611210818560208601610eea565b80840191505092915050565b600061122882846111eb565b915081905092915050565b6000819050919050565b61124681611233565b811461125157600080fd5b50565b6000815190506112638161123d565b92915050565b60006020828403121561127f5761127e610ca3565b5b600061128d84828501611254565b91505092915050565b60006060820190506112ab6000830186611027565b6112b8602083018561105e565b6112c5604083018461105e565b949350505050565b600067ffffffffffffffff8211156112e8576112e7610cc8565b5b602082029050602081019050919050565b600080fd5b60008151905061130d81610e75565b92915050565b6000611326611321846112cd565b610d28565b90508083825260208201905060208402830185811115611349576113486112f9565b5b835b81811015611372578061135e88826112fe565b84526020840193505060208101905061134b565b5050509392505050565b600082601f83011261139157611390610cad565b5b81516113a1848260208601611313565b91505092915050565b6000602082840312156113c0576113bf610ca3565b5b600082015167ffffffffffffffff8111156113de576113dd610ca8565b5b6113ea8482850161137c565b91505092915050565b7f4e487b7100000000000000000000000000000000000000000000000000000000600052601160045260246000fd5b600061142d82610e6b565b91507fffffffffffffffffffffffffffffffffffffffffffffffffffffffffffffffff820361145f5761145e6113f3565b5b600182019050919050565b7f46696c6520646f6573206e6f7420657869737400000000000000000000000000600082015250565b60006114a0601383610ed9565b91506114ab8261146a565b602082019050919050565b600060208201905081810360008301526114cf81611493565b9050919050565b7f4e487b7100000000000000000000000000000000000000000000000000000000600052603260045260246000fd5b7f596f7520617265206e6f7420617574686f72697a656420746f2076696577207460008201527f6869732066696c652e0000000000000000000000000000000000000000000000602082015250565b6000611561602983610ed9565b915061156c82611505565b604082019050919050565b6000602082019050818103600083015261159081611554565b9050919050565b600060408201905081810360008301526115b181856110e8565b90506115c0602083018461105e565b9392505050565b6000602082840312156115dd576115dc610ca3565b5b60006115eb848285016112fe565b91505092915050565b7f4e487b7100000000000000000000000000000000000000000000000000000000600052602260045260246000fd5b6000600282049050600182168061163b57607f821691505b60208210810361164e5761164d6115f4565b5b50919050565b7f596f7520617265206e6f7420617574686f72697a656420746f2076696577207460008201527f6869732066696c652773207368617265732e0000000000000000000000000000602082015250565b60006116b0603283610ed9565b91506116bb82611654565b604082019050919050565b600060208201905081810360008301526116df816116a3565b9050919050565b60006116f182611051565b915060ff8203611704576117036113f3565b5b60018201905091905056fea2646970667358221220574dc5b2506bb329d4719325b24fc216b93f5603adb3ad4bb973f9cbd6caea2364736f6c634300080d0033608060405234801561001057600080fd5b50611399806100206000396000f3fe608060405234801561001057600080fd5b50600436106100405760003560e01c806217cd8b146100455780631299ac8f14610063578063eff90d0514610093575b600080fd5b61004d6100c3565b60405161005a9190610770565b60405180910390f35b61007d60048036038101906100789190610804565b6100e7565b60405161008a9190610915565b60405180910390f35b6100ad60048036038101906100a89190610a90565b6103e6565b6040516100ba9190610770565b60405180910390f35b7fffffffffffffffffffffffffffffffffffffffffffffffffffffffffffffff4381565b60607fffffffffffffffffffffffffffffffffffffffffffffffffffffffffffffff43841061014b576040517f08c379a000000000000000000000000000000000000000000000000000000000815260040161014290610b49565b60405180910390fd5b60008260ff1667ffffffffffffffff81111561016a5761016961094d565b5b6040519080825280602002602001820160405280156101985781602001602082028036833780820191505090505b50905060008460ff1667ffffffffffffffff8111156101ba576101b961094d565b5b6040519080825280602002602001820160405280156101e85781602001602082028036833780820191505090505b5090508581600081518110610200576101ff610b69565b5b6020026020010181815250506000600190505b8560ff168160ff1610156102ad577fffffffffffffffffffffffffffffffffffffffffffffffffffffffffffffff438782604051602001610255929190610bef565b6040516020818303038152906040528051906020012060001c6102789190610c4a565b828260ff168151811061028e5761028d610b69565b5b60200260200101818152505080806102a590610caa565b915050610213565b5060005b8460ff168160ff1610156103d95760006001826102ce9190610cd3565b60ff1690506000848360ff16815181106102eb576102ea610b69565b5b60200260200101818152505060005b8760ff168160ff1610156103c4577fffffffffffffffffffffffffffffffffffffffffffffffffffffffffffffff4381836103359190610e3d565b858360ff168151811061034b5761034a610b69565b5b602002602001015161035d9190610e88565b868560ff168151811061037357610372610b69565b5b60200260200101516103859190610ee2565b61038f9190610c4a565b858460ff16815181106103a5576103a4610b69565b5b60200260200101818152505080806103bc90610caa565b9150506102fa565b505080806103d190610caa565b9150506102b1565b5081925050509392505050565b60008160ff168351101561042f576040517f08c379a000000000000000000000000000000000000000000000000000000000815260040161042690610f84565b60405180910390fd5b6000805b8360ff168160ff16101561061b576000858260ff168151811061045957610458610b69565b5b6020026020010151905060006001905060006001905060005b8760ff168160ff161015610597578060ff168560ff1614610584576000898260ff16815181106104a5576104a4610b69565b5b602002602001015190507fffffffffffffffffffffffffffffffffffffffffffffffffffffffffffffff43817fffffffffffffffffffffffffffffffffffffffffffffffffffffffffffffff43866104fd9190610e88565b6105079190610ee2565b6105119190610c4a565b93507fffffffffffffffffffffffffffffffffffffffffffffffffffffffffffffff43817fffffffffffffffffffffffffffffffffffffffffffffffffffffffffffffff43876105619190610ee2565b61056b9190610fa4565b846105769190610e88565b6105809190610c4a565b9250505b808061058f90610caa565b915050610472565b507fffffffffffffffffffffffffffffffffffffffffffffffffffffffffffffff436105e3827fffffffffffffffffffffffffffffffffffffffffffffffffffffffffffffff43610626565b836105ee9190610e88565b866105f99190610ee2565b6106039190610c4a565b9450505050808061061390610caa565b915050610433565b508091505092915050565b600080821161066a576040517f08c379a000000000000000000000000000000000000000000000000000000000815260040161066190611024565b60405180910390fd5b60008311801561067957508183105b6106b8576040517f08c379a00000000000000000000000000000000000000000000000000000000081526004016106af90611090565b60405180910390fd5b600080600080859050600087905060009450600193508192505b600181131561073157600082826106e991906110ba565b90508283826106f89190611124565b83610703919061123b565b80945081935050508485826107189190611124565b87610723919061123b565b8096508197505050506106d2565b600084121561074957868461074691906112cf565b93505b839550505050505092915050565b6000819050919050565b61076a81610757565b82525050565b60006020820190506107856000830184610761565b92915050565b6000604051905090565b600080fd5b600080fd5b6107a881610757565b81146107b357600080fd5b50565b6000813590506107c58161079f565b92915050565b600060ff82169050919050565b6107e1816107cb565b81146107ec57600080fd5b50565b6000813590506107fe816107d8565b92915050565b60008060006060848603121561081d5761081c610795565b5b600061082b868287016107b6565b935050602061083c868287016107ef565b925050604061084d868287016107ef565b9150509250925092565b600081519050919050565b600082825260208201905092915050565b6000819050602082019050919050565b61088c81610757565b82525050565b600061089e8383610883565b60208301905092915050565b6000602082019050919050565b60006108c282610857565b6108cc8185610862565b93506108d783610873565b8060005b838110156109085781516108ef8882610892565b97506108fa836108aa565b9250506001810190506108db565b5085935050505092915050565b6000602082019050818103600083015261092f81846108b7565b905092915050565b600080fd5b6000601f19601f8301169050919050565b7f4e487b7100000000000000000000000000000000000000000000000000000000600052604160045260246000fd5b6109858261093c565b810181811067ffffffffffffffff821117156109a4576109a361094d565b5b80604052505050565b60006109b761078b565b90506109c3828261097c565b919050565b600067ffffffffffffffff8211156109e3576109e261094d565b5b602082029050602081019050919050565b600080fd5b6000610a0c610a07846109c8565b6109ad565b90508083825260208201905060208402830185811115610a2f57610a2e6109f4565b5b835b81811015610a585780610a4488826107b6565b845260208401935050602081019050610a31565b5050509392505050565b600082601f830112610a7757610a76610937565b5b8135610a878482602086016109f9565b91505092915050565b60008060408385031215610aa757610aa6610795565b5b600083013567ffffffffffffffff811115610ac557610ac461079a565b5b610ad185828601610a62565b9250506020610ae2858286016107ef565b9150509250929050565b600082825260208201905092915050565b7f5365637265742065786365656473207072696d65206d6f64756c757300000000600082015250565b6000610b33601c83610aec565b9150610b3e82610afd565b602082019050919050565b60006020820190508181036000830152610b6281610b26565b9050919050565b7f4e487b7100000000000000000000000000000000000000000000000000000000600052603260045260246000fd5b6000819050919050565b610bb3610bae82610757565b610b98565b82525050565b60008160f81b9050919050565b6000610bd182610bb9565b9050919050565b610be9610be4826107cb565b610bc6565b82525050565b6000610bfb8285610ba2565b602082019150610c0b8284610bd8565b6001820191508190509392505050565b7f4e487b7100000000000000000000000000000000000000000000000000000000600052601260045260246000fd5b6000610c5582610757565b9150610c6083610757565b925082610c7057610c6f610c1b565b5b828206905092915050565b7f4e487b7100000000000000000000000000000000000000000000000000000000600052601160045260246000fd5b6000610cb5826107cb565b915060ff8203610cc857610cc7610c7b565b5b600182019050919050565b6000610cde826107cb565b9150610ce9836107cb565b92508260ff03821115610cff57610cfe610c7b565b5b828201905092915050565b60008160011c9050919050565b6000808291508390505b6001851115610d6157808604811115610d3d57610d3c610c7b565b5b6001851615610d4c5780820291505b8081029050610d5a85610d0a565b9450610d21565b94509492505050565b600082610d7a5760019050610e36565b81610d885760009050610e36565b8160018114610d9e5760028114610da857610dd7565b6001915050610e36565b60ff841115610dba57610db9610c7b565b5b8360020a915084821115610dd157610dd0610c7b565b5b50610e36565b5060208310610133831016604e8410600b8410161715610e0c5782820a905083811115610e0757610e06610c7b565b5b610e36565b610e198484846001610d17565b92509050818404811115610e3057610e2f610c7b565b5b81810290505b9392505050565b6000610e4882610757565b9150610e53836107cb565b9250610e807fffffffffffffffffffffffffffffffffffffffffffffffffffffffffffffffff8484610d6a565b905092915050565b6000610e9382610757565b9150610e9e83610757565b9250817fffffffffffffffffffffffffffffffffffffffffffffffffffffffffffffffff0483118215151615610ed757610ed6610c7b565b5b828202905092915050565b6000610eed82610757565b9150610ef883610757565b9250827fffffffffffffffffffffffffffffffffffffffffffffffffffffffffffffffff03821115610f2d57610f2c610c7b565b5b828201905092915050565b7f4e6f7420656e6f756768207368617265732070726f7669646564000000000000600082015250565b6000610f6e601a83610aec565b9150610f7982610f38565b602082019050919050565b60006020820190508181036000830152610f9d81610f61565b9050919050565b6000610faf82610757565b9150610fba83610757565b925082821015610fcd57610fcc610c7b565b5b828203905092915050565b7f4d6f64756c7573206d75737420626520706f7369746976650000000000000000600082015250565b600061100e601883610aec565b915061101982610fd8565b602082019050919050565b6000602082019050818103600083015261103d81611001565b9050919050565b7f496e76616c696420696e70757400000000000000000000000000000000000000600082015250565b600061107a600d83610aec565b915061108582611044565b602082019050919050565b600060208201905081810360008301526110a98161106d565b9050919050565b6000819050919050565b60006110c5826110b0565b91506110d0836110b0565b9250826110e0576110df610c1b565b5b600160000383147f80000000000000000000000000000000000000000000000000000000000000008314161561111957611118610c7b565b5b828205905092915050565b600061112f826110b0565b915061113a836110b0565b9250827f7fffffffffffffffffffffffffffffffffffffffffffffffffffffffffffffff048211600084136000841316161561117957611178610c7b565b5b817f800000000000000000000000000000000000000000000000000000000000000005831260008412600084131616156111b6576111b5610c7b565b5b827f800000000000000000000000000000000000000000000000000000000000000005821260008413600084121616156111f3576111f2610c7b565b5b827f7fffffffffffffffffffffffffffffffffffffffffffffffffffffffffffffff05821260008412600084121616156112305761122f610c7b565b5b828202905092915050565b6000611246826110b0565b9150611251836110b0565b9250827f80000000000000000000000000000000000000000000000000000000000000000182126000841215161561128c5761128b610c7b565b5b827f7fffffffffffffffffffffffffffffffffffffffffffffffffffffffffffffff0182136000841216156112c4576112c3610c7b565b5b828203905092915050565b60006112da826110b0565b91506112e5836110b0565b9250817f7fffffffffffffffffffffffffffffffffffffffffffffffffffffffffffffff038313600083121516156113205761131f610c7b565b5b817f800000000000000000000000000000000000000000000000000000000000000003831260008312161561135857611357610c7b565b5b82820190509291505056fea26469706673582212209a822d7bcf5ada89a1b384dc57279aaa9e19020ba5233a0606646e9a0ed9411764736f6c634300080d0033",
  "immutableReferences": {},
  "source": "// SPDX-License-Identifier: MIT\npragma solidity ^0.8.13;\nimport \"./ShamirSecretSharing.sol\";\n\ncontract FileStorage {\n    struct File {\n        string name;\n        uint8 threshold; // Threshold for Shamir's Secret Sharing (4)\n        uint8 numShares; // Number of shares for Shamir's Secret Sharing (4)\n        uint256[] contentShares; // Shamir's Secret Sharing shares of content (4 shares)\n        address owner;\n    }\n\n    File[] public files;\n    mapping(address => uint[]) private ownerIndexes;\n    uint256 public fileId;\n\n    uint8 constant public THRESHOLD = 2; // Minimum number of shares to reconstruct\n    uint8 constant public TOTAL_SHARES = 3; // Total number of shares to generate\n\n    // Initialize the Shamir's Secret Sharing contract\n    ShamirSecretSharing public sss;\n\n    constructor() {\n        fileId = 0;\n        sss = new ShamirSecretSharing();\n    }\n\n    function addFile(string memory name, string memory content) public {\n\n        uint256 index = files.length;\n\n        // Hash the content using SHA-256\n        bytes32 contentHash = sha256(bytes(content));\n\n        // Split the content hash into shares using the ShamirSecretSharing contract\n        uint256[] memory contentShares = sss.splitSecret(uint256(contentHash), THRESHOLD, TOTAL_SHARES);\n\n        files.push(File(name, THRESHOLD, TOTAL_SHARES, contentShares, msg.sender));\n        ownerIndexes[msg.sender].push(index);\n        fileId++;\n    }\n\n    function getFile(uint256 _fileId) public view returns (string memory name, string memory content) {\n        require(_fileId < files.length, \"File does not exist\");\n        require(msg.sender == files[_fileId].owner, \"You are not authorized to view this file.\");\n\n        // Retrieve the content shares from the file\n        uint256[] memory contentShares = files[_fileId].contentShares;\n\n        // Reconstruct the content using the shares\n        uint256 secret = sss.combineShares(contentShares, THRESHOLD);\n        string memory reconstructedContent = bytes32ToString(bytes32(secret));\n\n        return (files[_fileId].name, reconstructedContent);\n    }\n\n    // Utility function to convert bytes32 to a string\n    function bytes32ToString(bytes32 _bytes32) internal pure returns (string memory) {\n        uint8 i = 0;\n        while (i < 32 && _bytes32[i] != 0) {\n            i++;\n        }\n        bytes memory bytesArray = new bytes(i);\n        for (i = 0; i < 32 && _bytes32[i] != 0; i++) {\n            bytesArray[i] = _bytes32[i];\n        }\n        return string(bytesArray);\n    }\n\n    // Function to retrieve the shares for a file\n    function getFileShares(uint256 _fileId) public view returns (uint256[] memory) {\n        require(_fileId < files.length, \"File does not exist\");\n        require(msg.sender == files[_fileId].owner, \"You are not authorized to view this file's shares.\");\n        return files[_fileId].contentShares;\n    }\n}",
  "sourcePath": "/home/aurel/Disertatie/Truffle/contracts/FileStorage.sol",
  "compiler": {
    "name": "solc",
    "version": "0.8.13+commit.abaa5c0e.Emscripten.clang"
  },
  "schemaVersion": "3.4.16",
  "updatedAt": "2023-10-14T19:37:28.952Z",
  "networkType": "ethereum",
  "devdoc": {
    "kind": "dev",
    "methods": {},
    "version": 1
  },
  "userdoc": {
    "kind": "user",
    "methods": {},
    "version": 1
  }
}