{
  "contractName": "FileManagement",
  "abi": [
    {
      "inputs": [
        {
          "internalType": "uint256",
          "name": "",
          "type": "uint256"
        }
      ],
      "name": "files",
      "outputs": [
        {
          "internalType": "string",
          "name": "name",
          "type": "string"
        },
        {
          "internalType": "address",
          "name": "owner",
          "type": "address"
        }
      ],
      "stateMutability": "view",
      "type": "function",
      "constant": true
    },
    {
      "inputs": [],
      "name": "getFileNames",
      "outputs": [
        {
          "internalType": "string[]",
          "name": "",
          "type": "string[]"
        }
      ],
      "stateMutability": "view",
      "type": "function",
      "constant": true
    },
    {
      "inputs": [],
      "name": "getFiles",
      "outputs": [
        {
          "components": [
            {
              "internalType": "string",
              "name": "name",
              "type": "string"
            },
            {
              "internalType": "string[][]",
              "name": "fileIpfsHashes",
              "type": "string[][]"
            },
            {
              "internalType": "string[]",
              "name": "hashes",
              "type": "string[]"
            },
            {
              "internalType": "address",
              "name": "owner",
              "type": "address"
            },
            {
              "internalType": "string[]",
              "name": "timestamps",
              "type": "string[]"
            }
          ],
          "internalType": "struct FileManagement.File[]",
          "name": "",
          "type": "tuple[]"
        }
      ],
      "stateMutability": "view",
      "type": "function",
      "constant": true
    },
    {
      "inputs": [],
      "name": "getAllFiles",
      "outputs": [
        {
          "components": [
            {
              "internalType": "string",
              "name": "name",
              "type": "string"
            },
            {
              "internalType": "string[][]",
              "name": "fileIpfsHashes",
              "type": "string[][]"
            },
            {
              "internalType": "string[]",
              "name": "hashes",
              "type": "string[]"
            },
            {
              "internalType": "address",
              "name": "owner",
              "type": "address"
            },
            {
              "internalType": "string[]",
              "name": "timestamps",
              "type": "string[]"
            }
          ],
          "internalType": "struct FileManagement.File[]",
          "name": "",
          "type": "tuple[]"
        }
      ],
      "stateMutability": "view",
      "type": "function",
      "constant": true
    },
    {
      "inputs": [
        {
          "internalType": "string",
          "name": "name",
          "type": "string"
        }
      ],
      "name": "getFile",
      "outputs": [
        {
          "components": [
            {
              "internalType": "string",
              "name": "name",
              "type": "string"
            },
            {
              "internalType": "string[][]",
              "name": "fileIpfsHashes",
              "type": "string[][]"
            },
            {
              "internalType": "string[]",
              "name": "hashes",
              "type": "string[]"
            },
            {
              "internalType": "address",
              "name": "owner",
              "type": "address"
            },
            {
              "internalType": "string[]",
              "name": "timestamps",
              "type": "string[]"
            }
          ],
          "internalType": "struct FileManagement.File",
          "name": "",
          "type": "tuple"
        }
      ],
      "stateMutability": "view",
      "type": "function",
      "constant": true
    },
    {
      "inputs": [
        {
          "internalType": "string",
          "name": "name",
          "type": "string"
        },
        {
          "internalType": "string[]",
          "name": "ipfsHashes",
          "type": "string[]"
        },
        {
          "internalType": "string",
          "name": "hash",
          "type": "string"
        },
        {
          "internalType": "string",
          "name": "timeStamp",
          "type": "string"
        }
      ],
      "name": "addFile",
      "outputs": [],
      "stateMutability": "nonpayable",
      "type": "function"
    },
    {
      "inputs": [
        {
          "internalType": "string",
          "name": "name",
          "type": "string"
        },
        {
          "internalType": "address",
          "name": "account",
          "type": "address"
        }
      ],
      "name": "shareAccessToFile",
      "outputs": [],
      "stateMutability": "nonpayable",
      "type": "function"
    },
    {
      "inputs": [
        {
          "internalType": "string",
          "name": "name",
          "type": "string"
        },
        {
          "internalType": "address",
          "name": "account",
          "type": "address"
        }
      ],
      "name": "revokeAccessToFile",
      "outputs": [],
      "stateMutability": "nonpayable",
      "type": "function"
    },
    {
      "inputs": [
        {
          "internalType": "string",
          "name": "name",
          "type": "string"
        }
      ],
      "name": "removeFile",
      "outputs": [],
      "stateMutability": "nonpayable",
      "type": "function"
    },
    {
      "inputs": [
        {
          "internalType": "string",
          "name": "name",
          "type": "string"
        },
        {
          "internalType": "address",
          "name": "accountAddress",
          "type": "address"
        },
        {
          "internalType": "string",
          "name": "privateKey",
          "type": "string"
        }
      ],
      "name": "createAccount",
      "outputs": [
        {
          "components": [
            {
              "internalType": "string",
              "name": "name",
              "type": "string"
            },
            {
              "internalType": "address",
              "name": "accountAddress",
              "type": "address"
            },
            {
              "internalType": "string",
              "name": "privateKey",
              "type": "string"
            },
            {
              "internalType": "bool",
              "name": "exists",
              "type": "bool"
            }
          ],
          "internalType": "struct FileManagement.Account",
          "name": "newAccount",
          "type": "tuple"
        }
      ],
      "stateMutability": "nonpayable",
      "type": "function"
    },
    {
      "inputs": [
        {
          "internalType": "string",
          "name": "name",
          "type": "string"
        }
      ],
      "name": "deleteAccount",
      "outputs": [],
      "stateMutability": "nonpayable",
      "type": "function"
    },
    {
      "inputs": [],
      "name": "getAccounts",
      "outputs": [
        {
          "internalType": "string[]",
          "name": "accountsList",
          "type": "string[]"
        }
      ],
      "stateMutability": "view",
      "type": "function",
      "constant": true
    },
    {
      "inputs": [
        {
          "internalType": "string",
          "name": "name",
          "type": "string"
        }
      ],
      "name": "getAccount",
      "outputs": [
        {
          "components": [
            {
              "internalType": "string",
              "name": "name",
              "type": "string"
            },
            {
              "internalType": "address",
              "name": "accountAddress",
              "type": "address"
            },
            {
              "internalType": "string",
              "name": "privateKey",
              "type": "string"
            },
            {
              "internalType": "bool",
              "name": "exists",
              "type": "bool"
            }
          ],
          "internalType": "struct FileManagement.Account",
          "name": "accountsList",
          "type": "tuple"
        }
      ],
      "stateMutability": "view",
      "type": "function",
      "constant": true
    },
    {
      "inputs": [],
      "name": "getAccountsInfo",
      "outputs": [
        {
          "components": [
            {
              "internalType": "string",
              "name": "name",
              "type": "string"
            },
            {
              "internalType": "address",
              "name": "accountAddress",
              "type": "address"
            },
            {
              "internalType": "string",
              "name": "privateKey",
              "type": "string"
            },
            {
              "internalType": "bool",
              "name": "exists",
              "type": "bool"
            }
          ],
          "internalType": "struct FileManagement.Account[]",
          "name": "accountsList",
          "type": "tuple[]"
        }
      ],
      "stateMutability": "view",
      "type": "function",
      "constant": true
    }
  ],
  "bytecode": "0x608060405234801561001057600080fd5b50614980806100206000396000f3fe608060405234801561001057600080fd5b50600436106100ea5760003560e01c8063d5e363f91161008c578063f1afe04d11610066578063f1afe04d1461024b578063f4c714b414610267578063fd6f62a314610298578063ff24b5d5146102b4576100ea565b8063d5e363f9146101e3578063e0876aa8146101ff578063ea4518e51461022f576100ea565b80634534c6ff116100c85780634534c6ff1461016d5780637c3e165e1461018b5780638a48ac03146101a7578063bfcd5289146101c5576100ea565b80632da96d73146100ef578063331ef9761461010d5780634518f6b31461013d575b600080fd5b6100f76102d2565b6040516101049190613807565b60405180910390f35b6101276004803603810190610122919061399e565b6108ab565b6040516101349190613aae565b60405180910390f35b61015760048036038101906101529190613ad0565b610c09565b6040516101649190613aae565b60405180910390f35b610175610fe4565b6040516101829190613c45565b60405180910390f35b6101a560048036038101906101a09190613c67565b611268565b005b6101af611430565b6040516101bc9190613d49565b60405180910390f35b6101cd611509565b6040516101da9190613d49565b60405180910390f35b6101fd60048036038101906101f89190613ad0565b61179d565b005b61021960048036038101906102149190613ad0565b611b52565b6040516102269190613df6565b60405180910390f35b61024960048036038101906102449190613c67565b611ff8565b005b61026560048036038101906102609190613ad0565b61221a565b005b610281600480360381019061027c9190613e4e565b6125a2565b60405161028f929190613ed4565b60405180910390f35b6102b260048036038101906102ad9190613fea565b61267e565b005b6102bc612c43565b6040516102c99190613807565b60405180910390f35b606060008080549050905060008167ffffffffffffffff8111156102f9576102f8613847565b5b60405190808252806020026020018201604052801561033257816020015b61031f61305c565b8152602001906001900390816103175790505b5090506000805b838110156107f0576000600160003373ffffffffffffffffffffffffffffffffffffffff1673ffffffffffffffffffffffffffffffffffffffff16815260200190815260200160002060008381548110610396576103956140c1565b5b90600052602060002090600502016000016040516103b491906141ef565b90815260200160405180910390205411156107dd57600081815481106103dd576103dc6140c1565b5b90600052602060002090600502016040518060a00160405290816000820180546104069061411f565b80601f01602080910402602001604051908101604052809291908181526020018280546104329061411f565b801561047f5780601f106104545761010080835404028352916020019161047f565b820191906000526020600020905b81548152906001019060200180831161046257829003601f168201915b5050505050815260200160018201805480602002602001604051908101604052809291908181526020016000905b828210156105a057838290600052602060002001805480602002602001604051908101604052809291908181526020016000905b8282101561058d5783829060005260206000200180546105009061411f565b80601f016020809104026020016040519081016040528092919081815260200182805461052c9061411f565b80156105795780601f1061054e57610100808354040283529160200191610579565b820191906000526020600020905b81548152906001019060200180831161055c57829003601f168201915b5050505050815260200190600101906104e1565b50505050815260200190600101906104ad565b50505050815260200160028201805480602002602001604051908101604052809291908181526020016000905b828210156106795783829060005260206000200180546105ec9061411f565b80601f01602080910402602001604051908101604052809291908181526020018280546106189061411f565b80156106655780601f1061063a57610100808354040283529160200191610665565b820191906000526020600020905b81548152906001019060200180831161064857829003601f168201915b5050505050815260200190600101906105cd565b5050505081526020016003820160009054906101000a900473ffffffffffffffffffffffffffffffffffffffff1673ffffffffffffffffffffffffffffffffffffffff1673ffffffffffffffffffffffffffffffffffffffff16815260200160048201805480602002602001604051908101604052809291908181526020016000905b828210156107a857838290600052602060002001805461071b9061411f565b80601f01602080910402602001604051908101604052809291908181526020018280546107479061411f565b80156107945780601f1061076957610100808354040283529160200191610794565b820191906000526020600020905b81548152906001019060200180831161077757829003601f168201915b5050505050815260200190600101906106fc565b50505050815250508383815181106107c3576107c26140c1565b5b602002602001018190525081806107d990614235565b9250505b80806107e890614235565b915050610339565b5060008167ffffffffffffffff81111561080d5761080c613847565b5b60405190808252806020026020018201604052801561084657816020015b61083361305c565b81526020019060019003908161082b5790505b50905060005b828110156108a057838181518110610867576108666140c1565b5b6020026020010151828281518110610882576108816140c1565b5b6020026020010181905250808061089890614235565b91505061084c565b508094505050505090565b6108b36130a1565b60006002856040516108c591906142ae565b90815260200160405180910390206040518060800160405290816000820180546108ee9061411f565b80601f016020809104026020016040519081016040528092919081815260200182805461091a9061411f565b80156109675780601f1061093c57610100808354040283529160200191610967565b820191906000526020600020905b81548152906001019060200180831161094a57829003601f168201915b505050505081526020016001820160009054906101000a900473ffffffffffffffffffffffffffffffffffffffff1673ffffffffffffffffffffffffffffffffffffffff1673ffffffffffffffffffffffffffffffffffffffff1681526020016002820180546109d69061411f565b80601f0160208091040260200160405190810160405280929190818152602001828054610a029061411f565b8015610a4f5780601f10610a2457610100808354040283529160200191610a4f565b820191906000526020600020905b815481529060010190602001808311610a3257829003601f168201915b505050505081526020016003820160009054906101000a900460ff1615151515815250509050600015158160600151151514610ac0576040517f08c379a0000000000000000000000000000000000000000000000000000000008152600401610ab790614311565b60405180910390fd5b600060405180608001604052808781526020018673ffffffffffffffffffffffffffffffffffffffff16815260200185815260200160011515815250905080600287604051610b0f91906142ae565b90815260200160405180910390206000820151816000019080519060200190610b399291906130e1565b5060208201518160010160006101000a81548173ffffffffffffffffffffffffffffffffffffffff021916908373ffffffffffffffffffffffffffffffffffffffff1602179055506040820151816002019080519060200190610b9d9291906130e1565b5060608201518160030160006101000a81548160ff021916908315150217905550905050600386908060018154018082558091505060019003906000526020600020016000909190919091509080519060200190610bfc9291906130e1565b5080925050509392505050565b610c116130a1565b6000600283604051610c2391906142ae565b9081526020016040518091039020604051806080016040529081600082018054610c4c9061411f565b80601f0160208091040260200160405190810160405280929190818152602001828054610c789061411f565b8015610cc55780601f10610c9a57610100808354040283529160200191610cc5565b820191906000526020600020905b815481529060010190602001808311610ca857829003601f168201915b505050505081526020016001820160009054906101000a900473ffffffffffffffffffffffffffffffffffffffff1673ffffffffffffffffffffffffffffffffffffffff1673ffffffffffffffffffffffffffffffffffffffff168152602001600282018054610d349061411f565b80601f0160208091040260200160405190810160405280929190818152602001828054610d609061411f565b8015610dad5780601f10610d8257610100808354040283529160200191610dad565b820191906000526020600020905b815481529060010190602001808311610d9057829003601f168201915b505050505081526020016003820160009054906101000a900460ff1615151515815250509050600115158160600151151514610e1e576040517f08c379a0000000000000000000000000000000000000000000000000000000008152600401610e159061437d565b60405180910390fd5b600283604051610e2e91906142ae565b9081526020016040518091039020604051806080016040529081600082018054610e579061411f565b80601f0160208091040260200160405190810160405280929190818152602001828054610e839061411f565b8015610ed05780601f10610ea557610100808354040283529160200191610ed0565b820191906000526020600020905b815481529060010190602001808311610eb357829003601f168201915b505050505081526020016001820160009054906101000a900473ffffffffffffffffffffffffffffffffffffffff1673ffffffffffffffffffffffffffffffffffffffff1673ffffffffffffffffffffffffffffffffffffffff168152602001600282018054610f3f9061411f565b80601f0160208091040260200160405190810160405280929190818152602001828054610f6b9061411f565b8015610fb85780601f10610f8d57610100808354040283529160200191610fb8565b820191906000526020600020905b815481529060010190602001808311610f9b57829003601f168201915b505050505081526020016003820160009054906101000a900460ff161515151581525050915050919050565b60606000600380549050905060008167ffffffffffffffff81111561100c5761100b613847565b5b60405190808252806020026020018201604052801561104557816020015b6110326130a1565b81526020019060019003908161102a5790505b50905060005b8281101561125f57600260038281548110611069576110686140c1565b5b9060005260206000200160405161108091906141ef565b90815260200160405180910390206040518060800160405290816000820180546110a99061411f565b80601f01602080910402602001604051908101604052809291908181526020018280546110d59061411f565b80156111225780601f106110f757610100808354040283529160200191611122565b820191906000526020600020905b81548152906001019060200180831161110557829003601f168201915b505050505081526020016001820160009054906101000a900473ffffffffffffffffffffffffffffffffffffffff1673ffffffffffffffffffffffffffffffffffffffff1673ffffffffffffffffffffffffffffffffffffffff1681526020016002820180546111919061411f565b80601f01602080910402602001604051908101604052809291908181526020018280546111bd9061411f565b801561120a5780601f106111df5761010080835404028352916020019161120a565b820191906000526020600020905b8154815290600101906020018083116111ed57829003601f168201915b505050505081526020016003820160009054906101000a900460ff161515151581525050828281518110611241576112406140c1565b5b6020026020010181905250808061125790614235565b91505061104b565b50809250505090565b6000600160003373ffffffffffffffffffffffffffffffffffffffff1673ffffffffffffffffffffffffffffffffffffffff168152602001908152602001600020836040516112b791906142ae565b90815260200160405180910390205490506000811161130b576040517f08c379a0000000000000000000000000000000000000000000000000000000008152600401611302906143e9565b60405180910390fd5b3373ffffffffffffffffffffffffffffffffffffffff1660006001836113319190614409565b81548110611342576113416140c1565b5b906000526020600020906005020160030160009054906101000a900473ffffffffffffffffffffffffffffffffffffffff1673ffffffffffffffffffffffffffffffffffffffff16146113ca576040517f08c379a00000000000000000000000000000000000000000000000000000000081526004016113c1906144af565b60405180910390fd5b6000600160008473ffffffffffffffffffffffffffffffffffffffff1673ffffffffffffffffffffffffffffffffffffffff1681526020019081526020016000208460405161141991906142ae565b908152602001604051809103902081905550505050565b60606003805480602002602001604051908101604052809291908181526020016000905b828210156115005783829060005260206000200180546114739061411f565b80601f016020809104026020016040519081016040528092919081815260200182805461149f9061411f565b80156114ec5780601f106114c1576101008083540402835291602001916114ec565b820191906000526020600020905b8154815290600101906020018083116114cf57829003601f168201915b505050505081526020019060010190611454565b50505050905090565b606060008080549050905060008167ffffffffffffffff8111156115305761152f613847565b5b60405190808252806020026020018201604052801561156357816020015b606081526020019060019003908161154e5790505b5090506000805b838110156116e8576000600160003373ffffffffffffffffffffffffffffffffffffffff1673ffffffffffffffffffffffffffffffffffffffff168152602001908152602001600020600083815481106115c7576115c66140c1565b5b90600052602060002090600502016000016040516115e591906141ef565b90815260200160405180910390205411156116d5576000818154811061160e5761160d6140c1565b5b9060005260206000209060050201600001805461162a9061411f565b80601f01602080910402602001604051908101604052809291908181526020018280546116569061411f565b80156116a35780601f10611678576101008083540402835291602001916116a3565b820191906000526020600020905b81548152906001019060200180831161168657829003601f168201915b50505050508383815181106116bb576116ba6140c1565b5b602002602001018190525081806116d190614235565b9250505b80806116e090614235565b91505061156a565b5060008167ffffffffffffffff81111561170557611704613847565b5b60405190808252806020026020018201604052801561173857816020015b60608152602001906001900390816117235790505b50905060005b8281101561179257838181518110611759576117586140c1565b5b6020026020010151828281518110611774576117736140c1565b5b6020026020010181905250808061178a90614235565b91505061173e565b508094505050505090565b60006002826040516117af91906142ae565b90815260200160405180910390206040518060800160405290816000820180546117d89061411f565b80601f01602080910402602001604051908101604052809291908181526020018280546118049061411f565b80156118515780601f1061182657610100808354040283529160200191611851565b820191906000526020600020905b81548152906001019060200180831161183457829003601f168201915b505050505081526020016001820160009054906101000a900473ffffffffffffffffffffffffffffffffffffffff1673ffffffffffffffffffffffffffffffffffffffff1673ffffffffffffffffffffffffffffffffffffffff1681526020016002820180546118c09061411f565b80601f01602080910402602001604051908101604052809291908181526020018280546118ec9061411f565b80156119395780601f1061190e57610100808354040283529160200191611939565b820191906000526020600020905b81548152906001019060200180831161191c57829003601f168201915b505050505081526020016003820160009054906101000a900460ff16151515158152505090506001151581606001511515146119aa576040517f08c379a00000000000000000000000000000000000000000000000000000000081526004016119a19061437d565b60405180910390fd5b60005b600380549050811015611b4d578280519060200120600382815481106119d6576119d56140c1565b5b906000526020600020016040516119ed919061456e565b604051809103902003611b3a5760008190505b6001600380549050611a129190614409565b811015611b08576003600182611a289190614585565b81548110611a3957611a386140c1565b5b9060005260206000200160038281548110611a5757611a566140c1565b5b90600052602060002001908054611a6d9061411f565b611a78929190613167565b50600284604051611a8991906142ae565b908152602001604051809103902060008082016000611aa891906131f4565b6001820160006101000a81549073ffffffffffffffffffffffffffffffffffffffff0219169055600282016000611adf91906131f4565b6003820160006101000a81549060ff021916905550508080611b0090614235565b915050611a00565b506003805480611b1b57611b1a6145db565b5b600190038181906000526020600020016000611b3791906131f4565b90555b8080611b4590614235565b9150506119ad565b505050565b611b5a61305c565b6000600160003373ffffffffffffffffffffffffffffffffffffffff1673ffffffffffffffffffffffffffffffffffffffff16815260200190815260200160002083604051611ba991906142ae565b908152602001604051809103902054905060008111611bfd576040517f08c379a0000000000000000000000000000000000000000000000000000000008152600401611bf4906143e9565b60405180910390fd5b6000600182611c0c9190614409565b81548110611c1d57611c1c6140c1565b5b90600052602060002090600502016040518060a0016040529081600082018054611c469061411f565b80601f0160208091040260200160405190810160405280929190818152602001828054611c729061411f565b8015611cbf5780601f10611c9457610100808354040283529160200191611cbf565b820191906000526020600020905b815481529060010190602001808311611ca257829003601f168201915b5050505050815260200160018201805480602002602001604051908101604052809291908181526020016000905b82821015611de057838290600052602060002001805480602002602001604051908101604052809291908181526020016000905b82821015611dcd578382906000526020600020018054611d409061411f565b80601f0160208091040260200160405190810160405280929190818152602001828054611d6c9061411f565b8015611db95780601f10611d8e57610100808354040283529160200191611db9565b820191906000526020600020905b815481529060010190602001808311611d9c57829003601f168201915b505050505081526020019060010190611d21565b5050505081526020019060010190611ced565b50505050815260200160028201805480602002602001604051908101604052809291908181526020016000905b82821015611eb9578382906000526020600020018054611e2c9061411f565b80601f0160208091040260200160405190810160405280929190818152602001828054611e589061411f565b8015611ea55780601f10611e7a57610100808354040283529160200191611ea5565b820191906000526020600020905b815481529060010190602001808311611e8857829003601f168201915b505050505081526020019060010190611e0d565b5050505081526020016003820160009054906101000a900473ffffffffffffffffffffffffffffffffffffffff1673ffffffffffffffffffffffffffffffffffffffff1673ffffffffffffffffffffffffffffffffffffffff16815260200160048201805480602002602001604051908101604052809291908181526020016000905b82821015611fe8578382906000526020600020018054611f5b9061411f565b80601f0160208091040260200160405190810160405280929190818152602001828054611f879061411f565b8015611fd45780601f10611fa957610100808354040283529160200191611fd4565b820191906000526020600020905b815481529060010190602001808311611fb757829003601f168201915b505050505081526020019060010190611f3c565b5050505081525050915050919050565b6000600160003373ffffffffffffffffffffffffffffffffffffffff1673ffffffffffffffffffffffffffffffffffffffff1681526020019081526020016000208360405161204791906142ae565b90815260200160405180910390205490506000811161209b576040517f08c379a00000000000000000000000000000000000000000000000000000000081526004016120929061467c565b60405180910390fd5b3373ffffffffffffffffffffffffffffffffffffffff1660006001836120c19190614409565b815481106120d2576120d16140c1565b5b906000526020600020906005020160030160009054906101000a900473ffffffffffffffffffffffffffffffffffffffff1673ffffffffffffffffffffffffffffffffffffffff161461215a576040517f08c379a0000000000000000000000000000000000000000000000000000000008152600401612151906146e8565b60405180910390fd5b600160003373ffffffffffffffffffffffffffffffffffffffff1673ffffffffffffffffffffffffffffffffffffffff168152602001908152602001600020836040516121a791906142ae565b908152602001604051809103902054600160008473ffffffffffffffffffffffffffffffffffffffff1673ffffffffffffffffffffffffffffffffffffffff1681526020019081526020016000208460405161220391906142ae565b908152602001604051809103902081905550505050565b6000600160003373ffffffffffffffffffffffffffffffffffffffff1673ffffffffffffffffffffffffffffffffffffffff1681526020019081526020016000208260405161226991906142ae565b9081526020016040518091039020549050600081116122bd576040517f08c379a00000000000000000000000000000000000000000000000000000000081526004016122b4906143e9565b60405180910390fd5b3373ffffffffffffffffffffffffffffffffffffffff1660006001836122e39190614409565b815481106122f4576122f36140c1565b5b906000526020600020906005020160030160009054906101000a900473ffffffffffffffffffffffffffffffffffffffff1673ffffffffffffffffffffffffffffffffffffffff161461237c576040517f08c379a000000000000000000000000000000000000000000000000000000000815260040161237390614754565b60405180910390fd5b6000600160003373ffffffffffffffffffffffffffffffffffffffff1673ffffffffffffffffffffffffffffffffffffffff168152602001908152602001600020836040516123cb91906142ae565b908152602001604051809103902081905550600067ffffffffffffffff8111156123f8576123f7613847565b5b60405190808252806020026020018201604052801561243157816020015b61241e613234565b8152602001906001900390816124165790505b5060006001836124419190614409565b81548110612452576124516140c1565b5b9060005260206000209060050201600101908051906020019061247692919061325b565b50600067ffffffffffffffff81111561249257612491613847565b5b6040519080825280602002602001820160405280156124c557816020015b60608152602001906001900390816124b05790505b5060006001836124d59190614409565b815481106124e6576124e56140c1565b5b9060005260206000209060050201600201908051906020019061250a9291906132b6565b50600067ffffffffffffffff81111561252657612525613847565b5b6040519080825280601f01601f1916602001820160405280156125585781602001600182028036833780820191505090505b5060006001836125689190614409565b81548110612579576125786140c1565b5b9060005260206000209060050201600001908051906020019061259d9291906130e1565b505050565b600081815481106125b257600080fd5b90600052602060002090600502016000915090508060000180546125d59061411f565b80601f01602080910402602001604051908101604052809291908181526020018280546126019061411f565b801561264e5780601f106126235761010080835404028352916020019161264e565b820191906000526020600020905b81548152906001019060200180831161263157829003601f168201915b5050505050908060030160009054906101000a900473ffffffffffffffffffffffffffffffffffffffff16905082565b60008490506000839050600083905060038651146126d1576040517f08c379a00000000000000000000000000000000000000000000000000000000081526004016126c8906147e6565b60405180910390fd5b6000835111612715576040517f08c379a000000000000000000000000000000000000000000000000000000000815260040161270c90614852565b60405180910390fd5b6000825111612759576040517f08c379a0000000000000000000000000000000000000000000000000000000008152600401612750906148be565b60405180910390fd5b600081511161279d576040517f08c379a00000000000000000000000000000000000000000000000000000000081526004016127949061492a565b60405180910390fd5b6000600160003373ffffffffffffffffffffffffffffffffffffffff1673ffffffffffffffffffffffffffffffffffffffff168152602001908152602001600020886040516127ec91906142ae565b9081526020016040518091039020549050600081111561294c5760006001826128159190614409565b81548110612826576128256140c1565b5b9060005260206000209060050201600101879080600181540180825580915050600190039060005260206000200160009091909190915090805190602001906128709291906132b6565b5060006001826128809190614409565b81548110612891576128906140c1565b5b9060005260206000209060050201600201869080600181540180825580915050600190039060005260206000200160009091909190915090805190602001906128db9291906130e1565b5060006001826128eb9190614409565b815481106128fc576128fb6140c1565b5b9060005260206000209060050201600401859080600181540180825580915050600190039060005260206000200160009091909190915090805190602001906129469291906130e1565b50612c39565b6000600167ffffffffffffffff81111561296957612968613847565b5b60405190808252806020026020018201604052801561299c57816020015b60608152602001906001900390816129875790505b5090506000600167ffffffffffffffff8111156129bc576129bb613847565b5b6040519080825280602002602001820160405280156129ef57816020015b60608152602001906001900390816129da5790505b5090506000600167ffffffffffffffff811115612a0f57612a0e613847565b5b604051908082528060200260200182016040528015612a4257816020015b6060815260200190600190039081612a2d5790505b5090508781600081518110612a5a57612a596140c1565b5b60200260200101819052508882600081518110612a7a57612a796140c1565b5b60200260200101819052508983600081518110612a9a57612a996140c1565b5b602002602001018190525060006040518060a001604052808d81526020018581526020018481526020013373ffffffffffffffffffffffffffffffffffffffff16815260200183815250905060008190806001815401808255809150506001900390600052602060002090600502016000909190919091506000820151816000019080519060200190612b2e9291906130e1565b506020820151816001019080519060200190612b4b929190613316565b506040820151816002019080519060200190612b689291906132b6565b5060608201518160030160006101000a81548173ffffffffffffffffffffffffffffffffffffffff021916908373ffffffffffffffffffffffffffffffffffffffff1602179055506080820151816004019080519060200190612bcc9291906132b6565b505050600080549050600160003373ffffffffffffffffffffffffffffffffffffffff1673ffffffffffffffffffffffffffffffffffffffff1681526020019081526020016000208d604051612c2291906142ae565b908152602001604051809103902081905550505050505b5050505050505050565b60606000805480602002602001604051908101604052809291908181526020016000905b8282101561305357838290600052602060002090600502016040518060a0016040529081600082018054612c9a9061411f565b80601f0160208091040260200160405190810160405280929190818152602001828054612cc69061411f565b8015612d135780601f10612ce857610100808354040283529160200191612d13565b820191906000526020600020905b815481529060010190602001808311612cf657829003601f168201915b5050505050815260200160018201805480602002602001604051908101604052809291908181526020016000905b82821015612e3457838290600052602060002001805480602002602001604051908101604052809291908181526020016000905b82821015612e21578382906000526020600020018054612d949061411f565b80601f0160208091040260200160405190810160405280929190818152602001828054612dc09061411f565b8015612e0d5780601f10612de257610100808354040283529160200191612e0d565b820191906000526020600020905b815481529060010190602001808311612df057829003601f168201915b505050505081526020019060010190612d75565b5050505081526020019060010190612d41565b50505050815260200160028201805480602002602001604051908101604052809291908181526020016000905b82821015612f0d578382906000526020600020018054612e809061411f565b80601f0160208091040260200160405190810160405280929190818152602001828054612eac9061411f565b8015612ef95780601f10612ece57610100808354040283529160200191612ef9565b820191906000526020600020905b815481529060010190602001808311612edc57829003601f168201915b505050505081526020019060010190612e61565b5050505081526020016003820160009054906101000a900473ffffffffffffffffffffffffffffffffffffffff1673ffffffffffffffffffffffffffffffffffffffff1673ffffffffffffffffffffffffffffffffffffffff16815260200160048201805480602002602001604051908101604052809291908181526020016000905b8282101561303c578382906000526020600020018054612faf9061411f565b80601f0160208091040260200160405190810160405280929190818152602001828054612fdb9061411f565b80156130285780601f10612ffd57610100808354040283529160200191613028565b820191906000526020600020905b81548152906001019060200180831161300b57829003601f168201915b505050505081526020019060010190612f90565b505050508152505081526020019060010190612c67565b50505050905090565b6040518060a00160405280606081526020016060815260200160608152602001600073ffffffffffffffffffffffffffffffffffffffff168152602001606081525090565b604051806080016040528060608152602001600073ffffffffffffffffffffffffffffffffffffffff168152602001606081526020016000151581525090565b8280546130ed9061411f565b90600052602060002090601f01602090048101928261310f5760008555613156565b82601f1061312857805160ff1916838001178555613156565b82800160010185558215613156579182015b8281111561315557825182559160200191906001019061313a565b5b5090506131639190613376565b5090565b8280546131739061411f565b90600052602060002090601f01602090048101928261319557600085556131e3565b82601f106131a657805485556131e3565b828001600101855582156131e357600052602060002091601f016020900482015b828111156131e25782548255916001019190600101906131c7565b5b5090506131f09190613376565b5090565b5080546132009061411f565b6000825580601f106132125750613231565b601f0160209004906000526020600020908101906132309190613376565b5b50565b60405180606001604052806003905b60608152602001906001900390816132435790505090565b8280548282559060005260206000209081019282156132a5579160200282015b828111156132a457825182906003613294929190613393565b509160200191906001019061327b565b5b5090506132b291906133f3565b5090565b828054828255906000526020600020908101928215613305579160200282015b828111156133045782518290805190602001906132f49291906130e1565b50916020019190600101906132d6565b5b5090506133129190613417565b5090565b828054828255906000526020600020908101928215613365579160200282015b828111156133645782518290805190602001906133549291906132b6565b5091602001919060010190613336565b5b50905061337291906133f3565b5090565b5b8082111561338f576000816000905550600101613377565b5090565b8280548282559060005260206000209081019282156133e2579160200282015b828111156133e15782518290805190602001906133d19291906130e1565b50916020019190600101906133b3565b5b5090506133ef9190613417565b5090565b5b80821115613413576000818161340a919061343b565b506001016133f4565b5090565b5b80821115613437576000818161342e91906131f4565b50600101613418565b5090565b50805460008255906000526020600020908101906134599190613417565b50565b600081519050919050565b600082825260208201905092915050565b6000819050602082019050919050565b600081519050919050565b600082825260208201905092915050565b60005b838110156134c25780820151818401526020810190506134a7565b838111156134d1576000848401525b50505050565b6000601f19601f8301169050919050565b60006134f382613488565b6134fd8185613493565b935061350d8185602086016134a4565b613516816134d7565b840191505092915050565b600081519050919050565b600082825260208201905092915050565b6000819050602082019050919050565b600081519050919050565b600082825260208201905092915050565b6000819050602082019050919050565b600061358583836134e8565b905092915050565b6000602082019050919050565b60006135a58261354d565b6135af8185613558565b9350836020820285016135c185613569565b8060005b858110156135fd57848403895281516135de8582613579565b94506135e98361358d565b925060208a019950506001810190506135c5565b50829750879550505050505092915050565b600061361b838361359a565b905092915050565b6000602082019050919050565b600061363b82613521565b613645818561352c565b9350836020820285016136578561353d565b8060005b858110156136935784840389528151613674858261360f565b945061367f83613623565b925060208a0199505060018101905061365b565b50829750879550505050505092915050565b600073ffffffffffffffffffffffffffffffffffffffff82169050919050565b60006136d0826136a5565b9050919050565b6136e0816136c5565b82525050565b600060a083016000830151848203600086015261370382826134e8565b9150506020830151848203602086015261371d8282613630565b91505060408301518482036040860152613737828261359a565b915050606083015161374c60608601826136d7565b5060808301518482036080860152613764828261359a565b9150508091505092915050565b600061377d83836136e6565b905092915050565b6000602082019050919050565b600061379d8261345c565b6137a78185613467565b9350836020820285016137b985613478565b8060005b858110156137f557848403895281516137d68582613771565b94506137e183613785565b925060208a019950506001810190506137bd565b50829750879550505050505092915050565b600060208201905081810360008301526138218184613792565b905092915050565b6000604051905090565b600080fd5b600080fd5b600080fd5b600080fd5b7f4e487b7100000000000000000000000000000000000000000000000000000000600052604160045260246000fd5b61387f826134d7565b810181811067ffffffffffffffff8211171561389e5761389d613847565b5b80604052505050565b60006138b1613829565b90506138bd8282613876565b919050565b600067ffffffffffffffff8211156138dd576138dc613847565b5b6138e6826134d7565b9050602081019050919050565b82818337600083830152505050565b6000613915613910846138c2565b6138a7565b90508281526020810184848401111561393157613930613842565b5b61393c8482856138f3565b509392505050565b600082601f8301126139595761395861383d565b5b8135613969848260208601613902565b91505092915050565b61397b816136c5565b811461398657600080fd5b50565b60008135905061399881613972565b92915050565b6000806000606084860312156139b7576139b6613833565b5b600084013567ffffffffffffffff8111156139d5576139d4613838565b5b6139e186828701613944565b93505060206139f286828701613989565b925050604084013567ffffffffffffffff811115613a1357613a12613838565b5b613a1f86828701613944565b9150509250925092565b60008115159050919050565b613a3e81613a29565b82525050565b60006080830160008301518482036000860152613a6182826134e8565b9150506020830151613a7660208601826136d7565b5060408301518482036040860152613a8e82826134e8565b9150506060830151613aa36060860182613a35565b508091505092915050565b60006020820190508181036000830152613ac88184613a44565b905092915050565b600060208284031215613ae657613ae5613833565b5b600082013567ffffffffffffffff811115613b0457613b03613838565b5b613b1084828501613944565b91505092915050565b600081519050919050565b600082825260208201905092915050565b6000819050602082019050919050565b60006080830160008301518482036000860152613b6282826134e8565b9150506020830151613b7760208601826136d7565b5060408301518482036040860152613b8f82826134e8565b9150506060830151613ba46060860182613a35565b508091505092915050565b6000613bbb8383613b45565b905092915050565b6000602082019050919050565b6000613bdb82613b19565b613be58185613b24565b935083602082028501613bf785613b35565b8060005b85811015613c335784840389528151613c148582613baf565b9450613c1f83613bc3565b925060208a01995050600181019050613bfb565b50829750879550505050505092915050565b60006020820190508181036000830152613c5f8184613bd0565b905092915050565b60008060408385031215613c7e57613c7d613833565b5b600083013567ffffffffffffffff811115613c9c57613c9b613838565b5b613ca885828601613944565b9250506020613cb985828601613989565b9150509250929050565b600082825260208201905092915050565b6000613cdf8261354d565b613ce98185613cc3565b935083602082028501613cfb85613569565b8060005b85811015613d375784840389528151613d188582613579565b9450613d238361358d565b925060208a01995050600181019050613cff565b50829750879550505050505092915050565b60006020820190508181036000830152613d638184613cd4565b905092915050565b600060a0830160008301518482036000860152613d8882826134e8565b91505060208301518482036020860152613da28282613630565b91505060408301518482036040860152613dbc828261359a565b9150506060830151613dd160608601826136d7565b5060808301518482036080860152613de9828261359a565b9150508091505092915050565b60006020820190508181036000830152613e108184613d6b565b905092915050565b6000819050919050565b613e2b81613e18565b8114613e3657600080fd5b50565b600081359050613e4881613e22565b92915050565b600060208284031215613e6457613e63613833565b5b6000613e7284828501613e39565b91505092915050565b600082825260208201905092915050565b6000613e9782613488565b613ea18185613e7b565b9350613eb18185602086016134a4565b613eba816134d7565b840191505092915050565b613ece816136c5565b82525050565b60006040820190508181036000830152613eee8185613e8c565b9050613efd6020830184613ec5565b9392505050565b600067ffffffffffffffff821115613f1f57613f1e613847565b5b602082029050602081019050919050565b600080fd5b6000613f48613f4384613f04565b6138a7565b90508083825260208201905060208402830185811115613f6b57613f6a613f30565b5b835b81811015613fb257803567ffffffffffffffff811115613f9057613f8f61383d565b5b808601613f9d8982613944565b85526020850194505050602081019050613f6d565b5050509392505050565b600082601f830112613fd157613fd061383d565b5b8135613fe1848260208601613f35565b91505092915050565b6000806000806080858703121561400457614003613833565b5b600085013567ffffffffffffffff81111561402257614021613838565b5b61402e87828801613944565b945050602085013567ffffffffffffffff81111561404f5761404e613838565b5b61405b87828801613fbc565b935050604085013567ffffffffffffffff81111561407c5761407b613838565b5b61408887828801613944565b925050606085013567ffffffffffffffff8111156140a9576140a8613838565b5b6140b587828801613944565b91505092959194509250565b7f4e487b7100000000000000000000000000000000000000000000000000000000600052603260045260246000fd5b7f4e487b7100000000000000000000000000000000000000000000000000000000600052602260045260246000fd5b6000600282049050600182168061413757607f821691505b60208210810361414a576141496140f0565b5b50919050565b600081905092915050565b60008190508160005260206000209050919050565b6000815461417d8161411f565b6141878186614150565b945060018216600081146141a257600181146141b3576141e6565b60ff198316865281860193506141e6565b6141bc8561415b565b60005b838110156141de578154818901526001820191506020810190506141bf565b838801955050505b50505092915050565b60006141fb8284614170565b915081905092915050565b7f4e487b7100000000000000000000000000000000000000000000000000000000600052601160045260246000fd5b600061424082613e18565b91507fffffffffffffffffffffffffffffffffffffffffffffffffffffffffffffffff820361427257614271614206565b5b600182019050919050565b600061428882613488565b6142928185614150565b93506142a28185602086016134a4565b80840191505092915050565b60006142ba828461427d565b915081905092915050565b7f4163636f756e7420616c72656164792065786973747300000000000000000000600082015250565b60006142fb601683613e7b565b9150614306826142c5565b602082019050919050565b6000602082019050818103600083015261432a816142ee565b9050919050565b7f4163636f756e7420646f65736e20742065786973747300000000000000000000600082015250565b6000614367601683613e7b565b915061437282614331565b602082019050919050565b600060208201905081810360008301526143968161435a565b9050919050565b7f46696c6520646f65736e27742065786973740000000000000000000000000000600082015250565b60006143d3601283613e7b565b91506143de8261439d565b602082019050919050565b60006020820190508181036000830152614402816143c6565b9050919050565b600061441482613e18565b915061441f83613e18565b92508282101561443257614431614206565b5b828203905092915050565b7f4f6e6c7920746865206f776e65722063616e207265766f6b652061636365737360008201527f20746f20612066696c6500000000000000000000000000000000000000000000602082015250565b6000614499602a83613e7b565b91506144a48261443d565b604082019050919050565b600060208201905081810360008301526144c88161448c565b9050919050565b600081905092915050565b60008190508160005260206000209050919050565b600081546144fc8161411f565b61450681866144cf565b94506001821660008114614521576001811461453257614565565b60ff19831686528186019350614565565b61453b856144da565b60005b8381101561455d5781548189015260018201915060208101905061453e565b838801955050505b50505092915050565b600061457a82846144ef565b915081905092915050565b600061459082613e18565b915061459b83613e18565b9250827fffffffffffffffffffffffffffffffffffffffffffffffffffffffffffffffff038211156145d0576145cf614206565b5b828201905092915050565b7f4e487b7100000000000000000000000000000000000000000000000000000000600052603160045260246000fd5b7f46696c6520646f65736e2774206578697374206f72206163636f756e7420686160008201527f73206e6f2061636365737320746f206974000000000000000000000000000000602082015250565b6000614666603183613e7b565b91506146718261460a565b604082019050919050565b6000602082019050818103600083015261469581614659565b9050919050565b7f4f6e6c7920746865206f776e65722063616e20736861726520612066696c6500600082015250565b60006146d2601f83613e7b565b91506146dd8261469c565b602082019050919050565b60006020820190508181036000830152614701816146c5565b9050919050565b7f4f6e6c7920746865206f776e65722063616e2064656c65746520612066696c65600082015250565b600061473e602083613e7b565b915061474982614708565b602082019050919050565b6000602082019050818103600083015261476d81614731565b9050919050565b7f49504653206861736865732073686f756c642062652070726f7669646564206660008201527f6f7220616c6c20746872656520706f736974696f6e7300000000000000000000602082015250565b60006147d0603683613e7b565b91506147db82614774565b604082019050919050565b600060208201905081810360008301526147ff816147c3565b9050919050565b7f46696c65206e616d652063616e6e6f74206265206f6d69747465640000000000600082015250565b600061483c601b83613e7b565b915061484782614806565b602082019050919050565b6000602082019050818103600083015261486b8161482f565b9050919050565b7f46696c6520686173682063616e6e6f74206265206f6d69747465640000000000600082015250565b60006148a8601b83613e7b565b91506148b382614872565b602082019050919050565b600060208201905081810360008301526148d78161489b565b9050919050565b7f46696c652074696d657374616d702063616e6e6f74206265206f6d6974746564600082015250565b6000614914602083613e7b565b915061491f826148de565b602082019050919050565b6000602082019050818103600083015261494381614907565b905091905056fea264697066735822122049d12fb0df7a7e8ac6e5b096519a94eb95eb03956e87f4b9e466afe5097a295c64736f6c634300080d0033",
  "immutableReferences": {},
  "source": "pragma solidity ^0.8.13;\n//import \"hardhat/console.sol\";\n// SPDX-License-Identifier: MIT\n\ncontract FileManagement {\n\n    struct File {\n        string name;\n        string[][] fileIpfsHashes; // Matrix to store three IPFS hashes for each version\n        string[] hashes;\n        address owner;\n        string[] timestamps;\n    }\n\n    struct Account{\n        string name;\n        address accountAddress;\n        string privateKey;\n        bool exists;\n    }\n    \n\n    File[] public files;\n    mapping(address => mapping(string => uint)) private ownerFileIndexes;\n    mapping(string => Account) private accounts;\n    string [] private accountNames;\n\n\n    function getFileNames() public view returns (string[] memory) {\n         uint256 fileCount = files.length;\n\n        // Temporary array to store filtered file names\n        string[] memory ownerFiles = new string[](fileCount);\n        uint256 ownerFileCount = 0;\n\n        for (uint256 i = 0; i < fileCount; i++) {\n            // Check if the file belongs to the specified owner\n            if (ownerFileIndexes[msg.sender][files[i].name] > 0) {\n                ownerFiles[ownerFileCount] = files[i].name;\n                ownerFileCount++;\n            }\n        }\n\n        // Create a new array with the correct size to store only the owner's files\n        string[] memory result = new string[](ownerFileCount);\n        for (uint256 j = 0; j < ownerFileCount; j++) {\n            result[j] = ownerFiles[j];\n        }\n\n        return result;\n    }\n\n    function getFiles() public view returns (File[] memory) {\n         uint256 fileCount = files.length;\n\n        File[] memory ownerFiles = new File[](fileCount);\n        uint256 ownerFileCount = 0;\n\n        for (uint256 i = 0; i < fileCount; i++) {\n            if (ownerFileIndexes[msg.sender][files[i].name] > 0) {\n                ownerFiles[ownerFileCount] = files[i];\n                ownerFileCount++;\n            }\n        }\n\n        File[] memory result = new File[](ownerFileCount);\n        for (uint256 j = 0; j < ownerFileCount; j++) {\n            result[j] = ownerFiles[j];\n        }\n\n        return result;\n    }\n\n    function getAllFiles() public view returns (File[] memory) {\n        return files;\n    }\n\n    \n    function getFile(string memory name) public view returns (File memory) {\n        uint index = ownerFileIndexes[msg.sender][name];\n        require(index > 0, \"File doesn't exist\");\n        return (files[index - 1]);\n    }\n\n\n    function addFile(string memory name, string[] memory ipfsHashes, string memory hash, string memory timeStamp) public  {\n        bytes memory tempName = bytes(name);\n        bytes memory tempHash = bytes(hash);\n        bytes memory tempTimeStamp = bytes(timeStamp);\n        \n        require(ipfsHashes.length == 3, \"IPFS hashes should be provided for all three positions\");\n        require(tempName.length > 0, \"File name cannot be omitted\");\n        require(tempHash.length > 0, \"File hash cannot be omitted\");\n        require(tempTimeStamp.length > 0, \"File timestamp cannot be omitted\");\n        \n        uint index = ownerFileIndexes[msg.sender][name];\n        \n        if(index > 0){\n            files[index - 1].fileIpfsHashes.push(ipfsHashes);\n            files[index - 1].hashes.push(hash);\n            files[index - 1].timestamps.push(timeStamp);\n        }else{\n            string[][] memory ipfsMatrix = new string[][](1);\n            string[] memory hashes = new string[](1);\n            string[] memory timestamps = new string[](1);\n\n            timestamps[0] = timeStamp;\n            hashes[0] = hash;\n            ipfsMatrix[0] = ipfsHashes;\n            File memory file = File(name, ipfsMatrix, hashes, msg.sender, timestamps);\n            files.push(file);\n            ownerFileIndexes[msg.sender][name] = files.length;\n        }\n    }\n\n    function shareAccessToFile(string memory name, address account) public{\n        uint index = ownerFileIndexes[msg.sender][name];\n        require(index > 0, \"File doesn't exist or account has no access to it\");\n        require(files[index - 1].owner == msg.sender, \"Only the owner can share a file\");\n        ownerFileIndexes[account][name] = ownerFileIndexes[msg.sender][name];\n    }\n\n    function revokeAccessToFile(string memory name, address account) public {\n        uint index = ownerFileIndexes[msg.sender][name];\n        require(index > 0, \"File doesn't exist\");\n        require(files[index - 1].owner == msg.sender, \"Only the owner can revoke access to a file\");\n        ownerFileIndexes[account][name] = 0;\n    }\n\n    function removeFile(string memory name) public {\n        uint index = ownerFileIndexes[msg.sender][name];\n        require(index > 0, \"File doesn't exist\");\n        require(files[index - 1].owner == msg.sender, \"Only the owner can delete a file\");\n        \n        ownerFileIndexes[msg.sender][name] = 0;\n        files[index - 1].fileIpfsHashes = new string[3][](0);  \n        files[index - 1].hashes = new string[](0);\n        files[index - 1].name = new string(0);            \n    }\n\n\n\n\n\n\n\n\n\n\n\n\n\n\n\n\n\n\n\n\n\n\n\n\n\n    function createAccount(string memory name, address accountAddress, string memory privateKey) public returns (Account memory newAccount){\n        Account memory existingAccount = accounts[name];\n        require(existingAccount.exists == false, \"Account already exists\");\n        // require(msg.sender == accounts[\"Admin\"].accountAddress, \"Only admins can modify accounts\");\n\n        Account memory account = Account(name, accountAddress, privateKey, true);\n        accounts[name] = account;\n        accountNames.push(name);\n\n        return account;\n    }\n\n    function deleteAccount(string memory name) public {\n        \n        // require(msg.sender == accounts[\"Admin\"].accountAddress, \"Only admins can modify accounts\");\n        // require(keccak256(bytes(name)) != keccak256(bytes(\"Admin\")), \"Can t delete Admin\");\n        Account memory existingAccount = accounts[name];\n        require(existingAccount.exists == true, \"Account doesn t exists\");\n\n        for (uint i = 0; i<accountNames.length; i++){\n             //console.log(\"from %s to %s\", accountNames[i], name);\n\n            if(keccak256(bytes(accountNames[i])) == keccak256(bytes(name))){\n                for(uint j = i; j<accountNames.length-1; j++){\n                    accountNames[j] = accountNames[j+1];\n                    //console.log(\"here %s, %s\", accountNames[j], accountNames[j+1]);\n                    delete accounts[name];\n                }\n                accountNames.pop();\n            }\n                \n        }\n    }\n\n    function getAccounts() public view returns (string[] memory accountsList) {\n        return (accountNames);\n    }\n\n    function getAccount(string memory name) public view returns (Account memory accountsList) {\n        Account memory existingAccount = accounts[name];\n        require(existingAccount.exists == true, \"Account doesn t exists\");\n        return (accounts[name]);\n    }\n\n    function getAccountsInfo() public view returns (Account[] memory accountsList) {\n        //require(msg.sender != accounts[\"Admin\"].accountAddress, \"Only admin can access it\");\n        uint accountsCount = accountNames.length;\n        Account[] memory tempAccounts = new Account[](accountsCount);\n        for(uint i=0; i<accountsCount; i++){\n            tempAccounts[i] = accounts[accountNames[i]];\n        }\n        return (tempAccounts);\n    }\n\n\n    \n\n}\n",
  "sourcePath": "/home/aurel/Disertatie/Truffle/contracts/FileManagement.sol",
  "compiler": {
    "name": "solc",
    "version": "0.8.13+commit.abaa5c0e.Emscripten.clang"
  },
  "schemaVersion": "3.4.16",
  "updatedAt": "2024-05-31T11:33:39.690Z",
  "networkType": "ethereum",
  "devdoc": {
    "kind": "dev",
    "methods": {},
    "version": 1
  },
  "userdoc": {
    "kind": "user",
    "methods": {},
    "version": 1
  }
}