{
  "contractName": "FileManagement",
  "abi": [
    {
      "inputs": [
        {
          "internalType": "uint256",
          "name": "",
          "type": "uint256"
        }
      ],
      "name": "files",
      "outputs": [
        {
          "internalType": "string",
          "name": "name",
          "type": "string"
        },
        {
          "internalType": "address",
          "name": "owner",
          "type": "address"
        }
      ],
      "stateMutability": "view",
      "type": "function",
      "constant": true
    },
    {
      "inputs": [],
      "name": "getFileNames",
      "outputs": [
        {
          "internalType": "string[]",
          "name": "",
          "type": "string[]"
        }
      ],
      "stateMutability": "view",
      "type": "function",
      "constant": true
    },
    {
      "inputs": [
        {
          "internalType": "string",
          "name": "name",
          "type": "string"
        },
        {
          "internalType": "string[3]",
          "name": "ipfsHashes",
          "type": "string[3]"
        },
        {
          "internalType": "string",
          "name": "hash",
          "type": "string"
        }
      ],
      "name": "addFile",
      "outputs": [],
      "stateMutability": "nonpayable",
      "type": "function"
    },
    {
      "inputs": [
        {
          "internalType": "string",
          "name": "name",
          "type": "string"
        }
      ],
      "name": "getFile",
      "outputs": [
        {
          "internalType": "string",
          "name": "",
          "type": "string"
        },
        {
          "internalType": "string[3][]",
          "name": "",
          "type": "string[3][]"
        }
      ],
      "stateMutability": "view",
      "type": "function",
      "constant": true
    },
    {
      "inputs": [],
      "name": "testContract",
      "outputs": [
        {
          "internalType": "uint256",
          "name": "",
          "type": "uint256"
        }
      ],
      "stateMutability": "pure",
      "type": "function",
      "constant": true
    }
  ],
  "bytecode": "0x608060405234801561001057600080fd5b50611649806100206000396000f3fe608060405234801561001057600080fd5b50600436106100575760003560e01c80630b308d3d1461005c578063bfcd528914610078578063c36631b414610096578063e0876aa8146100b4578063f4c714b4146100e5575b600080fd5b61007660048036038101906100719190610e49565b610116565b005b6100806104c8565b60405161008d919061103a565b60405180910390f35b61009e610618565b6040516100ab9190611075565b60405180910390f35b6100ce60048036038101906100c99190611090565b610626565b6040516100dc929190611287565b60405180910390f35b6100ff60048036038101906100fa91906112ea565b6108d0565b60405161010d929190611358565b60405180910390f35b60038014610159576040517f08c379a0000000000000000000000000000000000000000000000000000000008152600401610150906113fa565b60405180910390fd5b6000600160003373ffffffffffffffffffffffffffffffffffffffff1673ffffffffffffffffffffffffffffffffffffffff168152602001908152602001600020846040516101a89190611456565b9081526020016040518091039020549050606060006001836101ca919061149c565b815481106101db576101da6114d0565b5b9060005260206000209060040201600201839080600181540180825580915050600190039060005260206000200160009091909190915090805190602001906102259291906109ac565b50600082111561029e57600060018361023e919061149c565b8154811061024f5761024e6114d0565b5b9060005260206000209060040201600101849080600181540180825580915050600190039060005260206000209060030201600090919091909150906003610298929190610a32565b506104c1565b83816000815181106102b3576102b26114d0565b5b60200260200101819052506000604051806080016040528087815260200183815260200160006001866102e6919061149c565b815481106102f7576102f66114d0565b5b9060005260206000209060040201600201805480602002602001604051908101604052809291908181526020016000905b828210156103d45783829060005260206000200180546103479061152e565b80601f01602080910402602001604051908101604052809291908181526020018280546103739061152e565b80156103c05780601f10610395576101008083540402835291602001916103c0565b820191906000526020600020905b8154815290600101906020018083116103a357829003601f168201915b505050505081526020019060010190610328565b5050505081526020013373ffffffffffffffffffffffffffffffffffffffff168152509080600181540180825580915050600190039060005260206000209060040201600090919091909150600082015181600001908051906020019061043c9291906109ac565b506020820151816001019080519060200190610459929190610a85565b506040820151816002019080519060200190610476929190610ae3565b5060608201518160030160006101000a81548173ffffffffffffffffffffffffffffffffffffffff021916908373ffffffffffffffffffffffffffffffffffffffff16021790555050505b5050505050565b606060008080549050905060008167ffffffffffffffff8111156104ef576104ee610c4a565b5b60405190808252806020026020018201604052801561052257816020015b606081526020019060019003908161050d5790505b50905060005b8281101561060f5760008181548110610544576105436114d0565b5b906000526020600020906004020160000180546105609061152e565b80601f016020809104026020016040519081016040528092919081815260200182805461058c9061152e565b80156105d95780601f106105ae576101008083540402835291602001916105d9565b820191906000526020600020905b8154815290600101906020018083116105bc57829003601f168201915b50505050508282815181106105f1576105f06114d0565b5b602002602001018190525080806106079061155f565b915050610528565b50809250505090565b600080600190508091505090565b6060806000600160003373ffffffffffffffffffffffffffffffffffffffff1673ffffffffffffffffffffffffffffffffffffffff168152602001908152602001600020846040516106789190611456565b9081526020016040518091039020549050600081116106cc576040517f08c379a00000000000000000000000000000000000000000000000000000000081526004016106c3906115f3565b60405180910390fd5b60006001826106db919061149c565b815481106106ec576106eb6114d0565b5b9060005260206000209060040201600001600060018361070c919061149c565b8154811061071d5761071c6114d0565b5b906000526020600020906004020160010181805461073a9061152e565b80601f01602080910402602001604051908101604052809291908181526020018280546107669061152e565b80156107b35780601f10610788576101008083540402835291602001916107b3565b820191906000526020600020905b81548152906001019060200180831161079657829003601f168201915b5050505050915080805480602002602001604051908101604052809291908181526020016000905b828210156108c05783829060005260206000209060030201600380602002604051908101604052809291906000905b828210156108ad5783820180546108209061152e565b80601f016020809104026020016040519081016040528092919081815260200182805461084c9061152e565b80156108995780601f1061086e57610100808354040283529160200191610899565b820191906000526020600020905b81548152906001019060200180831161087c57829003601f168201915b50505050508152602001906001019061080a565b50505050815260200190600101906107db565b5050505090509250925050915091565b600081815481106108e057600080fd5b90600052602060002090600402016000915090508060000180546109039061152e565b80601f016020809104026020016040519081016040528092919081815260200182805461092f9061152e565b801561097c5780601f106109515761010080835404028352916020019161097c565b820191906000526020600020905b81548152906001019060200180831161095f57829003601f168201915b5050505050908060030160009054906101000a900473ffffffffffffffffffffffffffffffffffffffff16905082565b8280546109b89061152e565b90600052602060002090601f0160209004810192826109da5760008555610a21565b82601f106109f357805160ff1916838001178555610a21565b82800160010185558215610a21579182015b82811115610a20578251825591602001919060010190610a05565b5b509050610a2e9190610b43565b5090565b8260038101928215610a74579160200282015b82811115610a73578251829080519060200190610a639291906109ac565b5091602001919060010190610a45565b5b509050610a819190610b60565b5090565b828054828255906000526020600020906003028101928215610ad2579160200282015b82811115610ad157825182906003610ac1929190610a32565b5091602001919060030190610aa8565b5b509050610adf9190610b84565b5090565b828054828255906000526020600020908101928215610b32579160200282015b82811115610b31578251829080519060200190610b219291906109ac565b5091602001919060010190610b03565b5b509050610b3f9190610b60565b5090565b5b80821115610b5c576000816000905550600101610b44565b5090565b5b80821115610b805760008181610b779190610ba8565b50600101610b61565b5090565b5b80821115610ba45760008181610b9b9190610be8565b50600301610b85565b5090565b508054610bb49061152e565b6000825580601f10610bc65750610be5565b601f016020900490600052602060002090810190610be49190610b43565b5b50565b5060008181610bf79190610ba8565b5060010160008181610c099190610ba8565b506001016000610c199190610ba8565b565b6000604051905090565b600080fd5b600080fd5b600080fd5b600080fd5b6000601f19601f8301169050919050565b7f4e487b7100000000000000000000000000000000000000000000000000000000600052604160045260246000fd5b610c8282610c39565b810181811067ffffffffffffffff82111715610ca157610ca0610c4a565b5b80604052505050565b6000610cb4610c1b565b9050610cc08282610c79565b919050565b600067ffffffffffffffff821115610ce057610cdf610c4a565b5b610ce982610c39565b9050602081019050919050565b82818337600083830152505050565b6000610d18610d1384610cc5565b610caa565b905082815260208101848484011115610d3457610d33610c34565b5b610d3f848285610cf6565b509392505050565b600082601f830112610d5c57610d5b610c2f565b5b8135610d6c848260208601610d05565b91505092915050565b600067ffffffffffffffff821115610d9057610d8f610c4a565b5b602082029050919050565b600080fd5b6000610db3610dae84610d75565b610caa565b90508060208402830185811115610dcd57610dcc610d9b565b5b835b81811015610e1457803567ffffffffffffffff811115610df257610df1610c2f565b5b808601610dff8982610d47565b85526020850194505050602081019050610dcf565b5050509392505050565b600082601f830112610e3357610e32610c2f565b5b6003610e40848285610da0565b91505092915050565b600080600060608486031215610e6257610e61610c25565b5b600084013567ffffffffffffffff811115610e8057610e7f610c2a565b5b610e8c86828701610d47565b935050602084013567ffffffffffffffff811115610ead57610eac610c2a565b5b610eb986828701610e1e565b925050604084013567ffffffffffffffff811115610eda57610ed9610c2a565b5b610ee686828701610d47565b9150509250925092565b600081519050919050565b600082825260208201905092915050565b6000819050602082019050919050565b600081519050919050565b600082825260208201905092915050565b60005b83811015610f56578082015181840152602081019050610f3b565b83811115610f65576000848401525b50505050565b6000610f7682610f1c565b610f808185610f27565b9350610f90818560208601610f38565b610f9981610c39565b840191505092915050565b6000610fb08383610f6b565b905092915050565b6000602082019050919050565b6000610fd082610ef0565b610fda8185610efb565b935083602082028501610fec85610f0c565b8060005b8581101561102857848403895281516110098582610fa4565b945061101483610fb8565b925060208a01995050600181019050610ff0565b50829750879550505050505092915050565b600060208201905081810360008301526110548184610fc5565b905092915050565b6000819050919050565b61106f8161105c565b82525050565b600060208201905061108a6000830184611066565b92915050565b6000602082840312156110a6576110a5610c25565b5b600082013567ffffffffffffffff8111156110c4576110c3610c2a565b5b6110d084828501610d47565b91505092915050565b600082825260208201905092915050565b60006110f582610f1c565b6110ff81856110d9565b935061110f818560208601610f38565b61111881610c39565b840191505092915050565b600081519050919050565b600082825260208201905092915050565b6000819050602082019050919050565b600060039050919050565b600081905092915050565b6000819050919050565b6000602082019050919050565b60006111878261114f565b611191818561115a565b9350836020820285016111a385611165565b8060005b858110156111df57848403895281516111c08582610fa4565b94506111cb8361116f565b925060208a019950506001810190506111a7565b50829750879550505050505092915050565b60006111fd838361117c565b905092915050565b6000602082019050919050565b600061121d82611123565b611227818561112e565b9350836020820285016112398561113f565b8060005b85811015611275578484038952815161125685826111f1565b945061126183611205565b925060208a0199505060018101905061123d565b50829750879550505050505092915050565b600060408201905081810360008301526112a181856110ea565b905081810360208301526112b58184611212565b90509392505050565b6112c78161105c565b81146112d257600080fd5b50565b6000813590506112e4816112be565b92915050565b600060208284031215611300576112ff610c25565b5b600061130e848285016112d5565b91505092915050565b600073ffffffffffffffffffffffffffffffffffffffff82169050919050565b600061134282611317565b9050919050565b61135281611337565b82525050565b6000604082019050818103600083015261137281856110ea565b90506113816020830184611349565b9392505050565b7f49504653206861736865732073686f756c642062652070726f7669646564206660008201527f6f7220616c6c20746872656520706f736974696f6e7300000000000000000000602082015250565b60006113e46036836110d9565b91506113ef82611388565b604082019050919050565b60006020820190508181036000830152611413816113d7565b9050919050565b600081905092915050565b600061143082610f1c565b61143a818561141a565b935061144a818560208601610f38565b80840191505092915050565b60006114628284611425565b915081905092915050565b7f4e487b7100000000000000000000000000000000000000000000000000000000600052601160045260246000fd5b60006114a78261105c565b91506114b28361105c565b9250828210156114c5576114c461146d565b5b828203905092915050565b7f4e487b7100000000000000000000000000000000000000000000000000000000600052603260045260246000fd5b7f4e487b7100000000000000000000000000000000000000000000000000000000600052602260045260246000fd5b6000600282049050600182168061154657607f821691505b602082108103611559576115586114ff565b5b50919050565b600061156a8261105c565b91507fffffffffffffffffffffffffffffffffffffffffffffffffffffffffffffffff820361159c5761159b61146d565b5b600182019050919050565b7f46696c65206e6f7420666f756e64000000000000000000000000000000000000600082015250565b60006115dd600e836110d9565b91506115e8826115a7565b602082019050919050565b6000602082019050818103600083015261160c816115d0565b905091905056fea26469706673582212200b6d4d9fc273ae90080e795d1d489d3971487a4e8c8453465559594f090ed37b64736f6c634300080d0033",
  "immutableReferences": {},
  "source": "\n\npragma solidity ^0.8.13;\n// SPDX-License-Identifier: MIT\n\ncontract FileManagement {\n\n    struct File {\n        string name;\n        string[3][] fileIpfsHashes; // Matrix to store three IPFS hashes for each version\n        string[] hashes;\n        address owner;\n    }\n\n    File[] public files;\n    mapping(address => mapping(string => uint)) private ownerFileIndexes;\n\n    function getFileNames() public view returns (string[] memory) {\n        uint256 fileCount = files.length;\n\n        string[] memory storedFiles = new string[](fileCount);\n\n        for (uint256 i = 0; i < fileCount; i++) {\n            storedFiles[i] = files[i].name;\n        }\n\n        return storedFiles;\n    }\n\n    function addFile(string memory name, string[3] memory ipfsHashes, string memory hash) public {\n        require(ipfsHashes.length == 3, \"IPFS hashes should be provided for all three positions\");\n\n        uint index = ownerFileIndexes[msg.sender][name];\n        string[3][] memory ipfsMatrix;\n\n        files[index - 1].hashes.push(hash);\n\n        if(index > 0){\n            files[index - 1].fileIpfsHashes.push(ipfsHashes);\n            \n        }else{\n            ipfsMatrix[0] = ipfsHashes;\n            files.push(File(name, ipfsMatrix, files[index - 1].hashes, msg.sender));\n        }\n    }\n\n    function getFile(string memory name) public view returns (string memory, string[3][] memory) {\n        uint index = ownerFileIndexes[msg.sender][name];\n        require(index > 0, \"File not found\");\n        return (files[index - 1].name, files[index - 1].fileIpfsHashes);\n    }\n\n    function testContract() public pure returns (uint) {\n        uint x=1;\n        return x;\n    }\n\n}\n",
  "sourcePath": "/home/aurel/Disertatie/Truffle/contracts/FileManagement.sol",
  "compiler": {
    "name": "solc",
    "version": "0.8.13+commit.abaa5c0e.Emscripten.clang"
  },
  "schemaVersion": "3.4.16",
  "updatedAt": "2024-01-12T18:04:49.401Z",
  "networkType": "ethereum",
  "devdoc": {
    "kind": "dev",
    "methods": {},
    "version": 1
  },
  "userdoc": {
    "kind": "user",
    "methods": {},
    "version": 1
  }
}