{
  "contractName": "FileStorageSSS",
  "abi": [
    {
      "inputs": [],
      "stateMutability": "nonpayable",
      "type": "constructor"
    },
    {
      "inputs": [],
      "name": "THRESHOLD",
      "outputs": [
        {
          "internalType": "uint8",
          "name": "",
          "type": "uint8"
        }
      ],
      "stateMutability": "view",
      "type": "function"
    },
    {
      "inputs": [],
      "name": "TOTAL_SHARES",
      "outputs": [
        {
          "internalType": "uint8",
          "name": "",
          "type": "uint8"
        }
      ],
      "stateMutability": "view",
      "type": "function"
    },
    {
      "inputs": [],
      "name": "fileId",
      "outputs": [
        {
          "internalType": "uint256",
          "name": "",
          "type": "uint256"
        }
      ],
      "stateMutability": "view",
      "type": "function"
    },
    {
      "inputs": [],
      "name": "sss",
      "outputs": [
        {
          "internalType": "contract ShamirSecretSharing",
          "name": "",
          "type": "address"
        }
      ],
      "stateMutability": "view",
      "type": "function"
    },
    {
      "inputs": [],
      "name": "getOwnerFiles",
      "outputs": [
        {
          "components": [
            {
              "internalType": "string",
              "name": "name",
              "type": "string"
            },
            {
              "internalType": "uint8",
              "name": "threshold",
              "type": "uint8"
            },
            {
              "internalType": "uint8",
              "name": "numShares",
              "type": "uint8"
            },
            {
              "internalType": "uint256[]",
              "name": "contentShares",
              "type": "uint256[]"
            },
            {
              "internalType": "address",
              "name": "owner",
              "type": "address"
            }
          ],
          "internalType": "struct FileStorageSSS.File[]",
          "name": "",
          "type": "tuple[]"
        }
      ],
      "stateMutability": "view",
      "type": "function"
    },
    {
      "inputs": [
        {
          "internalType": "string",
          "name": "name",
          "type": "string"
        },
        {
          "internalType": "string",
          "name": "content",
          "type": "string"
        }
      ],
      "name": "addFile",
      "outputs": [],
      "stateMutability": "nonpayable",
      "type": "function"
    },
    {
      "inputs": [
        {
          "internalType": "uint256",
          "name": "_fileId",
          "type": "uint256"
        }
      ],
      "name": "getFile",
      "outputs": [
        {
          "internalType": "string",
          "name": "name",
          "type": "string"
        },
        {
          "internalType": "string",
          "name": "content",
          "type": "string"
        }
      ],
      "stateMutability": "view",
      "type": "function"
    },
    {
      "inputs": [
        {
          "internalType": "uint256",
          "name": "index",
          "type": "uint256"
        },
        {
          "internalType": "string",
          "name": "name",
          "type": "string"
        },
        {
          "internalType": "string",
          "name": "content",
          "type": "string"
        }
      ],
      "name": "updateFile",
      "outputs": [],
      "stateMutability": "nonpayable",
      "type": "function"
    }
  ],
  "bytecode": "0x608060405260405161001090610087565b604051809103906000f08015801561002c573d6000803e3d6000fd5b50600360006101000a81548173ffffffffffffffffffffffffffffffffffffffff021916908373ffffffffffffffffffffffffffffffffffffffff16021790555034801561007957600080fd5b506000600281905550610094565b6113b980611ce083390190565b611c3d806100a36000396000f3fe608060405234801561001057600080fd5b50600436106100885760003560e01c8063641b66e41161005b578063641b66e414610116578063785ffb371461013457806385e3f997146101525780638896e4251461017057610088565b80631eb3c2871461008d578063248bfc3b146100ab5780632bfda313146100c7578063548dd99c146100f8575b600080fd5b61009561018c565b6040516100a29190611264565b60405180910390f35b6100c560048036038101906100c091906113cf565b610474565b005b6100e160048036038101906100dc9190611473565b610710565b6040516100ef9291906114ea565b60405180910390f35b610100610954565b60405161010d9190611580565b60405180910390f35b61011e61097a565b60405161012b91906115aa565b60405180910390f35b61013c610980565b60405161014991906115d4565b60405180910390f35b61015a610985565b60405161016791906115d4565b60405180910390f35b61018a600480360381019061018591906115ef565b61098a565b005b60606000600160003373ffffffffffffffffffffffffffffffffffffffff1673ffffffffffffffffffffffffffffffffffffffff16815260200190815260200160002080549050905060008167ffffffffffffffff8111156101f1576101f06112a4565b5b60405190808252806020026020018201604052801561022a57816020015b610217610e2c565b81526020019060019003908161020f5790505b50905060005b8281101561046b576000600160003373ffffffffffffffffffffffffffffffffffffffff1673ffffffffffffffffffffffffffffffffffffffff168152602001908152602001600020828154811061028b5761028a61167a565b5b9060005260206000200154815481106102a7576102a661167a565b5b90600052602060002090600402016040518060a00160405290816000820180546102d0906116d8565b80601f01602080910402602001604051908101604052809291908181526020018280546102fc906116d8565b80156103495780601f1061031e57610100808354040283529160200191610349565b820191906000526020600020905b81548152906001019060200180831161032c57829003601f168201915b505050505081526020016001820160009054906101000a900460ff1660ff1660ff1681526020016001820160019054906101000a900460ff1660ff1660ff168152602001600282018054806020026020016040519081016040528092919081815260200182805480156103db57602002820191906000526020600020905b8154815260200190600101908083116103c7575b505050505081526020016003820160009054906101000a900473ffffffffffffffffffffffffffffffffffffffff1673ffffffffffffffffffffffffffffffffffffffff1673ffffffffffffffffffffffffffffffffffffffff168152505082828151811061044d5761044c61167a565b5b6020026020010181905250808061046390611738565b915050610230565b50809250505090565b60008080549050905060008260405160200161049091906117bc565b6040516020818303038152906040528051906020012060001c90506000600360009054906101000a900473ffffffffffffffffffffffffffffffffffffffff1673ffffffffffffffffffffffffffffffffffffffff16631299ac8f83600260036040518463ffffffff1660e01b815260040161050e939291906117d3565b600060405180830381865afa15801561052b573d6000803e3d6000fd5b505050506040513d6000823e3d601f19601f8201168201806040525081019061055491906118e7565b905060006040518060a00160405280878152602001600260ff168152602001600360ff1681526020018381526020013373ffffffffffffffffffffffffffffffffffffffff16815250908060018154018082558091505060019003906000526020600020906004020160009091909190915060008201518160000190805190602001906105e2929190610e77565b5060208201518160010160006101000a81548160ff021916908360ff16021790555060408201518160010160016101000a81548160ff021916908360ff1602179055506060820151816002019080519060200190610641929190610efd565b5060808201518160030160006101000a81548173ffffffffffffffffffffffffffffffffffffffff021916908373ffffffffffffffffffffffffffffffffffffffff1602179055505050600160003373ffffffffffffffffffffffffffffffffffffffff1673ffffffffffffffffffffffffffffffffffffffff1681526020019081526020016000208390806001815401808255809150506001900390600052602060002001600090919091909150556002600081548092919061070490611738565b91905055505050505050565b606080600083815481106107275761072661167a565b5b906000526020600020906004020160030160009054906101000a900473ffffffffffffffffffffffffffffffffffffffff1673ffffffffffffffffffffffffffffffffffffffff163373ffffffffffffffffffffffffffffffffffffffff16146107c6576040517f08c379a00000000000000000000000000000000000000000000000000000000081526004016107bd906119a2565b60405180910390fd5b6000600360009054906101000a900473ffffffffffffffffffffffffffffffffffffffff1673ffffffffffffffffffffffffffffffffffffffff1663eff90d056000868154811061081a5761081961167a565b5b906000526020600020906004020160020160026040518363ffffffff1660e01b815260040161084a929190611aa9565b602060405180830381865afa158015610867573d6000803e3d6000fd5b505050506040513d601f19601f8201168201806040525081019061088b9190611ad9565b9050600084815481106108a1576108a061167a565b5b90600052602060002090600402016000016108be8260001b610c91565b8180546108ca906116d8565b80601f01602080910402602001604051908101604052809291908181526020018280546108f6906116d8565b80156109435780601f1061091857610100808354040283529160200191610943565b820191906000526020600020905b81548152906001019060200180831161092657829003601f168201915b505050505091509250925050915091565b600360009054906101000a900473ffffffffffffffffffffffffffffffffffffffff1681565b60025481565b600281565b600381565b60008054905083106109d1576040517f08c379a00000000000000000000000000000000000000000000000000000000081526004016109c890611b52565b60405180910390fd5b3373ffffffffffffffffffffffffffffffffffffffff16600084815481106109fc576109fb61167a565b5b906000526020600020906004020160030160009054906101000a900473ffffffffffffffffffffffffffffffffffffffff1673ffffffffffffffffffffffffffffffffffffffff1614610a84576040517f08c379a0000000000000000000000000000000000000000000000000000000008152600401610a7b90611bbe565b60405180910390fd5b600081604051602001610a9791906117bc565b6040516020818303038152906040528051906020012060001c90506000600360009054906101000a900473ffffffffffffffffffffffffffffffffffffffff1673ffffffffffffffffffffffffffffffffffffffff16631299ac8f83600260036040518463ffffffff1660e01b8152600401610b15939291906117d3565b600060405180830381865afa158015610b32573d6000803e3d6000fd5b505050506040513d6000823e3d601f19601f82011682018060405250810190610b5b91906118e7565b90506040518060a00160405280858152602001600260ff168152602001600360ff1681526020018281526020013373ffffffffffffffffffffffffffffffffffffffff1681525060008681548110610bb657610bb561167a565b5b90600052602060002090600402016000820151816000019080519060200190610be0929190610e77565b5060208201518160010160006101000a81548160ff021916908360ff16021790555060408201518160010160016101000a81548160ff021916908360ff1602179055506060820151816002019080519060200190610c3f929190610efd565b5060808201518160030160006101000a81548173ffffffffffffffffffffffffffffffffffffffff021916908373ffffffffffffffffffffffffffffffffffffffff1602179055509050505050505050565b606060005b60208160ff16108015610ce85750600060f81b838260ff1660208110610cbf57610cbe61167a565b5b1a60f81b7effffffffffffffffffffffffffffffffffffffffffffffffffffffffffffff191614155b15610d00578080610cf890611bde565b915050610c96565b60008160ff1667ffffffffffffffff811115610d1f57610d1e6112a4565b5b6040519080825280601f01601f191660200182016040528015610d515781602001600182028036833780820191505090505b509050600091505b60208260ff16108015610dab5750600060f81b848360ff1660208110610d8257610d8161167a565b5b1a60f81b7effffffffffffffffffffffffffffffffffffffffffffffffffffffffffffff191614155b15610e2257838260ff1660208110610dc657610dc561167a565b5b1a60f81b818360ff1681518110610de057610ddf61167a565b5b60200101907effffffffffffffffffffffffffffffffffffffffffffffffffffffffffffff1916908160001a9053508180610e1a90611bde565b925050610d59565b8092505050919050565b6040518060a0016040528060608152602001600060ff168152602001600060ff16815260200160608152602001600073ffffffffffffffffffffffffffffffffffffffff1681525090565b828054610e83906116d8565b90600052602060002090601f016020900481019282610ea55760008555610eec565b82601f10610ebe57805160ff1916838001178555610eec565b82800160010185558215610eec579182015b82811115610eeb578251825591602001919060010190610ed0565b5b509050610ef99190610f4a565b5090565b828054828255906000526020600020908101928215610f39579160200282015b82811115610f38578251825591602001919060010190610f1d565b5b509050610f469190610f4a565b5090565b5b80821115610f63576000816000905550600101610f4b565b5090565b600081519050919050565b600082825260208201905092915050565b6000819050602082019050919050565b600081519050919050565b600082825260208201905092915050565b60005b83811015610fcd578082015181840152602081019050610fb2565b83811115610fdc576000848401525b50505050565b6000601f19601f8301169050919050565b6000610ffe82610f93565b6110088185610f9e565b9350611018818560208601610faf565b61102181610fe2565b840191505092915050565b600060ff82169050919050565b6110428161102c565b82525050565b600081519050919050565b600082825260208201905092915050565b6000819050602082019050919050565b6000819050919050565b61108781611074565b82525050565b6000611099838361107e565b60208301905092915050565b6000602082019050919050565b60006110bd82611048565b6110c78185611053565b93506110d283611064565b8060005b838110156111035781516110ea888261108d565b97506110f5836110a5565b9250506001810190506110d6565b5085935050505092915050565b600073ffffffffffffffffffffffffffffffffffffffff82169050919050565b600061113b82611110565b9050919050565b61114b81611130565b82525050565b600060a083016000830151848203600086015261116e8282610ff3565b91505060208301516111836020860182611039565b5060408301516111966040860182611039565b50606083015184820360608601526111ae82826110b2565b91505060808301516111c36080860182611142565b508091505092915050565b60006111da8383611151565b905092915050565b6000602082019050919050565b60006111fa82610f67565b6112048185610f72565b93508360208202850161121685610f83565b8060005b85811015611252578484038952815161123385826111ce565b945061123e836111e2565b925060208a0199505060018101905061121a565b50829750879550505050505092915050565b6000602082019050818103600083015261127e81846111ef565b905092915050565b6000604051905090565b600080fd5b600080fd5b600080fd5b600080fd5b7f4e487b7100000000000000000000000000000000000000000000000000000000600052604160045260246000fd5b6112dc82610fe2565b810181811067ffffffffffffffff821117156112fb576112fa6112a4565b5b80604052505050565b600061130e611286565b905061131a82826112d3565b919050565b600067ffffffffffffffff82111561133a576113396112a4565b5b61134382610fe2565b9050602081019050919050565b82818337600083830152505050565b600061137261136d8461131f565b611304565b90508281526020810184848401111561138e5761138d61129f565b5b611399848285611350565b509392505050565b600082601f8301126113b6576113b561129a565b5b81356113c684826020860161135f565b91505092915050565b600080604083850312156113e6576113e5611290565b5b600083013567ffffffffffffffff81111561140457611403611295565b5b611410858286016113a1565b925050602083013567ffffffffffffffff81111561143157611430611295565b5b61143d858286016113a1565b9150509250929050565b61145081611074565b811461145b57600080fd5b50565b60008135905061146d81611447565b92915050565b60006020828403121561148957611488611290565b5b60006114978482850161145e565b91505092915050565b600082825260208201905092915050565b60006114bc82610f93565b6114c681856114a0565b93506114d6818560208601610faf565b6114df81610fe2565b840191505092915050565b6000604082019050818103600083015261150481856114b1565b9050818103602083015261151881846114b1565b90509392505050565b6000819050919050565b600061154661154161153c84611110565b611521565b611110565b9050919050565b60006115588261152b565b9050919050565b600061156a8261154d565b9050919050565b61157a8161155f565b82525050565b60006020820190506115956000830184611571565b92915050565b6115a481611074565b82525050565b60006020820190506115bf600083018461159b565b92915050565b6115ce8161102c565b82525050565b60006020820190506115e960008301846115c5565b92915050565b60008060006060848603121561160857611607611290565b5b60006116168682870161145e565b935050602084013567ffffffffffffffff81111561163757611636611295565b5b611643868287016113a1565b925050604084013567ffffffffffffffff81111561166457611663611295565b5b611670868287016113a1565b9150509250925092565b7f4e487b7100000000000000000000000000000000000000000000000000000000600052603260045260246000fd5b7f4e487b7100000000000000000000000000000000000000000000000000000000600052602260045260246000fd5b600060028204905060018216806116f057607f821691505b602082108103611703576117026116a9565b5b50919050565b7f4e487b7100000000000000000000000000000000000000000000000000000000600052601160045260246000fd5b600061174382611074565b91507fffffffffffffffffffffffffffffffffffffffffffffffffffffffffffffffff820361177557611774611709565b5b600182019050919050565b600081905092915050565b600061179682610f93565b6117a08185611780565b93506117b0818560208601610faf565b80840191505092915050565b60006117c8828461178b565b915081905092915050565b60006060820190506117e8600083018661159b565b6117f560208301856115c5565b61180260408301846115c5565b949350505050565b600067ffffffffffffffff821115611825576118246112a4565b5b602082029050602081019050919050565b600080fd5b60008151905061184a81611447565b92915050565b600061186361185e8461180a565b611304565b9050808382526020820190506020840283018581111561188657611885611836565b5b835b818110156118af578061189b888261183b565b845260208401935050602081019050611888565b5050509392505050565b600082601f8301126118ce576118cd61129a565b5b81516118de848260208601611850565b91505092915050565b6000602082840312156118fd576118fc611290565b5b600082015167ffffffffffffffff81111561191b5761191a611295565b5b611927848285016118b9565b91505092915050565b7f596f7520617265206e6f7420617574686f72697a656420746f2076696577207460008201527f6869732066696c652e0000000000000000000000000000000000000000000000602082015250565b600061198c6029836114a0565b915061199782611930565b604082019050919050565b600060208201905081810360008301526119bb8161197f565b9050919050565b600081549050919050565b600082825260208201905092915050565b60008190508160005260206000209050919050565b60008160001c9050919050565b6000819050919050565b6000611a1d611a18836119f3565b611a00565b9050919050565b6000611a308254611a0a565b9050919050565b6000600182019050919050565b6000611a4f826119c2565b611a5981856119cd565b9350611a64836119de565b8060005b83811015611a9c57611a7982611a24565b611a83888261108d565b9750611a8e83611a37565b925050600181019050611a68565b5085935050505092915050565b60006040820190508181036000830152611ac38185611a44565b9050611ad260208301846115c5565b9392505050565b600060208284031215611aef57611aee611290565b5b6000611afd8482850161183b565b91505092915050565b7f496e76616c69642066696c6520696e6465780000000000000000000000000000600082015250565b6000611b3c6012836114a0565b9150611b4782611b06565b602082019050919050565b60006020820190508181036000830152611b6b81611b2f565b9050919050565b7f4e6f7420617574686f72697a656420746f207570646174652066696c65000000600082015250565b6000611ba8601d836114a0565b9150611bb382611b72565b602082019050919050565b60006020820190508181036000830152611bd781611b9b565b9050919050565b6000611be98261102c565b915060ff8203611bfc57611bfb611709565b5b60018201905091905056fea26469706673582212200945f52e9665d4458ac249de8d96c1288f408b459e11070d1da7ab49bbca459b64736f6c634300080d0033608060405234801561001057600080fd5b50611399806100206000396000f3fe608060405234801561001057600080fd5b50600436106100405760003560e01c806217cd8b146100455780631299ac8f14610063578063eff90d0514610093575b600080fd5b61004d6100c3565b60405161005a9190610770565b60405180910390f35b61007d60048036038101906100789190610804565b6100e7565b60405161008a9190610915565b60405180910390f35b6100ad60048036038101906100a89190610a90565b6103e6565b6040516100ba9190610770565b60405180910390f35b7fffffffffffffffffffffffffffffffffffffffffffffffffffffffffffffff4381565b60607fffffffffffffffffffffffffffffffffffffffffffffffffffffffffffffff43841061014b576040517f08c379a000000000000000000000000000000000000000000000000000000000815260040161014290610b49565b60405180910390fd5b60008260ff1667ffffffffffffffff81111561016a5761016961094d565b5b6040519080825280602002602001820160405280156101985781602001602082028036833780820191505090505b50905060008460ff1667ffffffffffffffff8111156101ba576101b961094d565b5b6040519080825280602002602001820160405280156101e85781602001602082028036833780820191505090505b5090508581600081518110610200576101ff610b69565b5b6020026020010181815250506000600190505b8560ff168160ff1610156102ad577fffffffffffffffffffffffffffffffffffffffffffffffffffffffffffffff438782604051602001610255929190610bef565b6040516020818303038152906040528051906020012060001c6102789190610c4a565b828260ff168151811061028e5761028d610b69565b5b60200260200101818152505080806102a590610caa565b915050610213565b5060005b8460ff168160ff1610156103d95760006001826102ce9190610cd3565b60ff1690506000848360ff16815181106102eb576102ea610b69565b5b60200260200101818152505060005b8760ff168160ff1610156103c4577fffffffffffffffffffffffffffffffffffffffffffffffffffffffffffffff4381836103359190610e3d565b858360ff168151811061034b5761034a610b69565b5b602002602001015161035d9190610e88565b868560ff168151811061037357610372610b69565b5b60200260200101516103859190610ee2565b61038f9190610c4a565b858460ff16815181106103a5576103a4610b69565b5b60200260200101818152505080806103bc90610caa565b9150506102fa565b505080806103d190610caa565b9150506102b1565b5081925050509392505050565b60008160ff168351101561042f576040517f08c379a000000000000000000000000000000000000000000000000000000000815260040161042690610f84565b60405180910390fd5b6000805b8360ff168160ff16101561061b576000858260ff168151811061045957610458610b69565b5b6020026020010151905060006001905060006001905060005b8760ff168160ff161015610597578060ff168560ff1614610584576000898260ff16815181106104a5576104a4610b69565b5b602002602001015190507fffffffffffffffffffffffffffffffffffffffffffffffffffffffffffffff43817fffffffffffffffffffffffffffffffffffffffffffffffffffffffffffffff43866104fd9190610e88565b6105079190610ee2565b6105119190610c4a565b93507fffffffffffffffffffffffffffffffffffffffffffffffffffffffffffffff43817fffffffffffffffffffffffffffffffffffffffffffffffffffffffffffffff43876105619190610ee2565b61056b9190610fa4565b846105769190610e88565b6105809190610c4a565b9250505b808061058f90610caa565b915050610472565b507fffffffffffffffffffffffffffffffffffffffffffffffffffffffffffffff436105e3827fffffffffffffffffffffffffffffffffffffffffffffffffffffffffffffff43610626565b836105ee9190610e88565b866105f99190610ee2565b6106039190610c4a565b9450505050808061061390610caa565b915050610433565b508091505092915050565b600080821161066a576040517f08c379a000000000000000000000000000000000000000000000000000000000815260040161066190611024565b60405180910390fd5b60008311801561067957508183105b6106b8576040517f08c379a00000000000000000000000000000000000000000000000000000000081526004016106af90611090565b60405180910390fd5b600080600080859050600087905060009450600193508192505b600181131561073157600082826106e991906110ba565b90508283826106f89190611124565b83610703919061123b565b80945081935050508485826107189190611124565b87610723919061123b565b8096508197505050506106d2565b600084121561074957868461074691906112cf565b93505b839550505050505092915050565b6000819050919050565b61076a81610757565b82525050565b60006020820190506107856000830184610761565b92915050565b6000604051905090565b600080fd5b600080fd5b6107a881610757565b81146107b357600080fd5b50565b6000813590506107c58161079f565b92915050565b600060ff82169050919050565b6107e1816107cb565b81146107ec57600080fd5b50565b6000813590506107fe816107d8565b92915050565b60008060006060848603121561081d5761081c610795565b5b600061082b868287016107b6565b935050602061083c868287016107ef565b925050604061084d868287016107ef565b9150509250925092565b600081519050919050565b600082825260208201905092915050565b6000819050602082019050919050565b61088c81610757565b82525050565b600061089e8383610883565b60208301905092915050565b6000602082019050919050565b60006108c282610857565b6108cc8185610862565b93506108d783610873565b8060005b838110156109085781516108ef8882610892565b97506108fa836108aa565b9250506001810190506108db565b5085935050505092915050565b6000602082019050818103600083015261092f81846108b7565b905092915050565b600080fd5b6000601f19601f8301169050919050565b7f4e487b7100000000000000000000000000000000000000000000000000000000600052604160045260246000fd5b6109858261093c565b810181811067ffffffffffffffff821117156109a4576109a361094d565b5b80604052505050565b60006109b761078b565b90506109c3828261097c565b919050565b600067ffffffffffffffff8211156109e3576109e261094d565b5b602082029050602081019050919050565b600080fd5b6000610a0c610a07846109c8565b6109ad565b90508083825260208201905060208402830185811115610a2f57610a2e6109f4565b5b835b81811015610a585780610a4488826107b6565b845260208401935050602081019050610a31565b5050509392505050565b600082601f830112610a7757610a76610937565b5b8135610a878482602086016109f9565b91505092915050565b60008060408385031215610aa757610aa6610795565b5b600083013567ffffffffffffffff811115610ac557610ac461079a565b5b610ad185828601610a62565b9250506020610ae2858286016107ef565b9150509250929050565b600082825260208201905092915050565b7f5365637265742065786365656473207072696d65206d6f64756c757300000000600082015250565b6000610b33601c83610aec565b9150610b3e82610afd565b602082019050919050565b60006020820190508181036000830152610b6281610b26565b9050919050565b7f4e487b7100000000000000000000000000000000000000000000000000000000600052603260045260246000fd5b6000819050919050565b610bb3610bae82610757565b610b98565b82525050565b60008160f81b9050919050565b6000610bd182610bb9565b9050919050565b610be9610be4826107cb565b610bc6565b82525050565b6000610bfb8285610ba2565b602082019150610c0b8284610bd8565b6001820191508190509392505050565b7f4e487b7100000000000000000000000000000000000000000000000000000000600052601260045260246000fd5b6000610c5582610757565b9150610c6083610757565b925082610c7057610c6f610c1b565b5b828206905092915050565b7f4e487b7100000000000000000000000000000000000000000000000000000000600052601160045260246000fd5b6000610cb5826107cb565b915060ff8203610cc857610cc7610c7b565b5b600182019050919050565b6000610cde826107cb565b9150610ce9836107cb565b92508260ff03821115610cff57610cfe610c7b565b5b828201905092915050565b60008160011c9050919050565b6000808291508390505b6001851115610d6157808604811115610d3d57610d3c610c7b565b5b6001851615610d4c5780820291505b8081029050610d5a85610d0a565b9450610d21565b94509492505050565b600082610d7a5760019050610e36565b81610d885760009050610e36565b8160018114610d9e5760028114610da857610dd7565b6001915050610e36565b60ff841115610dba57610db9610c7b565b5b8360020a915084821115610dd157610dd0610c7b565b5b50610e36565b5060208310610133831016604e8410600b8410161715610e0c5782820a905083811115610e0757610e06610c7b565b5b610e36565b610e198484846001610d17565b92509050818404811115610e3057610e2f610c7b565b5b81810290505b9392505050565b6000610e4882610757565b9150610e53836107cb565b9250610e807fffffffffffffffffffffffffffffffffffffffffffffffffffffffffffffffff8484610d6a565b905092915050565b6000610e9382610757565b9150610e9e83610757565b9250817fffffffffffffffffffffffffffffffffffffffffffffffffffffffffffffffff0483118215151615610ed757610ed6610c7b565b5b828202905092915050565b6000610eed82610757565b9150610ef883610757565b9250827fffffffffffffffffffffffffffffffffffffffffffffffffffffffffffffffff03821115610f2d57610f2c610c7b565b5b828201905092915050565b7f4e6f7420656e6f756768207368617265732070726f7669646564000000000000600082015250565b6000610f6e601a83610aec565b9150610f7982610f38565b602082019050919050565b60006020820190508181036000830152610f9d81610f61565b9050919050565b6000610faf82610757565b9150610fba83610757565b925082821015610fcd57610fcc610c7b565b5b828203905092915050565b7f4d6f64756c7573206d75737420626520706f7369746976650000000000000000600082015250565b600061100e601883610aec565b915061101982610fd8565b602082019050919050565b6000602082019050818103600083015261103d81611001565b9050919050565b7f496e76616c696420696e70757400000000000000000000000000000000000000600082015250565b600061107a600d83610aec565b915061108582611044565b602082019050919050565b600060208201905081810360008301526110a98161106d565b9050919050565b6000819050919050565b60006110c5826110b0565b91506110d0836110b0565b9250826110e0576110df610c1b565b5b600160000383147f80000000000000000000000000000000000000000000000000000000000000008314161561111957611118610c7b565b5b828205905092915050565b600061112f826110b0565b915061113a836110b0565b9250827f7fffffffffffffffffffffffffffffffffffffffffffffffffffffffffffffff048211600084136000841316161561117957611178610c7b565b5b817f800000000000000000000000000000000000000000000000000000000000000005831260008412600084131616156111b6576111b5610c7b565b5b827f800000000000000000000000000000000000000000000000000000000000000005821260008413600084121616156111f3576111f2610c7b565b5b827f7fffffffffffffffffffffffffffffffffffffffffffffffffffffffffffffff05821260008412600084121616156112305761122f610c7b565b5b828202905092915050565b6000611246826110b0565b9150611251836110b0565b9250827f80000000000000000000000000000000000000000000000000000000000000000182126000841215161561128c5761128b610c7b565b5b827f7fffffffffffffffffffffffffffffffffffffffffffffffffffffffffffffff0182136000841216156112c4576112c3610c7b565b5b828203905092915050565b60006112da826110b0565b91506112e5836110b0565b9250817f7fffffffffffffffffffffffffffffffffffffffffffffffffffffffffffffff038313600083121516156113205761131f610c7b565b5b817f800000000000000000000000000000000000000000000000000000000000000003831260008312161561135857611357610c7b565b5b82820190509291505056fea2646970667358221220a45a7b4110a74ea6517a74979ec9c0785aeb01b6ffa7db92556adbffe4bc2ded64736f6c634300080d0033",
  "immutableReferences": {},
  "source": "// SPDX-License-Identifier: MIT\npragma solidity ^0.8.13;\nimport \"./ShamirSecretSharing.sol\";\n\ncontract FileStorageSSS {\n    struct File {\n        string name;\n        uint8 threshold; // Threshold for Shamir's Secret Sharing (4)\n        uint8 numShares; // Number of shares for Shamir's Secret Sharing (4)\n        uint256[] contentShares; // Shamir's Secret Sharing shares of content (4 shares)\n        address owner;\n    }\n\n\n    File[] files;\n    mapping(address => uint[]) private ownerIndexes;\n    uint256 public fileId;\n\n    uint8 constant public THRESHOLD = 2; // Minimum number of shares to reconstruct\n    uint8 constant public TOTAL_SHARES = 3; // Total number of shares to generate\n\n    // Initialize the Shamir's Secret Sharing contract\n    ShamirSecretSharing public sss = new ShamirSecretSharing();\n\n    constructor() {\n        fileId = 0;\n    }\n\n    function getOwnerFiles() public view returns (File[] memory) {\n        uint256 fileCount = ownerIndexes[msg.sender].length;\n\n        File[] memory ownerFiles = new File[](fileCount);\n\n        for (uint256 i = 0; i < fileCount; i++) {\n            ownerFiles[i] = files[ownerIndexes[msg.sender][i]];\n        }\n\n        return ownerFiles;\n    }\n\n    function addFile(string memory name, string memory content) public {\n        uint256 index = files.length;\n        uint256 secret = uint256(keccak256(abi.encodePacked(content)));\n        uint256[] memory contentShares = sss.splitSecret(secret, THRESHOLD, TOTAL_SHARES); // Split into 4 shares, each stored on a separate node\n        files.push(File(name, THRESHOLD, TOTAL_SHARES, contentShares, msg.sender));\n        ownerIndexes[msg.sender].push(index);\n        fileId++;\n    }\n\n    function getFile(uint256 _fileId) public view returns (string memory name, string memory content) {\n        require(msg.sender == files[_fileId].owner, \"You are not authorized to view this file.\");\n        uint256 secret = sss.combineShares(files[_fileId].contentShares, THRESHOLD);\n        return (files[_fileId].name, bytes32ToString(bytes32(secret)));\n    }\n\n    function updateFile(uint256 index, string memory name, string memory content) public {\n        require(index < files.length, \"Invalid file index\");\n        require(files[index].owner == msg.sender, \"Not authorized to update file\");\n        uint256 secret = uint256(keccak256(abi.encodePacked(content)));\n        uint256[] memory contentShares = sss.splitSecret(secret, THRESHOLD, TOTAL_SHARES); // Split into 4 shares, each stored on a separate node\n        files[index] = File(name, THRESHOLD, TOTAL_SHARES, contentShares, msg.sender);\n    }\n\n    // Utility function to convert bytes32 to a string\n    function bytes32ToString(bytes32 _bytes32) internal pure returns (string memory) {\n        uint8 i = 0;\n        while (i < 32 && _bytes32[i] != 0) {\n            i++;\n        }\n        bytes memory bytesArray = new bytes(i);\n        for (i = 0; i < 32 && _bytes32[i] != 0; i++) {\n            bytesArray[i] = _bytes32[i];\n        }\n        return string(bytesArray);\n    }\n}",
  "sourcePath": "/home/aurel/Disertatie/Truffle/contracts/FileStorage.sol",
  "compiler": {
    "name": "solc",
    "version": "0.8.13+commit.abaa5c0e.Emscripten.clang"
  },
  "schemaVersion": "3.4.16",
  "updatedAt": "2023-10-07T20:54:30.681Z",
  "devdoc": {
    "kind": "dev",
    "methods": {},
    "version": 1
  },
  "userdoc": {
    "kind": "user",
    "methods": {},
    "version": 1
  }
}