{
  "contractName": "mergeSplit",
  "abi": [
    {
      "inputs": [],
      "name": "PRIME",
      "outputs": [
        {
          "internalType": "uint256",
          "name": "",
          "type": "uint256"
        }
      ],
      "stateMutability": "view",
      "type": "function"
    },
    {
      "inputs": [
        {
          "internalType": "uint256",
          "name": "",
          "type": "uint256"
        }
      ],
      "name": "files",
      "outputs": [
        {
          "internalType": "uint256",
          "name": "secret",
          "type": "uint256"
        }
      ],
      "stateMutability": "view",
      "type": "function"
    },
    {
      "inputs": [],
      "name": "minimumShares",
      "outputs": [
        {
          "internalType": "uint8",
          "name": "",
          "type": "uint8"
        }
      ],
      "stateMutability": "view",
      "type": "function"
    },
    {
      "inputs": [],
      "name": "numShares",
      "outputs": [
        {
          "internalType": "uint8",
          "name": "",
          "type": "uint8"
        }
      ],
      "stateMutability": "view",
      "type": "function"
    },
    {
      "inputs": [
        {
          "internalType": "uint256",
          "name": "secret",
          "type": "uint256"
        }
      ],
      "name": "makeRandomShares",
      "outputs": [],
      "stateMutability": "nonpayable",
      "type": "function"
    },
    {
      "inputs": [
        {
          "internalType": "uint256",
          "name": "fileIndex",
          "type": "uint256"
        }
      ],
      "name": "recoverSecret",
      "outputs": [
        {
          "internalType": "uint256",
          "name": "",
          "type": "uint256"
        }
      ],
      "stateMutability": "view",
      "type": "function"
    }
  ],
  "bytecode": "0x608060405260026000806101000a81548160ff021916908360ff1602179055506003600060016101000a81548160ff021916908360ff16021790555034801561004757600080fd5b5061127b806100576000396000f3fe608060405234801561001057600080fd5b50600436106100615760003560e01c806217cd8b14610066578063393c169c14610084578063708ab4b3146100b45780638d78fd0b146100d0578063eed3a6fe146100ee578063f4c714b41461010c575b600080fd5b61006e61013c565b60405161007b9190610a9f565b60405180910390f35b61009e60048036038101906100999190610aeb565b610150565b6040516100ab9190610a9f565b60405180910390f35b6100ce60048036038101906100c99190610aeb565b6104f1565b005b6100d8610712565b6040516100e59190610b34565b60405180910390f35b6100f6610723565b6040516101039190610b34565b60405180910390f35b61012660048036038101906101219190610aeb565b610736565b6040516101339190610a9f565b60405180910390f35b6f7fffffffffffffffffffffffffffffff81565b60006001805490508210610199576040517f08c379a000000000000000000000000000000000000000000000000000000000815260040161019090610bac565b60405180910390fd5b6000600183815481106101af576101ae610bcc565b5b906000526020600020906003020190506000816002018054905067ffffffffffffffff8111156101e2576101e1610bfb565b5b6040519080825280602002602001820160405280156102105781602001602082028036833780820191505090505b5090506000826002018054905067ffffffffffffffff81111561023657610235610bfb565b5b6040519080825280602002602001820160405280156102645781602001602082028036833780820191505090505b50905060005b836002018054905081101561030a57600084600201828154811061029157610290610bcc565b5b90600052602060002001549050808483815181106102b2576102b1610bcc565b5b602002602001018181525050846001016000828152602001908152602001600020600101548383815181106102ea576102e9610bcc565b5b60200260200101818152505050808061030290610c59565b91505061026a565b506000836002018054905067ffffffffffffffff81111561032e5761032d610bfb565b5b60405190808252806020026020018201604052801561035c5781602001602082028036833780820191505090505b50905060005b84600201805490508110156103d457600085600201828154811061038957610388610bcc565b5b906000526020600020015490506103a1818686610764565b8383815181106103b4576103b3610bcc565b5b6020026020010181815250505080806103cc90610c59565b915050610362565b506000816000815181106103eb576103ea610bcc565b5b602002602001015190506000600190505b85600201805490508110156104e357846001826104199190610ca1565b8151811061042a57610429610bcc565b5b602002602001015185828151811061044557610444610bcc565b5b60200260200101510361048d576040517f08c379a000000000000000000000000000000000000000000000000000000000815260040161048490610d21565b60405180910390fd5b6f7fffffffffffffffffffffffffffffff8382815181106104b1576104b0610bcc565b5b6020026020010151836104c49190610d41565b6104ce9190610dca565b915080806104db90610c59565b9150506103fc565b508095505050505050919050565b60008060009054906101000a900460ff1660ff1667ffffffffffffffff81111561051e5761051d610bfb565b5b60405190808252806020026020018201604052801561054c5781602001602082028036833780820191505090505b509050818160008151811061056457610563610bcc565b5b6020026020010181815250506000600190505b60008054906101000a900460ff1660ff168160ff16101561060e576f7fffffffffffffffffffffffffffffff83826040516020016105b6929190610e52565b6040516020818303038152906040528051906020012060001c6105d99190610dca565b828260ff16815181106105ef576105ee610bcc565b5b602002602001018181525050808061060690610e7e565b915050610577565b5060006001808160018154018082558091505003906000526020600020906003020190508281600001819055506000600190505b600060019054906101000a900460ff1660ff168160ff161161070c5760008160ff169050600061068385836f7fffffffffffffffffffffffffffffff610958565b90506040518060400160405280838152602001828152508460010160008560ff16815260200190815260200160002060008201518160000155602082015181600101559050508360020183908060018154018082558091505060019003906000526020600020016000909160ff169091909150555050808061070490610e7e565b915050610642565b50505050565b60008054906101000a900460ff1681565b600060019054906101000a900460ff1681565b6001818154811061074657600080fd5b90600052602060002090600302016000915090508060000154905081565b60008083519050825181146107ae576040517f08c379a00000000000000000000000000000000000000000000000000000000081526004016107a590610ef3565b60405180910390fd5b6000805b8281101561094b5760006001905060006001905060005b858110156108a25780841461088f576f7fffffffffffffffffffffffffffffff8982815181106107fc576107fb610bcc565b5b60200260200101518b61080f9190610ca1565b8461081a9190610d41565b6108249190610dca565b92506f7fffffffffffffffffffffffffffffff89828151811061084a57610849610bcc565b5b60200260200101518a868151811061086557610864610bcc565b5b60200260200101516108779190610ca1565b836108829190610d41565b61088c9190610dca565b91505b808061089a90610c59565b9150506107c9565b5060006f7fffffffffffffffffffffffffffffff6108d0836f7fffffffffffffffffffffffffffffff6109d8565b8986815181106108e3576108e2610bcc565b5b6020026020010151856108f69190610d41565b6109009190610d41565b61090a9190610dca565b90506f7fffffffffffffffffffffffffffffff81866109299190610f13565b6109339190610dca565b9450505050808061094390610c59565b9150506107b2565b5080925050509392505050565b600080600090506000855190505b60008111156109cc57838660018361097e9190610ca1565b8151811061098f5761098e610bcc565b5b602002602001015186846109a39190610d41565b6109ad9190610f13565b6109b79190610dca565b915080806109c490610f69565b915050610966565b50809150509392505050565b600080600060019050600085905060008590505b60008114610a4a5760008183610a029190610f9c565b9050838482610a119190611006565b86610a1c919061111d565b8095508196505050818282610a319190611006565b84610a3c919061111d565b8093508194505050506109ec565b6001821315610a60576000945050505050610a80565b6000841215610a78578584610a7591906111b1565b93505b839450505050505b92915050565b6000819050919050565b610a9981610a86565b82525050565b6000602082019050610ab46000830184610a90565b92915050565b600080fd5b610ac881610a86565b8114610ad357600080fd5b50565b600081359050610ae581610abf565b92915050565b600060208284031215610b0157610b00610aba565b5b6000610b0f84828501610ad6565b91505092915050565b600060ff82169050919050565b610b2e81610b18565b82525050565b6000602082019050610b496000830184610b25565b92915050565b600082825260208201905092915050565b7f496e76616c69642066696c6520696e6465780000000000000000000000000000600082015250565b6000610b96601283610b4f565b9150610ba182610b60565b602082019050919050565b60006020820190508181036000830152610bc581610b89565b9050919050565b7f4e487b7100000000000000000000000000000000000000000000000000000000600052603260045260246000fd5b7f4e487b7100000000000000000000000000000000000000000000000000000000600052604160045260246000fd5b7f4e487b7100000000000000000000000000000000000000000000000000000000600052601160045260246000fd5b6000610c6482610a86565b91507fffffffffffffffffffffffffffffffffffffffffffffffffffffffffffffffff8203610c9657610c95610c2a565b5b600182019050919050565b6000610cac82610a86565b9150610cb783610a86565b925082821015610cca57610cc9610c2a565b5b828203905092915050565b7f536861726520782076616c756573206d7573742062652064697374696e637400600082015250565b6000610d0b601f83610b4f565b9150610d1682610cd5565b602082019050919050565b60006020820190508181036000830152610d3a81610cfe565b9050919050565b6000610d4c82610a86565b9150610d5783610a86565b9250817fffffffffffffffffffffffffffffffffffffffffffffffffffffffffffffffff0483118215151615610d9057610d8f610c2a565b5b828202905092915050565b7f4e487b7100000000000000000000000000000000000000000000000000000000600052601260045260246000fd5b6000610dd582610a86565b9150610de083610a86565b925082610df057610def610d9b565b5b828206905092915050565b6000819050919050565b610e16610e1182610a86565b610dfb565b82525050565b60008160f81b9050919050565b6000610e3482610e1c565b9050919050565b610e4c610e4782610b18565b610e29565b82525050565b6000610e5e8285610e05565b602082019150610e6e8284610e3b565b6001820191508190509392505050565b6000610e8982610b18565b915060ff8203610e9c57610e9b610c2a565b5b600182019050919050565b7f4d69736d61746368656420696e70757420617272617973000000000000000000600082015250565b6000610edd601783610b4f565b9150610ee882610ea7565b602082019050919050565b60006020820190508181036000830152610f0c81610ed0565b9050919050565b6000610f1e82610a86565b9150610f2983610a86565b9250827fffffffffffffffffffffffffffffffffffffffffffffffffffffffffffffffff03821115610f5e57610f5d610c2a565b5b828201905092915050565b6000610f7482610a86565b915060008203610f8757610f86610c2a565b5b600182039050919050565b6000819050919050565b6000610fa782610f92565b9150610fb283610f92565b925082610fc257610fc1610d9b565b5b600160000383147f800000000000000000000000000000000000000000000000000000000000000083141615610ffb57610ffa610c2a565b5b828205905092915050565b600061101182610f92565b915061101c83610f92565b9250827f7fffffffffffffffffffffffffffffffffffffffffffffffffffffffffffffff048211600084136000841316161561105b5761105a610c2a565b5b817f8000000000000000000000000000000000000000000000000000000000000000058312600084126000841316161561109857611097610c2a565b5b827f800000000000000000000000000000000000000000000000000000000000000005821260008413600084121616156110d5576110d4610c2a565b5b827f7fffffffffffffffffffffffffffffffffffffffffffffffffffffffffffffff058212600084126000841216161561111257611111610c2a565b5b828202905092915050565b600061112882610f92565b915061113383610f92565b9250827f80000000000000000000000000000000000000000000000000000000000000000182126000841215161561116e5761116d610c2a565b5b827f7fffffffffffffffffffffffffffffffffffffffffffffffffffffffffffffff0182136000841216156111a6576111a5610c2a565b5b828203905092915050565b60006111bc82610f92565b91506111c783610f92565b9250817f7fffffffffffffffffffffffffffffffffffffffffffffffffffffffffffffff0383136000831215161561120257611201610c2a565b5b817f800000000000000000000000000000000000000000000000000000000000000003831260008312161561123a57611239610c2a565b5b82820190509291505056fea2646970667358221220a1038b3ccdcef2e822b05be2e38638548f122f4b4ebbb23d4b01960e114be70964736f6c634300080d0033",
  "immutableReferences": {},
  "source": "// SPDX-License-Identifier: MIT\npragma solidity ^0.8.13;\n\ncontract mergeSplit {\n    uint256 constant public PRIME = 2 ** 127 - 1;\n    uint8 public minimumShares = 2;\n    uint8 public numShares = 3;\n\n    struct Share {\n        uint256 x;\n        uint256 y;\n    }\n\n    struct File {\n        uint256 secret;\n        mapping(uint256 => Share) shares;\n        uint256[] shareIndices;\n    }\n\n    File[] public files;\n\n    function evalAt(uint256[] memory poly, uint256 x, uint256 prime) internal pure returns (uint256) {\n        uint256 accum = 0;\n        for (uint256 i = poly.length; i > 0; i--) {\n            accum = (accum * x + poly[i - 1]) % prime;\n        }\n        return accum;\n    }\n\n    function makeRandomShares(uint256 secret) public {\n        uint256[] memory poly = new uint256[](minimumShares);\n        poly[0] = secret;\n\n        for (uint8 i = 1; i < minimumShares; i++) {\n            poly[i] = uint256(keccak256(abi.encodePacked(secret, i))) % PRIME;\n        }\n\n        File storage newFile = files.push();\n        newFile.secret = secret;\n\n        for (uint8 i = 1; i <= numShares; i++) {\n            uint256 x = i;\n            uint256 y = evalAt(poly, x, PRIME);\n            newFile.shares[i] = Share(x, y);\n            newFile.shareIndices.push(i);\n        }\n        \n    }\n\n    function lagrangeInterpolate(uint256 x, uint256[] memory xS, uint256[] memory yS) internal pure returns (uint256) {\n        uint256 k = xS.length;\n        require(k == yS.length, \"Mismatched input arrays\");\n        uint256 accum = 0;\n        for (uint256 i = 0; i < k; i++) {\n            uint256 num = 1;\n            uint256 den = 1;\n            for (uint256 j = 0; j < k; j++) {\n                if (i != j) {\n                    num = (num * (x - xS[j])) % PRIME;\n                    den = (den * (xS[i] - xS[j])) % PRIME;\n                }\n            }\n            uint256 lagrangeCoeff = (num * yS[i] * modInv(den, PRIME)) % PRIME;\n            accum = (accum + lagrangeCoeff) % PRIME;\n        }\n        return accum;\n    }\n\n    function recoverSecret(uint256 fileIndex) public view returns (uint256) {\n        require(fileIndex < files.length, \"Invalid file index\");\n\n        File storage file = files[fileIndex];\n        uint256[] memory xS = new uint256[](file.shareIndices.length);\n        uint256[] memory yS = new uint256[](file.shareIndices.length);\n\n        for (uint256 i = 0; i < file.shareIndices.length; i++) {\n            uint256 x = file.shareIndices[i];\n            xS[i] = x;\n            yS[i] = file.shares[x].y;\n        }\n\n        uint256[] memory interpolatedValues = new uint256[](file.shareIndices.length);\n\n        for (uint256 i = 0; i < file.shareIndices.length; i++) {\n            uint256 x = file.shareIndices[i];\n            interpolatedValues[i] = lagrangeInterpolate(x, xS, yS);\n        }\n\n        uint256 recoveredSecret = interpolatedValues[0];\n        for (uint256 i = 1; i < file.shareIndices.length; i++) {\n            require(xS[i] != xS[i - 1], \"Share x values must be distinct\");\n            recoveredSecret = (recoveredSecret * interpolatedValues[i]) % PRIME;\n        }\n\n        return recoveredSecret;\n    }\n\n    function modInv(uint256 a, uint256 m) internal pure returns (uint256) {\n        int256 t;\n        int256 newT = 1;\n        int256 r = int256(a);\n        int256 newR = int256(m);\n\n        while (newR != 0) {\n            int256 quotient = r / newR;\n            (t, newT) = (newT, t - quotient * newT);\n            (r, newR) = (newR, r - quotient * newR);\n        }\n\n        if (r > 1) return 0; // No modular inverse exists\n        if (t < 0) t += int256(m);\n\n        return uint256(t);\n    }\n}\n",
  "sourcePath": "/home/aurel/Disertatie/Truffle/contracts/mergeSplit.sol",
  "compiler": {
    "name": "solc",
    "version": "0.8.13+commit.abaa5c0e.Emscripten.clang"
  },
  "schemaVersion": "3.4.16",
  "updatedAt": "2023-10-11T11:58:46.624Z",
  "devdoc": {
    "kind": "dev",
    "methods": {},
    "version": 1
  },
  "userdoc": {
    "kind": "user",
    "methods": {},
    "version": 1
  }
}