{
  "contractName": "ShamirSecretSharing",
  "abi": [
    {
      "inputs": [],
      "stateMutability": "nonpayable",
      "type": "constructor"
    },
    {
      "inputs": [],
      "name": "PRIME",
      "outputs": [
        {
          "internalType": "uint256",
          "name": "",
          "type": "uint256"
        }
      ],
      "stateMutability": "view",
      "type": "function",
      "constant": true
    },
    {
      "inputs": [
        {
          "internalType": "uint256",
          "name": "secret",
          "type": "uint256"
        },
        {
          "internalType": "uint8",
          "name": "THRESHOLD",
          "type": "uint8"
        },
        {
          "internalType": "uint8",
          "name": "TOTAL_SHARES",
          "type": "uint8"
        }
      ],
      "name": "splitSecret",
      "outputs": [
        {
          "internalType": "uint256[]",
          "name": "",
          "type": "uint256[]"
        }
      ],
      "stateMutability": "pure",
      "type": "function",
      "constant": true
    },
    {
      "inputs": [
        {
          "internalType": "uint256[]",
          "name": "shares",
          "type": "uint256[]"
        },
        {
          "internalType": "uint8",
          "name": "THRESHOLD",
          "type": "uint8"
        }
      ],
      "name": "combineShares",
      "outputs": [
        {
          "internalType": "uint256",
          "name": "",
          "type": "uint256"
        }
      ],
      "stateMutability": "pure",
      "type": "function",
      "constant": true
    }
  ],
  "bytecode": "0x608060405234801561001057600080fd5b50611399806100206000396000f3fe608060405234801561001057600080fd5b50600436106100405760003560e01c806217cd8b146100455780631299ac8f14610063578063eff90d0514610093575b600080fd5b61004d6100c3565b60405161005a9190610770565b60405180910390f35b61007d60048036038101906100789190610804565b6100e7565b60405161008a9190610915565b60405180910390f35b6100ad60048036038101906100a89190610a90565b6103e6565b6040516100ba9190610770565b60405180910390f35b7fffffffffffffffffffffffffffffffffffffffffffffffffffffffffffffff4381565b60607fffffffffffffffffffffffffffffffffffffffffffffffffffffffffffffff43841061014b576040517f08c379a000000000000000000000000000000000000000000000000000000000815260040161014290610b49565b60405180910390fd5b60008260ff1667ffffffffffffffff81111561016a5761016961094d565b5b6040519080825280602002602001820160405280156101985781602001602082028036833780820191505090505b50905060008460ff1667ffffffffffffffff8111156101ba576101b961094d565b5b6040519080825280602002602001820160405280156101e85781602001602082028036833780820191505090505b5090508581600081518110610200576101ff610b69565b5b6020026020010181815250506000600190505b8560ff168160ff1610156102ad577fffffffffffffffffffffffffffffffffffffffffffffffffffffffffffffff438782604051602001610255929190610bef565b6040516020818303038152906040528051906020012060001c6102789190610c4a565b828260ff168151811061028e5761028d610b69565b5b60200260200101818152505080806102a590610caa565b915050610213565b5060005b8460ff168160ff1610156103d95760006001826102ce9190610cd3565b60ff1690506000848360ff16815181106102eb576102ea610b69565b5b60200260200101818152505060005b8760ff168160ff1610156103c4577fffffffffffffffffffffffffffffffffffffffffffffffffffffffffffffff4381836103359190610e3d565b858360ff168151811061034b5761034a610b69565b5b602002602001015161035d9190610e88565b868560ff168151811061037357610372610b69565b5b60200260200101516103859190610ee2565b61038f9190610c4a565b858460ff16815181106103a5576103a4610b69565b5b60200260200101818152505080806103bc90610caa565b9150506102fa565b505080806103d190610caa565b9150506102b1565b5081925050509392505050565b60008160ff168351101561042f576040517f08c379a000000000000000000000000000000000000000000000000000000000815260040161042690610f84565b60405180910390fd5b6000805b8360ff168160ff16101561061b576000858260ff168151811061045957610458610b69565b5b6020026020010151905060006001905060006001905060005b8760ff168160ff161015610597578060ff168560ff1614610584576000898260ff16815181106104a5576104a4610b69565b5b602002602001015190507fffffffffffffffffffffffffffffffffffffffffffffffffffffffffffffff43817fffffffffffffffffffffffffffffffffffffffffffffffffffffffffffffff43866104fd9190610e88565b6105079190610ee2565b6105119190610c4a565b93507fffffffffffffffffffffffffffffffffffffffffffffffffffffffffffffff43817fffffffffffffffffffffffffffffffffffffffffffffffffffffffffffffff43876105619190610ee2565b61056b9190610fa4565b846105769190610e88565b6105809190610c4a565b9250505b808061058f90610caa565b915050610472565b507fffffffffffffffffffffffffffffffffffffffffffffffffffffffffffffff436105e3827fffffffffffffffffffffffffffffffffffffffffffffffffffffffffffffff43610626565b836105ee9190610e88565b866105f99190610ee2565b6106039190610c4a565b9450505050808061061390610caa565b915050610433565b508091505092915050565b600080821161066a576040517f08c379a000000000000000000000000000000000000000000000000000000000815260040161066190611024565b60405180910390fd5b60008311801561067957508183105b6106b8576040517f08c379a00000000000000000000000000000000000000000000000000000000081526004016106af90611090565b60405180910390fd5b600080600080859050600087905060009450600193508192505b600181131561073157600082826106e991906110ba565b90508283826106f89190611124565b83610703919061123b565b80945081935050508485826107189190611124565b87610723919061123b565b8096508197505050506106d2565b600084121561074957868461074691906112cf565b93505b839550505050505092915050565b6000819050919050565b61076a81610757565b82525050565b60006020820190506107856000830184610761565b92915050565b6000604051905090565b600080fd5b600080fd5b6107a881610757565b81146107b357600080fd5b50565b6000813590506107c58161079f565b92915050565b600060ff82169050919050565b6107e1816107cb565b81146107ec57600080fd5b50565b6000813590506107fe816107d8565b92915050565b60008060006060848603121561081d5761081c610795565b5b600061082b868287016107b6565b935050602061083c868287016107ef565b925050604061084d868287016107ef565b9150509250925092565b600081519050919050565b600082825260208201905092915050565b6000819050602082019050919050565b61088c81610757565b82525050565b600061089e8383610883565b60208301905092915050565b6000602082019050919050565b60006108c282610857565b6108cc8185610862565b93506108d783610873565b8060005b838110156109085781516108ef8882610892565b97506108fa836108aa565b9250506001810190506108db565b5085935050505092915050565b6000602082019050818103600083015261092f81846108b7565b905092915050565b600080fd5b6000601f19601f8301169050919050565b7f4e487b7100000000000000000000000000000000000000000000000000000000600052604160045260246000fd5b6109858261093c565b810181811067ffffffffffffffff821117156109a4576109a361094d565b5b80604052505050565b60006109b761078b565b90506109c3828261097c565b919050565b600067ffffffffffffffff8211156109e3576109e261094d565b5b602082029050602081019050919050565b600080fd5b6000610a0c610a07846109c8565b6109ad565b90508083825260208201905060208402830185811115610a2f57610a2e6109f4565b5b835b81811015610a585780610a4488826107b6565b845260208401935050602081019050610a31565b5050509392505050565b600082601f830112610a7757610a76610937565b5b8135610a878482602086016109f9565b91505092915050565b60008060408385031215610aa757610aa6610795565b5b600083013567ffffffffffffffff811115610ac557610ac461079a565b5b610ad185828601610a62565b9250506020610ae2858286016107ef565b9150509250929050565b600082825260208201905092915050565b7f5365637265742065786365656473207072696d65206d6f64756c757300000000600082015250565b6000610b33601c83610aec565b9150610b3e82610afd565b602082019050919050565b60006020820190508181036000830152610b6281610b26565b9050919050565b7f4e487b7100000000000000000000000000000000000000000000000000000000600052603260045260246000fd5b6000819050919050565b610bb3610bae82610757565b610b98565b82525050565b60008160f81b9050919050565b6000610bd182610bb9565b9050919050565b610be9610be4826107cb565b610bc6565b82525050565b6000610bfb8285610ba2565b602082019150610c0b8284610bd8565b6001820191508190509392505050565b7f4e487b7100000000000000000000000000000000000000000000000000000000600052601260045260246000fd5b6000610c5582610757565b9150610c6083610757565b925082610c7057610c6f610c1b565b5b828206905092915050565b7f4e487b7100000000000000000000000000000000000000000000000000000000600052601160045260246000fd5b6000610cb5826107cb565b915060ff8203610cc857610cc7610c7b565b5b600182019050919050565b6000610cde826107cb565b9150610ce9836107cb565b92508260ff03821115610cff57610cfe610c7b565b5b828201905092915050565b60008160011c9050919050565b6000808291508390505b6001851115610d6157808604811115610d3d57610d3c610c7b565b5b6001851615610d4c5780820291505b8081029050610d5a85610d0a565b9450610d21565b94509492505050565b600082610d7a5760019050610e36565b81610d885760009050610e36565b8160018114610d9e5760028114610da857610dd7565b6001915050610e36565b60ff841115610dba57610db9610c7b565b5b8360020a915084821115610dd157610dd0610c7b565b5b50610e36565b5060208310610133831016604e8410600b8410161715610e0c5782820a905083811115610e0757610e06610c7b565b5b610e36565b610e198484846001610d17565b92509050818404811115610e3057610e2f610c7b565b5b81810290505b9392505050565b6000610e4882610757565b9150610e53836107cb565b9250610e807fffffffffffffffffffffffffffffffffffffffffffffffffffffffffffffffff8484610d6a565b905092915050565b6000610e9382610757565b9150610e9e83610757565b9250817fffffffffffffffffffffffffffffffffffffffffffffffffffffffffffffffff0483118215151615610ed757610ed6610c7b565b5b828202905092915050565b6000610eed82610757565b9150610ef883610757565b9250827fffffffffffffffffffffffffffffffffffffffffffffffffffffffffffffffff03821115610f2d57610f2c610c7b565b5b828201905092915050565b7f4e6f7420656e6f756768207368617265732070726f7669646564000000000000600082015250565b6000610f6e601a83610aec565b9150610f7982610f38565b602082019050919050565b60006020820190508181036000830152610f9d81610f61565b9050919050565b6000610faf82610757565b9150610fba83610757565b925082821015610fcd57610fcc610c7b565b5b828203905092915050565b7f4d6f64756c7573206d75737420626520706f7369746976650000000000000000600082015250565b600061100e601883610aec565b915061101982610fd8565b602082019050919050565b6000602082019050818103600083015261103d81611001565b9050919050565b7f496e76616c696420696e70757400000000000000000000000000000000000000600082015250565b600061107a600d83610aec565b915061108582611044565b602082019050919050565b600060208201905081810360008301526110a98161106d565b9050919050565b6000819050919050565b60006110c5826110b0565b91506110d0836110b0565b9250826110e0576110df610c1b565b5b600160000383147f80000000000000000000000000000000000000000000000000000000000000008314161561111957611118610c7b565b5b828205905092915050565b600061112f826110b0565b915061113a836110b0565b9250827f7fffffffffffffffffffffffffffffffffffffffffffffffffffffffffffffff048211600084136000841316161561117957611178610c7b565b5b817f800000000000000000000000000000000000000000000000000000000000000005831260008412600084131616156111b6576111b5610c7b565b5b827f800000000000000000000000000000000000000000000000000000000000000005821260008413600084121616156111f3576111f2610c7b565b5b827f7fffffffffffffffffffffffffffffffffffffffffffffffffffffffffffffff05821260008412600084121616156112305761122f610c7b565b5b828202905092915050565b6000611246826110b0565b9150611251836110b0565b9250827f80000000000000000000000000000000000000000000000000000000000000000182126000841215161561128c5761128b610c7b565b5b827f7fffffffffffffffffffffffffffffffffffffffffffffffffffffffffffffff0182136000841216156112c4576112c3610c7b565b5b828203905092915050565b60006112da826110b0565b91506112e5836110b0565b9250817f7fffffffffffffffffffffffffffffffffffffffffffffffffffffffffffffff038313600083121516156113205761131f610c7b565b5b817f800000000000000000000000000000000000000000000000000000000000000003831260008312161561135857611357610c7b565b5b82820190509291505056fea26469706673582212209a822d7bcf5ada89a1b384dc57279aaa9e19020ba5233a0606646e9a0ed9411764736f6c634300080d0033",
  "immutableReferences": {},
  "source": "// SPDX-License-Identifier: MIT\npragma solidity ^0.8.13;\n\ncontract ShamirSecretSharing {\n    uint256 constant public PRIME = 115792089237316195423570985008687907853269984665640564039457584007913129639747; // A large prime number\n\n    constructor() {\n        // Constructor with no parameters\n    }\n\n    function splitSecret(uint256 secret, uint8 THRESHOLD, uint8 TOTAL_SHARES) public pure returns (uint256[] memory) {\n    require(secret < PRIME, \"Secret exceeds prime modulus\");\n\n    uint256[] memory shares = new uint256[](TOTAL_SHARES);\n    uint256[] memory coef = new uint256[](THRESHOLD);\n\n    coef[0] = secret;\n\n    for (uint8 i = 1; i < THRESHOLD; i++) {\n        coef[i] = uint256(keccak256(abi.encodePacked(secret, i))) % PRIME;\n    }\n\n    for (uint8 i = 0; i < TOTAL_SHARES; i++) {\n        uint256 x = uint256(i + 1);\n\n        shares[i] = 0;\n        for (uint8 j = 0; j < THRESHOLD; j++) {\n            shares[i] = (shares[i] + coef[j] * (x ** j)) % PRIME;\n        }\n    }\n\n    return shares;\n}\n\n\n    function combineShares(uint256[] memory shares, uint8 THRESHOLD) public pure returns (uint256) {\n        require(shares.length >= THRESHOLD, \"Not enough shares provided\");\n\n        uint256 secret = 0;\n\n        for (uint8 i = 0; i < THRESHOLD; i++) {\n            uint256 xi = shares[i];\n            uint256 num = 1;\n            uint256 den = 1;\n\n            for (uint8 j = 0; j < THRESHOLD; j++) {\n                if (i != j) {\n                    uint256 xj = shares[j];\n                    num = (num * PRIME + xj) % PRIME;\n                    den = (den * (xi + PRIME - xj)) % PRIME;\n                }\n            }\n\n            secret = (secret + num * modInverse(den, PRIME)) % PRIME;\n        }\n\n        return secret;\n    }\n\n    function modInverse(uint256 a, uint256 m) internal pure returns (uint256) {\n        require(m > 0, \"Modulus must be positive\");\n        require(a > 0 && a < m, \"Invalid input\");\n\n        int256 t1;\n        int256 t2;\n        int256 t3;\n\n        int256 m0 = int256(m);\n        int256 a0 = int256(a);\n\n        t1 = 0;\n        t2 = 1;\n        t3 = m0;\n\n        while (a0 > 1) {\n            int256 quotient = a0 / m0;\n\n            (a0, m0) = (m0, a0 - quotient * m0);\n            (t1, t2) = (t2, t1 - quotient * t2);\n        }\n\n        if (t2 < 0) {\n            t2 += int256(m);\n        }\n\n        return uint256(t2);\n    }\n}\n",
  "sourcePath": "/home/aurel/Disertatie/Truffle/contracts/ShamirSecretSharing.sol",
  "compiler": {
    "name": "solc",
    "version": "0.8.13+commit.abaa5c0e.Emscripten.clang"
  },
  "schemaVersion": "3.4.16",
  "updatedAt": "2023-10-14T19:37:40.144Z",
  "networkType": "ethereum",
  "devdoc": {
    "kind": "dev",
    "methods": {},
    "version": 1
  },
  "userdoc": {
    "kind": "user",
    "methods": {},
    "version": 1
  }
}