{
  "contractName": "SSS",
  "abi": [
    {
      "inputs": [],
      "stateMutability": "nonpayable",
      "type": "constructor"
    },
    {
      "anonymous": false,
      "inputs": [
        {
          "indexed": true,
          "internalType": "address",
          "name": "user",
          "type": "address"
        },
        {
          "indexed": false,
          "internalType": "uint256[]",
          "name": "shares",
          "type": "uint256[]"
        }
      ],
      "name": "SharesGenerated",
      "type": "event"
    },
    {
      "inputs": [],
      "name": "PRIME",
      "outputs": [
        {
          "internalType": "uint256",
          "name": "",
          "type": "uint256"
        }
      ],
      "stateMutability": "view",
      "type": "function",
      "constant": true
    },
    {
      "inputs": [],
      "name": "THRESHOLD",
      "outputs": [
        {
          "internalType": "uint8",
          "name": "",
          "type": "uint8"
        }
      ],
      "stateMutability": "view",
      "type": "function",
      "constant": true
    },
    {
      "inputs": [],
      "name": "TOTAL_SHARES",
      "outputs": [
        {
          "internalType": "uint8",
          "name": "",
          "type": "uint8"
        }
      ],
      "stateMutability": "view",
      "type": "function",
      "constant": true
    },
    {
      "inputs": [
        {
          "internalType": "address",
          "name": "",
          "type": "address"
        },
        {
          "internalType": "uint256",
          "name": "",
          "type": "uint256"
        }
      ],
      "name": "userShares",
      "outputs": [
        {
          "internalType": "uint256",
          "name": "",
          "type": "uint256"
        }
      ],
      "stateMutability": "view",
      "type": "function",
      "constant": true
    },
    {
      "inputs": [
        {
          "internalType": "uint256",
          "name": "secret",
          "type": "uint256"
        }
      ],
      "name": "splitSecret",
      "outputs": [],
      "stateMutability": "nonpayable",
      "type": "function"
    },
    {
      "inputs": [
        {
          "internalType": "uint256[]",
          "name": "shares",
          "type": "uint256[]"
        }
      ],
      "name": "combineShares",
      "outputs": [
        {
          "internalType": "uint256",
          "name": "",
          "type": "uint256"
        }
      ],
      "stateMutability": "pure",
      "type": "function",
      "constant": true
    }
  ],
  "bytecode": "0x608060405234801561001057600080fd5b50611679806100206000396000f3fe608060405234801561001057600080fd5b50600436106100615760003560e01c806217cd8b146100665780634fb2fe5714610084578063785ffb37146100b457806385e3f997146100d2578063e53dc680146100f0578063e91e95de14610120575b600080fd5b61006e61013c565b60405161007b9190610981565b60405180910390f35b61009e60048036038101906100999190610b35565b610160565b6040516100ab9190610981565b60405180910390f35b6100bc6103a2565b6040516100c99190610b9a565b60405180910390f35b6100da6103a7565b6040516100e79190610b9a565b60405180910390f35b61010a60048036038101906101059190610c13565b6103ac565b6040516101179190610981565b60405180910390f35b61013a60048036038101906101359190610c53565b6103dd565b005b7fffffffffffffffffffffffffffffffffffffffffffffffffffffffffffffff4381565b6000600260ff16825110156101aa576040517f08c379a00000000000000000000000000000000000000000000000000000000081526004016101a190610cdd565b60405180910390fd5b6000805b600260ff168160ff161015610398576000848260ff16815181106101d5576101d4610cfd565b5b6020026020010151905060006001905060006001905060005b600260ff168160ff161015610314578060ff168560ff1614610301576000888260ff168151811061022257610221610cfd565b5b602002602001015190507fffffffffffffffffffffffffffffffffffffffffffffffffffffffffffffff43817fffffffffffffffffffffffffffffffffffffffffffffffffffffffffffffff438661027a9190610d5b565b6102849190610db5565b61028e9190610e3a565b93507fffffffffffffffffffffffffffffffffffffffffffffffffffffffffffffff43817fffffffffffffffffffffffffffffffffffffffffffffffffffffffffffffff43876102de9190610db5565b6102e89190610e6b565b846102f39190610d5b565b6102fd9190610e3a565b9250505b808061030c90610e9f565b9150506101ee565b507fffffffffffffffffffffffffffffffffffffffffffffffffffffffffffffff43610360827fffffffffffffffffffffffffffffffffffffffffffffffffffffffffffffff436107ab565b8361036b9190610d5b565b866103769190610db5565b6103809190610e3a565b9450505050808061039090610e9f565b9150506101ae565b5080915050919050565b600281565b600381565b600060205281600052604060002081815481106103c857600080fd5b90600052602060002001600091509150505481565b60008060003373ffffffffffffffffffffffffffffffffffffffff1673ffffffffffffffffffffffffffffffffffffffff1681526020019081526020016000208054905014610461576040517f08c379a000000000000000000000000000000000000000000000000000000000815260040161045890610f14565b60405180910390fd5b7fffffffffffffffffffffffffffffffffffffffffffffffffffffffffffffff4381106104c3576040517f08c379a00000000000000000000000000000000000000000000000000000000081526004016104ba90610f80565b60405180910390fd5b6000600360ff1667ffffffffffffffff8111156104e3576104e26109c6565b5b6040519080825280602002602001820160405280156105115781602001602082028036833780820191505090505b50905061051c6108dc565b828160006002811061053157610530610cfd565b5b6020020181815250506000600190505b600260ff168160ff1610156105d9577fffffffffffffffffffffffffffffffffffffffffffffffffffffffffffffff438482604051602001610584929190610ff7565b6040516020818303038152906040528051906020012060001c6105a79190610e3a565b828260ff16600281106105bd576105bc610cfd565b5b60200201818152505080806105d190610e9f565b915050610541565b5060005b600360ff168160ff1610156107045760006001826105fb9190611023565b60ff1690506000848360ff168151811061061857610617610cfd565b5b60200260200101818152505060005b600260ff168160ff1610156106ef577fffffffffffffffffffffffffffffffffffffffffffffffffffffffffffffff438183610663919061118d565b858360ff166002811061067957610678610cfd565b5b60200201516106889190610d5b565b868560ff168151811061069e5761069d610cfd565b5b60200260200101516106b09190610db5565b6106ba9190610e3a565b858460ff16815181106106d0576106cf610cfd565b5b60200260200101818152505080806106e790610e9f565b915050610627565b505080806106fc90610e9f565b9150506105dd565b50816000803373ffffffffffffffffffffffffffffffffffffffff1673ffffffffffffffffffffffffffffffffffffffff16815260200190815260200160002090805190602001906107579291906108fe565b503373ffffffffffffffffffffffffffffffffffffffff167fa08275ee21e1ed30aba2fe8aa4a9ddaa941032bc7ed635447560fcdb8c2fadd38360405161079e9190611296565b60405180910390a2505050565b60008082116107ef576040517f08c379a00000000000000000000000000000000000000000000000000000000081526004016107e690611304565b60405180910390fd5b6000831180156107fe57508183105b61083d576040517f08c379a000000000000000000000000000000000000000000000000000000000815260040161083490611370565b60405180910390fd5b600080600080859050600087905060009450600193508192505b60018113156108b6576000828261086e919061139a565b905082838261087d9190611404565b83610888919061151b565b809450819350505084858261089d9190611404565b876108a8919061151b565b809650819750505050610857565b60008412156108ce5786846108cb91906115af565b93505b839550505050505092915050565b6040518060400160405280600290602082028036833780820191505090505090565b82805482825590600052602060002090810192821561093a579160200282015b8281111561093957825182559160200191906001019061091e565b5b509050610947919061094b565b5090565b5b8082111561096457600081600090555060010161094c565b5090565b6000819050919050565b61097b81610968565b82525050565b60006020820190506109966000830184610972565b92915050565b6000604051905090565b600080fd5b600080fd5b600080fd5b6000601f19601f8301169050919050565b7f4e487b7100000000000000000000000000000000000000000000000000000000600052604160045260246000fd5b6109fe826109b5565b810181811067ffffffffffffffff82111715610a1d57610a1c6109c6565b5b80604052505050565b6000610a3061099c565b9050610a3c82826109f5565b919050565b600067ffffffffffffffff821115610a5c57610a5b6109c6565b5b602082029050602081019050919050565b600080fd5b610a7b81610968565b8114610a8657600080fd5b50565b600081359050610a9881610a72565b92915050565b6000610ab1610aac84610a41565b610a26565b90508083825260208201905060208402830185811115610ad457610ad3610a6d565b5b835b81811015610afd5780610ae98882610a89565b845260208401935050602081019050610ad6565b5050509392505050565b600082601f830112610b1c57610b1b6109b0565b5b8135610b2c848260208601610a9e565b91505092915050565b600060208284031215610b4b57610b4a6109a6565b5b600082013567ffffffffffffffff811115610b6957610b686109ab565b5b610b7584828501610b07565b91505092915050565b600060ff82169050919050565b610b9481610b7e565b82525050565b6000602082019050610baf6000830184610b8b565b92915050565b600073ffffffffffffffffffffffffffffffffffffffff82169050919050565b6000610be082610bb5565b9050919050565b610bf081610bd5565b8114610bfb57600080fd5b50565b600081359050610c0d81610be7565b92915050565b60008060408385031215610c2a57610c296109a6565b5b6000610c3885828601610bfe565b9250506020610c4985828601610a89565b9150509250929050565b600060208284031215610c6957610c686109a6565b5b6000610c7784828501610a89565b91505092915050565b600082825260208201905092915050565b7f4e6f7420656e6f756768207368617265732070726f7669646564000000000000600082015250565b6000610cc7601a83610c80565b9150610cd282610c91565b602082019050919050565b60006020820190508181036000830152610cf681610cba565b9050919050565b7f4e487b7100000000000000000000000000000000000000000000000000000000600052603260045260246000fd5b7f4e487b7100000000000000000000000000000000000000000000000000000000600052601160045260246000fd5b6000610d6682610968565b9150610d7183610968565b9250817fffffffffffffffffffffffffffffffffffffffffffffffffffffffffffffffff0483118215151615610daa57610da9610d2c565b5b828202905092915050565b6000610dc082610968565b9150610dcb83610968565b9250827fffffffffffffffffffffffffffffffffffffffffffffffffffffffffffffffff03821115610e0057610dff610d2c565b5b828201905092915050565b7f4e487b7100000000000000000000000000000000000000000000000000000000600052601260045260246000fd5b6000610e4582610968565b9150610e5083610968565b925082610e6057610e5f610e0b565b5b828206905092915050565b6000610e7682610968565b9150610e8183610968565b925082821015610e9457610e93610d2c565b5b828203905092915050565b6000610eaa82610b7e565b915060ff8203610ebd57610ebc610d2c565b5b600182019050919050565b7f53686172657320616c72656164792067656e6572617465640000000000000000600082015250565b6000610efe601883610c80565b9150610f0982610ec8565b602082019050919050565b60006020820190508181036000830152610f2d81610ef1565b9050919050565b7f5365637265742065786365656473207072696d65206d6f64756c757300000000600082015250565b6000610f6a601c83610c80565b9150610f7582610f34565b602082019050919050565b60006020820190508181036000830152610f9981610f5d565b9050919050565b6000819050919050565b610fbb610fb682610968565b610fa0565b82525050565b60008160f81b9050919050565b6000610fd982610fc1565b9050919050565b610ff1610fec82610b7e565b610fce565b82525050565b60006110038285610faa565b6020820191506110138284610fe0565b6001820191508190509392505050565b600061102e82610b7e565b915061103983610b7e565b92508260ff0382111561104f5761104e610d2c565b5b828201905092915050565b60008160011c9050919050565b6000808291508390505b60018511156110b15780860481111561108d5761108c610d2c565b5b600185161561109c5780820291505b80810290506110aa8561105a565b9450611071565b94509492505050565b6000826110ca5760019050611186565b816110d85760009050611186565b81600181146110ee57600281146110f857611127565b6001915050611186565b60ff84111561110a57611109610d2c565b5b8360020a91508482111561112157611120610d2c565b5b50611186565b5060208310610133831016604e8410600b841016171561115c5782820a90508381111561115757611156610d2c565b5b611186565b6111698484846001611067565b925090508184048111156111805761117f610d2c565b5b81810290505b9392505050565b600061119882610968565b91506111a383610b7e565b92506111d07fffffffffffffffffffffffffffffffffffffffffffffffffffffffffffffffff84846110ba565b905092915050565b600081519050919050565b600082825260208201905092915050565b6000819050602082019050919050565b61120d81610968565b82525050565b600061121f8383611204565b60208301905092915050565b6000602082019050919050565b6000611243826111d8565b61124d81856111e3565b9350611258836111f4565b8060005b838110156112895781516112708882611213565b975061127b8361122b565b92505060018101905061125c565b5085935050505092915050565b600060208201905081810360008301526112b08184611238565b905092915050565b7f4d6f64756c7573206d75737420626520706f7369746976650000000000000000600082015250565b60006112ee601883610c80565b91506112f9826112b8565b602082019050919050565b6000602082019050818103600083015261131d816112e1565b9050919050565b7f496e76616c696420696e70757400000000000000000000000000000000000000600082015250565b600061135a600d83610c80565b915061136582611324565b602082019050919050565b600060208201905081810360008301526113898161134d565b9050919050565b6000819050919050565b60006113a582611390565b91506113b083611390565b9250826113c0576113bf610e0b565b5b600160000383147f8000000000000000000000000000000000000000000000000000000000000000831416156113f9576113f8610d2c565b5b828205905092915050565b600061140f82611390565b915061141a83611390565b9250827f7fffffffffffffffffffffffffffffffffffffffffffffffffffffffffffffff048211600084136000841316161561145957611458610d2c565b5b817f8000000000000000000000000000000000000000000000000000000000000000058312600084126000841316161561149657611495610d2c565b5b827f800000000000000000000000000000000000000000000000000000000000000005821260008413600084121616156114d3576114d2610d2c565b5b827f7fffffffffffffffffffffffffffffffffffffffffffffffffffffffffffffff05821260008412600084121616156115105761150f610d2c565b5b828202905092915050565b600061152682611390565b915061153183611390565b9250827f80000000000000000000000000000000000000000000000000000000000000000182126000841215161561156c5761156b610d2c565b5b827f7fffffffffffffffffffffffffffffffffffffffffffffffffffffffffffffff0182136000841216156115a4576115a3610d2c565b5b828203905092915050565b60006115ba82611390565b91506115c583611390565b9250817f7fffffffffffffffffffffffffffffffffffffffffffffffffffffffffffffff03831360008312151615611600576115ff610d2c565b5b817f800000000000000000000000000000000000000000000000000000000000000003831260008312161561163857611637610d2c565b5b82820190509291505056fea264697066735822122078e6ee49e00c095ffcd89d4b01456970193c8d70741107b69febb2d47d0782c064736f6c634300080d0033",
  "immutableReferences": {},
  "source": "// SPDX-License-Identifier: MIT\npragma solidity ^0.8.13;\n\ncontract SSS {\n    uint256 constant public PRIME = 2**256 - 189; // A large prime number\n\n    // Define variables for the threshold and total number of shares\n    uint8 constant public THRESHOLD = 2; // Minimum number of shares to reconstruct\n    uint8 constant public TOTAL_SHARES = 3; // Total number of shares to generate\n\n    // Store shares for each user\n    mapping(address => uint256[]) public userShares;\n\n    // Event to notify when a user generates shares\n    event SharesGenerated(address indexed user, uint256[] shares);\n\n    constructor() {\n        // Constructor with no parameters\n    }\n\n    function splitSecret(uint256 secret) public {\n        require(userShares[msg.sender].length == 0, \"Shares already generated\");\n        require(secret < PRIME, \"Secret exceeds prime modulus\");\n\n        uint256[] memory shares = new uint256[](TOTAL_SHARES);\n\n        uint256[2] memory coef; // Use a fixed-size array with a threshold of 2\n\n        coef[0] = secret;\n\n        for (uint8 i = 1; i < THRESHOLD; i++) {\n            coef[i] = uint256(keccak256(abi.encodePacked(secret, i))) % PRIME;\n        }\n\n        for (uint8 i = 0; i < TOTAL_SHARES; i++) {\n            uint256 x = uint256(i + 1);\n\n            shares[i] = 0;\n            for (uint8 j = 0; j < THRESHOLD; j++) {\n                shares[i] = (shares[i] + coef[j] * (x ** j)) % PRIME;\n            }\n        }\n\n        // Store shares for the user\n        userShares[msg.sender] = shares;\n\n        emit SharesGenerated(msg.sender, shares);\n    }\n\n    function combineShares(uint256[] memory shares) public pure returns (uint256) {\n        require(shares.length >= THRESHOLD, \"Not enough shares provided\");\n\n        uint256 secret = 0;\n\n        for (uint8 i = 0; i < THRESHOLD; i++) {\n            uint256 xi = shares[i];\n            uint256 num = 1;\n            uint256 den = 1;\n\n            for (uint8 j = 0; j < THRESHOLD; j++) {\n                if (i != j) {\n                    uint256 xj = shares[j];\n                    num = (num * PRIME + xj) % PRIME;\n                    den = (den * (xi + PRIME - xj)) % PRIME;\n                }\n            }\n\n            secret = (secret + num * modInverse(den, PRIME)) % PRIME;\n        }\n\n        return secret;\n    }\n\n    function modInverse(uint256 a, uint256 m) internal pure returns (uint256) {\n        require(m > 0, \"Modulus must be positive\");\n        require(a > 0 && a < m, \"Invalid input\");\n\n        int256 t1;\n        int256 t2;\n        int256 t3;\n\n        int256 m0 = int256(m);\n        int256 a0 = int256(a);\n\n        t1 = 0;\n        t2 = 1;\n        t3 = m0;\n\n        while (a0 > 1) {\n            int256 quotient = a0 / m0;\n\n            (a0, m0) = (m0, a0 - quotient * m0);\n            (t1, t2) = (t2, t1 - quotient * t2);\n        }\n\n        if (t2 < 0) {\n            t2 += int256(m);\n        }\n\n        return uint256(t2);\n    }\n}\n",
  "sourcePath": "/home/aurel/Disertatie/Truffle/contracts/SSS.sol",
  "compiler": {
    "name": "solc",
    "version": "0.8.13+commit.abaa5c0e.Emscripten.clang"
  },
  "schemaVersion": "3.4.16",
  "updatedAt": "2023-10-07T18:59:47.287Z",
  "networkType": "ethereum",
  "devdoc": {
    "kind": "dev",
    "methods": {},
    "version": 1
  },
  "userdoc": {
    "kind": "user",
    "methods": {},
    "version": 1
  }
}