{
  "contractName": "test",
  "abi": [
    {
      "inputs": [],
      "name": "PRIME",
      "outputs": [
        {
          "internalType": "uint256",
          "name": "",
          "type": "uint256"
        }
      ],
      "stateMutability": "view",
      "type": "function",
      "constant": true
    },
    {
      "inputs": [
        {
          "internalType": "uint256",
          "name": "",
          "type": "uint256"
        }
      ],
      "name": "files",
      "outputs": [
        {
          "internalType": "uint256",
          "name": "secret",
          "type": "uint256"
        }
      ],
      "stateMutability": "view",
      "type": "function",
      "constant": true
    },
    {
      "inputs": [],
      "name": "minimumShares",
      "outputs": [
        {
          "internalType": "uint8",
          "name": "",
          "type": "uint8"
        }
      ],
      "stateMutability": "view",
      "type": "function",
      "constant": true
    },
    {
      "inputs": [],
      "name": "numShares",
      "outputs": [
        {
          "internalType": "uint8",
          "name": "",
          "type": "uint8"
        }
      ],
      "stateMutability": "view",
      "type": "function",
      "constant": true
    },
    {
      "inputs": [
        {
          "internalType": "uint256",
          "name": "secret",
          "type": "uint256"
        }
      ],
      "name": "makeRandomShares",
      "outputs": [],
      "stateMutability": "nonpayable",
      "type": "function"
    },
    {
      "inputs": [
        {
          "internalType": "uint256",
          "name": "fileIndex",
          "type": "uint256"
        }
      ],
      "name": "recoverSecret",
      "outputs": [
        {
          "internalType": "uint256",
          "name": "",
          "type": "uint256"
        }
      ],
      "stateMutability": "view",
      "type": "function",
      "constant": true
    },
    {
      "inputs": [],
      "name": "recoverSecretWithProvidedShares",
      "outputs": [
        {
          "internalType": "uint256",
          "name": "",
          "type": "uint256"
        }
      ],
      "stateMutability": "pure",
      "type": "function",
      "constant": true
    }
  ],
  "bytecode": "0x608060405260026000806101000a81548160ff021916908360ff1602179055506004600060016101000a81548160ff021916908360ff16021790555034801561004757600080fd5b50611678806100576000396000f3fe608060405234801561001057600080fd5b506004361061007c5760003560e01c80638d78fd0b1161005b5780638d78fd0b146100eb578063eed3a6fe14610109578063f4c714b414610127578063fdbd7134146101575761007c565b806217cd8b14610081578063393c169c1461009f578063708ab4b3146100cf575b600080fd5b610089610175565b6040516100969190610cb5565b60405180910390f35b6100b960048036038101906100b49190610d01565b610189565b6040516100c69190610cb5565b60405180910390f35b6100e960048036038101906100e49190610d01565b6103b1565b005b6100f36105d2565b6040516101009190610d4a565b60405180910390f35b6101116105e3565b60405161011e9190610d4a565b60405180910390f35b610141600480360381019061013c9190610d01565b6105f6565b60405161014e9190610cb5565b60405180910390f35b61015f610624565b60405161016c9190610cb5565b60405180910390f35b6f7fffffffffffffffffffffffffffffff81565b600060018054905082106101d2576040517f08c379a00000000000000000000000000000000000000000000000000000000081526004016101c990610dc2565b60405180910390fd5b6000600183815481106101e8576101e7610de2565b5b906000526020600020906003020190506000816002018054905067ffffffffffffffff81111561021b5761021a610e11565b5b6040519080825280602002602001820160405280156102495781602001602082028036833780820191505090505b5090506000826002018054905067ffffffffffffffff81111561026f5761026e610e11565b5b60405190808252806020026020018201604052801561029d5781602001602082028036833780820191505090505b50905060005b83600201805490508110156103435760008460020182815481106102ca576102c9610de2565b5b90600052602060002001549050808483815181106102eb576102ea610de2565b5b6020026020010181815250508460010160008281526020019081526020016000206001015483838151811061032357610322610de2565b5b60200260200101818152505050808061033b90610e6f565b9150506102a3565b50826002018054905061035583610826565b14610395576040517f08c379a000000000000000000000000000000000000000000000000000000000815260040161038c90610f29565b60405180910390fd5b60006103a3600084846108d7565b905080945050505050919050565b60008060009054906101000a900460ff1660ff1667ffffffffffffffff8111156103de576103dd610e11565b5b60405190808252806020026020018201604052801561040c5781602001602082028036833780820191505090505b509050818160008151811061042457610423610de2565b5b6020026020010181815250506000600190505b60008054906101000a900460ff1660ff168160ff1610156104ce576f7fffffffffffffffffffffffffffffff8382604051602001610476929190610fa0565b6040516020818303038152906040528051906020012060001c6104999190610ffb565b828260ff16815181106104af576104ae610de2565b5b60200260200101818152505080806104c69061102c565b915050610437565b5060006001808160018154018082558091505003906000526020600020906003020190508281600001819055506000600190505b600060019054906101000a900460ff1660ff168160ff16116105cc5760008160ff169050600061054385836f7fffffffffffffffffffffffffffffff610aba565b90506040518060400160405280838152602001828152508460010160008560ff16815260200190815260200160002060008201518160000155602082015181600101559050508360020183908060018154018082558091505060019003906000526020600020016000909160ff16909190915055505080806105c49061102c565b915050610502565b50505050565b60008054906101000a900460ff1681565b600060019054906101000a900460ff1681565b6001818154811061060657600080fd5b90600052602060002090600302016000915090508060000154905081565b600080600467ffffffffffffffff81111561064257610641610e11565b5b6040519080825280602002602001820160405280156106705781602001602082028036833780820191505090505b50905060018160008151811061068957610688610de2565b5b6020026020010181815250506002816001815181106106ab576106aa610de2565b5b6020026020010181815250506003816002815181106106cd576106cc610de2565b5b6020026020010181815250506004816003815181106106ef576106ee610de2565b5b6020026020010181815250506000600467ffffffffffffffff81111561071857610717610e11565b5b6040519080825280602002602001820160405280156107465781602001602082028036833780820191505090505b5090506f4e9686e10f9374f425924329e30c471e8160008151811061076e5761076d610de2565b5b6020026020010181815250506f1d2d0dc21f26e9e84b248653c6188dc28160018151811061079f5761079e610de2565b5b6020026020010181815250506f6bc394a32eba5edc70b6c97da924d465816002815181106107d0576107cf610de2565b5b6020026020010181815250506f3a5a1b843e4dd3d096490ca78c311b098160038151811061080157610800610de2565b5b602002602001018181525050600061081b600084846108d7565b905080935050505090565b60008082519050600081905060005b828110156108cc57600060018261084c9190611055565b90505b838110156108b85785818151811061086a57610869610de2565b5b602002602001015186838151811061088557610884610de2565b5b6020026020010151036108a557828061089d906110ab565b9350506108b8565b80806108b090610e6f565b91505061084f565b5080806108c490610e6f565b915050610835565b508092505050919050565b6000815183511461091d576040517f08c379a000000000000000000000000000000000000000000000000000000000815260040161091490611120565b60405180910390fd5b6000835111610961576040517f08c379a00000000000000000000000000000000000000000000000000000000081526004016109589061118c565b60405180910390fd5b6000805b8451811015610aae57600084828151811061098357610982610de2565b5b6020026020010151905060005b8651811015610a7557808314610a62576f7fffffffffffffffffffffffffffffff806109bf576109be610fcc565b5b6109e3898984815181106109d6576109d5610de2565b5b6020026020010151610b3a565b830991506f7fffffffffffffffffffffffffffffff80610a0657610a05610fcc565b5b610a5d610a47898681518110610a1f57610a1e610de2565b5b60200260200101518a8581518110610a3a57610a39610de2565b5b6020026020010151610b3a565b6f7fffffffffffffffffffffffffffffff610b85565b830991505b8080610a6d90610e6f565b915050610990565b506f7fffffffffffffffffffffffffffffff80610a9557610a94610fcc565b5b8184089250508080610aa690610e6f565b915050610965565b50809150509392505050565b600080600090506000855190505b6000811115610b2e578386600183610ae091906111ac565b81518110610af157610af0610de2565b5b60200260200101518684610b0591906111e0565b610b0f9190611055565b610b199190610ffb565b91508080610b26906110ab565b915050610ac8565b50809150509392505050565b600081831015610b705782826f7fffffffffffffffffffffffffffffff610b6191906111ac565b610b6b9190611055565b610b7d565b8183610b7c91906111ac565b5b905092915050565b6000808211610bc9576040517f08c379a0000000000000000000000000000000000000000000000000000000008152600401610bc0906112ac565b60405180910390fd5b600083118015610bd857508183105b610c17576040517f08c379a0000000000000000000000000000000000000000000000000000000008152600401610c0e9061133e565b60405180910390fd5b6000829050600080600080600190505b6001881115610c76578488610c3c9190611368565b92508493508488610c4d91906113d2565b94508397508193508183610c619190611403565b81610c6c919061151a565b9150839050610c27565b6000811215610c8e578681610c8b91906115ae565b90505b809550505050505092915050565b6000819050919050565b610caf81610c9c565b82525050565b6000602082019050610cca6000830184610ca6565b92915050565b600080fd5b610cde81610c9c565b8114610ce957600080fd5b50565b600081359050610cfb81610cd5565b92915050565b600060208284031215610d1757610d16610cd0565b5b6000610d2584828501610cec565b91505092915050565b600060ff82169050919050565b610d4481610d2e565b82525050565b6000602082019050610d5f6000830184610d3b565b92915050565b600082825260208201905092915050565b7f496e76616c69642066696c6520696e6465780000000000000000000000000000600082015250565b6000610dac601283610d65565b9150610db782610d76565b602082019050919050565b60006020820190508181036000830152610ddb81610d9f565b9050919050565b7f4e487b7100000000000000000000000000000000000000000000000000000000600052603260045260246000fd5b7f4e487b7100000000000000000000000000000000000000000000000000000000600052604160045260246000fd5b7f4e487b7100000000000000000000000000000000000000000000000000000000600052601160045260246000fd5b6000610e7a82610c9c565b91507fffffffffffffffffffffffffffffffffffffffffffffffffffffffffffffffff8203610eac57610eab610e40565b5b600182019050919050565b7f416c6c20736861726520782076616c756573206d75737420626520646973746960008201527f6e63740000000000000000000000000000000000000000000000000000000000602082015250565b6000610f13602383610d65565b9150610f1e82610eb7565b604082019050919050565b60006020820190508181036000830152610f4281610f06565b9050919050565b6000819050919050565b610f64610f5f82610c9c565b610f49565b82525050565b60008160f81b9050919050565b6000610f8282610f6a565b9050919050565b610f9a610f9582610d2e565b610f77565b82525050565b6000610fac8285610f53565b602082019150610fbc8284610f89565b6001820191508190509392505050565b7f4e487b7100000000000000000000000000000000000000000000000000000000600052601260045260246000fd5b600061100682610c9c565b915061101183610c9c565b92508261102157611020610fcc565b5b828206905092915050565b600061103782610d2e565b915060ff820361104a57611049610e40565b5b600182019050919050565b600061106082610c9c565b915061106b83610c9c565b9250827fffffffffffffffffffffffffffffffffffffffffffffffffffffffffffffffff038211156110a05761109f610e40565b5b828201905092915050565b60006110b682610c9c565b9150600082036110c9576110c8610e40565b5b600182039050919050565b7f4d69736d61746368656420696e70757420617272617973000000000000000000600082015250565b600061110a601783610d65565b9150611115826110d4565b602082019050919050565b60006020820190508181036000830152611139816110fd565b9050919050565b7f456d70747920696e707574206172726179730000000000000000000000000000600082015250565b6000611176601283610d65565b915061118182611140565b602082019050919050565b600060208201905081810360008301526111a581611169565b9050919050565b60006111b782610c9c565b91506111c283610c9c565b9250828210156111d5576111d4610e40565b5b828203905092915050565b60006111eb82610c9c565b91506111f683610c9c565b9250817fffffffffffffffffffffffffffffffffffffffffffffffffffffffffffffffff048311821515161561122f5761122e610e40565b5b828202905092915050565b7f4d6f64756c7573206d7573742062652067726561746572207468616e207a657260008201527f6f00000000000000000000000000000000000000000000000000000000000000602082015250565b6000611296602183610d65565b91506112a18261123a565b604082019050919050565b600060208201905081810360008301526112c581611289565b9050919050565b7f56616c756520276127206d7573742062652067726561746572207468616e207a60008201527f65726f20616e64206c657373207468616e20276d270000000000000000000000602082015250565b6000611328603583610d65565b9150611333826112cc565b604082019050919050565b600060208201905081810360008301526113578161131b565b9050919050565b6000819050919050565b60006113738261135e565b915061137e8361135e565b92508261138e5761138d610fcc565b5b600160000383147f8000000000000000000000000000000000000000000000000000000000000000831416156113c7576113c6610e40565b5b828205905092915050565b60006113dd8261135e565b91506113e88361135e565b9250826113f8576113f7610fcc565b5b828207905092915050565b600061140e8261135e565b91506114198361135e565b9250827f7fffffffffffffffffffffffffffffffffffffffffffffffffffffffffffffff048211600084136000841316161561145857611457610e40565b5b817f8000000000000000000000000000000000000000000000000000000000000000058312600084126000841316161561149557611494610e40565b5b827f800000000000000000000000000000000000000000000000000000000000000005821260008413600084121616156114d2576114d1610e40565b5b827f7fffffffffffffffffffffffffffffffffffffffffffffffffffffffffffffff058212600084126000841216161561150f5761150e610e40565b5b828202905092915050565b60006115258261135e565b91506115308361135e565b9250827f80000000000000000000000000000000000000000000000000000000000000000182126000841215161561156b5761156a610e40565b5b827f7fffffffffffffffffffffffffffffffffffffffffffffffffffffffffffffff0182136000841216156115a3576115a2610e40565b5b828203905092915050565b60006115b98261135e565b91506115c48361135e565b9250817f7fffffffffffffffffffffffffffffffffffffffffffffffffffffffffffffff038313600083121516156115ff576115fe610e40565b5b817f800000000000000000000000000000000000000000000000000000000000000003831260008312161561163757611636610e40565b5b82820190509291505056fea26469706673582212200c10f7211f1fd8797f6713e07f47f45439b73cc5ec8fa67495276f9bc406885064736f6c634300080d0033",
  "immutableReferences": {},
  "source": "// SPDX-License-Identifier: MIT\npragma solidity ^0.8.13;\n\ncontract test {\n    uint256 constant public PRIME = 2 ** 127 - 1;\n    uint8 public minimumShares = 2;\n    uint8 public numShares = 4;\n\n    struct Share {\n        uint256 x;\n        uint256 y;\n    }\n\n    struct File {\n        uint256 secret;\n        mapping(uint256 => Share) shares;\n        uint256[] shareIndices;\n    }\n\n    File[] public files;\n\n    function evalAt(uint256[] memory poly, uint256 x, uint256 prime) internal pure returns (uint256) {\n        uint256 accum = 0;\n        for (uint256 i = poly.length; i > 0; i--) {\n            accum = (accum * x + poly[i - 1]) % prime;\n        }\n        return accum;\n    }\n\n    function makeRandomShares(uint256 secret) public {\n        uint256[] memory poly = new uint256[](minimumShares);\n        poly[0] = secret;\n\n        for (uint8 i = 1; i < minimumShares; i++) {\n            poly[i] = uint256(keccak256(abi.encodePacked(secret, i))) % PRIME;\n        }\n\n        File storage newFile = files.push();\n        newFile.secret = secret;\n\n        for (uint8 i = 1; i <= numShares; i++) {\n            uint256 x = i;\n            uint256 y = evalAt(poly, x, PRIME);\n            newFile.shares[i] = Share(x, y);\n            newFile.shareIndices.push(i);\n        }\n    }\n\n    function recoverSecret(uint256 fileIndex) public view returns (uint256) {\n        require(fileIndex < files.length, \"Invalid file index\");\n\n        File storage file = files[fileIndex];\n        uint256[] memory xS = new uint256[](file.shareIndices.length);\n        uint256[] memory yS = new uint256[](file.shareIndices.length);\n\n        for (uint256 i = 0; i < file.shareIndices.length; i++) {\n            uint256 x = file.shareIndices[i];\n            xS[i] = x;\n            yS[i] = file.shares[x].y;\n        }\n\n        require(lenUnique(xS) == file.shareIndices.length, \"All share x values must be distinct\");\n\n        uint256 recoveredSecret = lagrangeInterpolate(0, xS, yS);\n\n        return recoveredSecret;\n}\n\n\n    function lagrangeInterpolate(uint256 x, uint256[] memory xS, uint256[] memory yS) internal pure returns (uint256) {\n    require(xS.length == yS.length, \"Mismatched input arrays\");\n    require(xS.length > 0, \"Empty input arrays\");\n\n    uint256 result = 0;\n\n    for (uint256 i = 0; i < xS.length; i++) {\n        uint256 term = yS[i];\n        for (uint256 j = 0; j < xS.length; j++) {\n            if (i != j) {\n                term = mulmod(term, submod(x, xS[j]), PRIME);\n                term = mulmod(term, modInv(submod(xS[i], xS[j]), PRIME), PRIME);\n            }\n        }\n        result = addmod(result, term, PRIME);\n    }\n\n    return result;\n}\n\n    function recoverSecretWithProvidedShares() public pure returns (uint256) {\n        uint256[] memory xS = new uint256[](4);\n        xS[0] = 1;\n        xS[1] = 2;\n        xS[2] = 3;\n        xS[3] = 4;\n\n        uint256[] memory yS = new uint256[](4);\n        yS[0] = 104461363874047656805117686187024992030;\n        yS[1] = 38781544287626081878548068658165878210;\n        yS[2] = 143242908161673738683665754845190870117;\n        yS[3] = 77563088575252163757096137316331756297;\n\n        uint256 recoveredSecret = lagrangeInterpolate(0, xS, yS);\n\n        return recoveredSecret;\n}\n\n    function submod(uint256 a, uint256 b) internal pure returns (uint256) {\n        return (a >= b) ? (a - b) : (PRIME - b + a);\n    }\n\n    function modInv(uint256 a, uint256 m) internal pure returns (uint256) {\n        require(m > 0, \"Modulus must be greater than zero\");\n        require(a > 0 && a < m, \"Value 'a' must be greater than zero and less than 'm'\");\n\n        int256 m0 = int256(m);\n        int256 t;\n        int256 q;\n        int256 x0 = 0;\n        int256 x1 = 1;\n\n        while (a > 1) {\n            q = int256(a) / m0;\n            t = m0;\n            m0 = int256(a) % m0;\n            a = uint256(t);\n\n            t = x0;\n            x0 = x1 - q * x0;\n            x1 = t;\n        }\n\n        if (x1 < 0) {\n            x1 += int256(m);\n        }\n\n        return uint256(x1);\n    }\n\n\n    function lenUnique(uint256[] memory arr) internal pure returns (uint256) {\n        uint256 len = arr.length;\n        uint256 uniqueCount = len;\n\n        for (uint256 i = 0; i < len; i++) {\n            for (uint256 j = i + 1; j < len; j++) {\n                if (arr[i] == arr[j]) {\n                    uniqueCount--;\n                    break;\n                }\n            }\n        }\n\n        return uniqueCount;\n    }\n}\n",
  "sourcePath": "/home/aurel/Disertatie/Truffle/contracts/test.sol",
  "compiler": {
    "name": "solc",
    "version": "0.8.13+commit.abaa5c0e.Emscripten.clang"
  },
  "schemaVersion": "3.4.16",
  "updatedAt": "2023-10-14T19:37:46.357Z",
  "networkType": "ethereum",
  "devdoc": {
    "kind": "dev",
    "methods": {},
    "version": 1
  },
  "userdoc": {
    "kind": "user",
    "methods": {},
    "version": 1
  }
}